{
  "abi": [
    {
      "inputs": [
        {
          "internalType": "address",
          "name": "passkey",
          "type": "address"
        }
      ],
      "stateMutability": "nonpayable",
      "type": "constructor"
    },
    {
      "anonymous": false,
      "inputs": [
        {
          "indexed": false,
          "internalType": "address",
          "name": "previousAdmin",
          "type": "address"
        },
        {
          "indexed": false,
          "internalType": "address",
          "name": "newAdmin",
          "type": "address"
        }
      ],
      "name": "AdminChanged",
      "type": "event"
    },
    {
      "anonymous": false,
      "inputs": [
        {
          "indexed": true,
          "internalType": "address",
          "name": "beacon",
          "type": "address"
        }
      ],
      "name": "BeaconUpgraded",
      "type": "event"
    },
    {
      "anonymous": false,
      "inputs": [],
      "name": "Execute",
      "type": "event"
    },
    {
      "anonymous": false,
      "inputs": [
        {
          "indexed": false,
          "internalType": "uint8",
          "name": "version",
          "type": "uint8"
        }
      ],
      "name": "Initialized",
      "type": "event"
    },
    {
      "anonymous": false,
      "inputs": [
        {
          "indexed": true,
          "internalType": "address",
          "name": "implementation",
          "type": "address"
        }
      ],
      "name": "Upgraded",
      "type": "event"
    },
    {
      "stateMutability": "payable",
      "type": "fallback"
    },
    {
      "inputs": [],
      "name": "KEY_COUNT_SLOT",
      "outputs": [
        {
          "internalType": "bytes32",
          "name": "",
          "type": "bytes32"
        }
      ],
      "stateMutability": "view",
      "type": "function"
    },
    {
      "inputs": [],
      "name": "KEY_MANAGE_PREFIX_SLOT",
      "outputs": [
        {
          "internalType": "bytes32",
          "name": "",
          "type": "bytes32"
        }
      ],
      "stateMutability": "view",
      "type": "function"
    },
    {
      "inputs": [],
      "name": "SENTINEL_ADDRESS",
      "outputs": [
        {
          "internalType": "address",
          "name": "",
          "type": "address"
        }
      ],
      "stateMutability": "view",
      "type": "function"
    },
    {
      "inputs": [
        {
          "internalType": "bytes",
          "name": "initData",
          "type": "bytes"
        }
      ],
      "name": "__Wallet_init",
      "outputs": [],
      "stateMutability": "nonpayable",
      "type": "function"
    },
    {
      "inputs": [
        {
          "internalType": "address",
          "name": "key",
          "type": "address"
        }
      ],
      "name": "addKey",
      "outputs": [],
      "stateMutability": "nonpayable",
      "type": "function"
    },
    {
      "inputs": [],
      "name": "entryPoint",
      "outputs": [
        {
          "internalType": "contract IEntryPoint",
          "name": "",
          "type": "address"
        }
      ],
      "stateMutability": "view",
      "type": "function"
    },
    {
      "inputs": [
        {
          "internalType": "address",
          "name": "dest",
          "type": "address"
        },
        {
          "internalType": "uint256",
          "name": "value",
          "type": "uint256"
        },
        {
          "internalType": "bytes",
          "name": "func",
          "type": "bytes"
        }
      ],
      "name": "execute",
      "outputs": [],
      "stateMutability": "nonpayable",
      "type": "function"
    },
    {
      "inputs": [
        {
          "internalType": "address[]",
          "name": "dest",
          "type": "address[]"
        },
        {
          "internalType": "uint256[]",
          "name": "values",
          "type": "uint256[]"
        },
        {
          "internalType": "bytes[]",
          "name": "func",
          "type": "bytes[]"
        }
      ],
      "name": "executeBatch",
      "outputs": [],
      "stateMutability": "nonpayable",
      "type": "function"
    },
    {
      "inputs": [],
      "name": "getKeys",
      "outputs": [
        {
          "internalType": "address[]",
          "name": "keys",
          "type": "address[]"
        }
      ],
      "stateMutability": "view",
      "type": "function"
    },
    {
      "inputs": [],
      "name": "getNonce",
      "outputs": [
        {
          "internalType": "uint256",
          "name": "",
          "type": "uint256"
        }
      ],
      "stateMutability": "view",
      "type": "function"
    },
    {
      "inputs": [],
      "name": "getTotalKey",
      "outputs": [
        {
          "internalType": "uint256",
          "name": "",
          "type": "uint256"
        }
      ],
      "stateMutability": "view",
      "type": "function"
    },
    {
      "inputs": [
        {
          "internalType": "bytes32",
          "name": "key",
          "type": "bytes32"
        },
        {
          "internalType": "uint256",
          "name": "x",
          "type": "uint256"
        },
        {
          "internalType": "uint256",
          "name": "y",
          "type": "uint256"
        }
      ],
      "name": "init",
      "outputs": [],
      "stateMutability": "nonpayable",
      "type": "function"
    },
    {
      "inputs": [
        {
          "internalType": "address",
          "name": "key",
          "type": "address"
        }
      ],
      "name": "isValidKey",
      "outputs": [
        {
          "internalType": "bool",
          "name": "",
          "type": "bool"
        }
      ],
      "stateMutability": "view",
      "type": "function"
    },
    {
      "inputs": [
        {
          "internalType": "bytes32",
          "name": "hash",
          "type": "bytes32"
        },
        {
          "internalType": "bytes",
          "name": "signature",
          "type": "bytes"
        }
      ],
      "name": "isValidSignature",
      "outputs": [
        {
          "internalType": "bytes4",
          "name": "magicValue",
          "type": "bytes4"
        }
      ],
      "stateMutability": "view",
      "type": "function"
    },
    {
      "inputs": [
        {
          "internalType": "address",
          "name": "",
          "type": "address"
        },
        {
          "internalType": "address",
          "name": "",
          "type": "address"
        },
        {
          "internalType": "uint256[]",
          "name": "",
          "type": "uint256[]"
        },
        {
          "internalType": "uint256[]",
          "name": "",
          "type": "uint256[]"
        },
        {
          "internalType": "bytes",
          "name": "",
          "type": "bytes"
        }
      ],
      "name": "onERC1155BatchReceived",
      "outputs": [
        {
          "internalType": "bytes4",
          "name": "",
          "type": "bytes4"
        }
      ],
      "stateMutability": "pure",
      "type": "function"
    },
    {
      "inputs": [
        {
          "internalType": "address",
          "name": "",
          "type": "address"
        },
        {
          "internalType": "address",
          "name": "",
          "type": "address"
        },
        {
          "internalType": "uint256",
          "name": "",
          "type": "uint256"
        },
        {
          "internalType": "uint256",
          "name": "",
          "type": "uint256"
        },
        {
          "internalType": "bytes",
          "name": "",
          "type": "bytes"
        }
      ],
      "name": "onERC1155Received",
      "outputs": [
        {
          "internalType": "bytes4",
          "name": "",
          "type": "bytes4"
        }
      ],
      "stateMutability": "pure",
      "type": "function"
    },
    {
      "inputs": [
        {
          "internalType": "address",
          "name": "",
          "type": "address"
        },
        {
          "internalType": "address",
          "name": "",
          "type": "address"
        },
        {
          "internalType": "uint256",
          "name": "",
          "type": "uint256"
        },
        {
          "internalType": "bytes",
          "name": "",
          "type": "bytes"
        }
      ],
      "name": "onERC721Received",
      "outputs": [
        {
          "internalType": "bytes4",
          "name": "",
          "type": "bytes4"
        }
      ],
      "stateMutability": "pure",
      "type": "function"
    },
    {
      "inputs": [],
      "name": "passKeyModule",
      "outputs": [
        {
          "internalType": "address",
          "name": "",
          "type": "address"
        }
      ],
      "stateMutability": "view",
      "type": "function"
    },
    {
      "inputs": [],
      "name": "proxiableUUID",
      "outputs": [
        {
          "internalType": "bytes32",
          "name": "",
          "type": "bytes32"
        }
      ],
      "stateMutability": "view",
      "type": "function"
    },
    {
      "inputs": [
        {
          "internalType": "address",
          "name": "prevKey",
          "type": "address"
        },
        {
          "internalType": "address",
          "name": "key",
          "type": "address"
        }
      ],
      "name": "removeKey",
      "outputs": [],
      "stateMutability": "nonpayable",
      "type": "function"
    },
    {
      "inputs": [
        {
          "internalType": "bytes4",
          "name": "interfaceId",
          "type": "bytes4"
        }
      ],
      "name": "supportsInterface",
      "outputs": [
        {
          "internalType": "bool",
          "name": "",
          "type": "bool"
        }
      ],
      "stateMutability": "view",
      "type": "function"
    },
    {
      "inputs": [
        {
          "internalType": "address",
          "name": "",
          "type": "address"
        },
        {
          "internalType": "address",
          "name": "",
          "type": "address"
        },
        {
          "internalType": "address",
          "name": "",
          "type": "address"
        },
        {
          "internalType": "uint256",
          "name": "",
          "type": "uint256"
        },
        {
          "internalType": "bytes",
          "name": "",
          "type": "bytes"
        },
        {
          "internalType": "bytes",
          "name": "",
          "type": "bytes"
        }
      ],
      "name": "tokensReceived",
      "outputs": [],
      "stateMutability": "pure",
      "type": "function"
    },
    {
      "inputs": [
        {
          "internalType": "address",
          "name": "newImplementation",
          "type": "address"
        }
      ],
      "name": "upgradeTo",
      "outputs": [],
      "stateMutability": "nonpayable",
      "type": "function"
    },
    {
      "inputs": [
        {
          "internalType": "address",
          "name": "newImplementation",
          "type": "address"
        },
        {
          "internalType": "bytes",
          "name": "data",
          "type": "bytes"
        }
      ],
      "name": "upgradeToAndCall",
      "outputs": [],
      "stateMutability": "payable",
      "type": "function"
    },
    {
      "inputs": [
        {
          "components": [
            {
              "internalType": "address",
              "name": "sender",
              "type": "address"
            },
            {
              "internalType": "uint256",
              "name": "nonce",
              "type": "uint256"
            },
            {
              "internalType": "bytes",
              "name": "initCode",
              "type": "bytes"
            },
            {
              "internalType": "bytes",
              "name": "callData",
              "type": "bytes"
            },
            {
              "internalType": "uint256",
              "name": "callGasLimit",
              "type": "uint256"
            },
            {
              "internalType": "uint256",
              "name": "verificationGasLimit",
              "type": "uint256"
            },
            {
              "internalType": "uint256",
              "name": "preVerificationGas",
              "type": "uint256"
            },
            {
              "internalType": "uint256",
              "name": "maxFeePerGas",
              "type": "uint256"
            },
            {
              "internalType": "uint256",
              "name": "maxPriorityFeePerGas",
              "type": "uint256"
            },
            {
              "internalType": "bytes",
              "name": "paymasterAndData",
              "type": "bytes"
            },
            {
              "internalType": "bytes",
              "name": "signature",
              "type": "bytes"
            }
          ],
          "internalType": "struct UserOperation",
          "name": "userOp",
          "type": "tuple"
        },
        {
          "internalType": "bytes32",
          "name": "userOpHash",
          "type": "bytes32"
        },
        {
          "internalType": "uint256",
          "name": "missingAccountFunds",
          "type": "uint256"
        }
      ],
      "name": "validateUserOp",
      "outputs": [
        {
          "internalType": "uint256",
          "name": "validationData",
          "type": "uint256"
        }
      ],
      "stateMutability": "nonpayable",
      "type": "function"
    },
    {
      "stateMutability": "payable",
      "type": "receive"
    }
  ],
  "bytecode": {
    "object": "0x61014060405230608052600160a08190526200003c907f87811f529cafcb6c46985aed1d6771b44d67ee365f54f570c8cebc3679a31a8c620000b8565b60c0526200006c60017f805dd85f12947019774950c90727cb49341c55479dd1fe9c438e28e9588ec9c0620000b8565b60e0523480156200007c57600080fd5b5060405162003367380380620033678339810160408190526200009f91620000e0565b6000610100526001600160a01b03166101205262000112565b81810381811115620000da57634e487b7160e01b600052601160045260246000fd5b92915050565b600060208284031215620000f357600080fd5b81516001600160a01b03811681146200010b57600080fd5b9392505050565b60805160a05160c05160e051610100516101205161315d6200020a6000396000818161034c01528181611adc01528181611bff0152611c280152600081816103c901528181610fb10152818161146101526117d101526000818161039801528181610f8501528181611a540152611a8a0152600081816104e50152818161125401526119cc015260008181610519015281816107550152818161077e01528181610c2001528181610cbc01528181610d4701528181610d7c01528181610deb01528181611bde0152611c490152600081816108180152818161086101528181610a8701528181610ac70152610b5a015261315d6000f3fe60806040526004361061015a5760003560e01c80638ab3e33f116100c8578063c5afe5e011610084578063f23a6e6111610061578063f23a6e6114610486578063f32199bb146104b3578063f7483860146104d3578063fae010f61461050757005b8063c5afe5e01461043c578063d087d28814610451578063da1be40b1461046657005b80638ab3e33f1461031a5780638c9682d81461033a578063abf0c72714610386578063b0d691fe146103ba578063b61d27f6146103ed578063bc197c811461040d57005b80633a871cdd116101175780633a871cdd1461026457806347e1da2a146102925780634f1ef286146102b257806352d1902d146102c55780635cf00ee4146102da5780635f7b68be146102fa57005b806223de291461016357806301ffc9a714610188578063150b7a02146101bd5780631626ba7e146102025780632150c518146102225780633659cfe61461024457005b3661016157005b005b34801561016f57600080fd5b5061016161017e3660046121e1565b5050505050505050565b34801561019457600080fd5b506101a86101a33660046122a7565b61053b565b60405190151581526020015b60405180910390f35b3480156101c957600080fd5b506101e96101d83660046122c4565b630a85bd0160e11b95945050505050565b6040516001600160e01b031990911681526020016101b4565b34801561020e57600080fd5b506101e961021d366004612336565b6105a8565b34801561022e57600080fd5b506102376106f9565b6040516101b49190612381565b34801561025057600080fd5b5061016161025f3660046123ce565b61080e565b34801561027057600080fd5b5061028461027f3660046123eb565b6108f6565b6040519081526020016101b4565b34801561029e57600080fd5b506101616102ad366004612482565b61091c565b6101616102c0366004612607565b610a7d565b3480156102d157600080fd5b50610284610b4d565b3480156102e657600080fd5b506101a86102f53660046123ce565b610c00565b34801561030657600080fd5b506101616103153660046123ce565b610c5a565b34801561032657600080fd5b50610161610335366004612656565b610db2565b34801561034657600080fd5b5061036e7f000000000000000000000000000000000000000000000000000000000000000081565b6040516001600160a01b0390911681526020016101b4565b34801561039257600080fd5b506102847f000000000000000000000000000000000000000000000000000000000000000081565b3480156103c657600080fd5b507f000000000000000000000000000000000000000000000000000000000000000061036e565b3480156103f957600080fd5b5061016161040836600461268f565b610ee2565b34801561041957600080fd5b506101e96104283660046126ea565b63bc197c8160e01b98975050505050505050565b34801561044857600080fd5b50610284610f7e565b34801561045d57600080fd5b50610284610fad565b34801561047257600080fd5b50610161610481366004612787565b611041565b34801561049257600080fd5b506101e96104a13660046127bb565b63f23a6e6160e01b9695505050505050565b3480156104bf57600080fd5b506101616104ce366004612824565b611213565b3480156104df57600080fd5b506102847f000000000000000000000000000000000000000000000000000000000000000081565b34801561051357600080fd5b5061036e7f000000000000000000000000000000000000000000000000000000000000000081565b60006001600160e01b03198216630271189760e51b148061056c57506001600160e01b03198216630a85bd0160e11b145b8061058757506001600160e01b031982166301ffc9a760e01b145b806105a257506301ffc9a760e01b6001600160e01b03198316145b92915050565b6000806105b86014828587612850565b6105c19161287a565b60601c905060006105d58460148188612850565b8080601f0160208091040260200160405190810160405280939291908181526020018383808284376000920191909152509293506106189250849150610c009050565b156106e4576001600160a01b0382163b156106a357604051630b135d3f60e11b81526001600160a01b03831690631626ba7e9061065b90899085906004016128fd565b602060405180830381865afa158015610678573d6000803e3d6000fd5b505050506040513d601f19601f8201168201806040525081019061069c9190612916565b92506106f0565b6106ad868261122b565b6001600160a01b0316826001600160a01b0316036106d457630b135d3f60e11b92506106f0565b6001600160e01b031992506106f0565b6001600160e01b031992505b50509392505050565b60606000610705610f7e565b90506000816001600160401b038111156107215761072161251b565b60405190808252806020026020018201604052801561074a578160200160208202803683370190505b5090506000806107797f000000000000000000000000000000000000000000000000000000000000000061124f565b90505b7f00000000000000000000000000000000000000000000000000000000000000006001600160a01b0316816001600160a01b03161461080557808383815181106107c8576107c8612933565b60200260200101906001600160a01b031690816001600160a01b0316815250506107f18161124f565b9050816107fd8161295f565b92505061077c565b50909392505050565b6001600160a01b037f000000000000000000000000000000000000000000000000000000000000000016300361085f5760405162461bcd60e51b815260040161085690612978565b60405180910390fd5b7f00000000000000000000000000000000000000000000000000000000000000006001600160a01b03166108a86000805160206130e1833981519152546001600160a01b031690565b6001600160a01b0316146108ce5760405162461bcd60e51b8152600401610856906129c4565b6108d7816112c7565b604080516000808252602082019092526108f3918391906112eb565b50565b6000610900611456565b61090a84846114d0565b90506109158261176b565b9392505050565b6109246117c4565b6109405760405162461bcd60e51b815260040161085690612a10565b8481146109855760405162461bcd60e51b815260206004820152601360248201527257726f6e67206172726179206c656e6774687360681b6044820152606401610856565b60005b85811015610a4357610a318787838181106109a5576109a5612933565b90506020020160208101906109ba91906123ce565b8686848181106109cc576109cc612933565b905060200201358585858181106109e5576109e5612933565b90506020028101906109f79190612a40565b8080601f0160208091040260200160405190810160405280939291908181526020018383808284376000920191909152506117ff92505050565b80610a3b8161295f565b915050610988565b506040517fb9d2d32c9e5b3a74bb2ccd4d000be39660f9852691248d3b91f49adb1ec00f1990600090a1610a7561186f565b505050505050565b6001600160a01b037f0000000000000000000000000000000000000000000000000000000000000000163003610ac55760405162461bcd60e51b815260040161085690612978565b7f00000000000000000000000000000000000000000000000000000000000000006001600160a01b0316610b0e6000805160206130e1833981519152546001600160a01b031690565b6001600160a01b031614610b345760405162461bcd60e51b8152600401610856906129c4565b610b3d826112c7565b610b49828260016112eb565b5050565b6000306001600160a01b037f00000000000000000000000000000000000000000000000000000000000000001614610bed5760405162461bcd60e51b815260206004820152603860248201527f555550535570677261646561626c653a206d757374206e6f742062652063616c60448201527f6c6564207468726f7567682064656c656761746563616c6c00000000000000006064820152608401610856565b506000805160206130e183398151915290565b600080610c0c8361124f565b6001600160a01b0316141580156105a257507f00000000000000000000000000000000000000000000000000000000000000006001600160a01b0316826001600160a01b0316141592915050565b610c626117c4565b610c7e5760405162461bcd60e51b815260040161085690612a10565b610ca7604051806040016040528060068152602001656164644b657960d01b8152508230611981565b6001600160a01b03811615801590610cf157507f00000000000000000000000000000000000000000000000000000000000000006001600160a01b0316816001600160a01b031614155b8015610d0657506001600160a01b0381163014155b610d405760405162461bcd60e51b815260206004820152600b60248201526a496e76616c6964204b657960a81b6044820152606401610856565b6000610d6b7f000000000000000000000000000000000000000000000000000000000000000061124f565b9050610d7782826119c8565b610da17f0000000000000000000000000000000000000000000000000000000000000000836119c8565b610da9611a52565b506108f361186f565b610dba6117c4565b610dd65760405162461bcd60e51b815260040161085690612a10565b6001600160a01b03811615801590610e2057507f00000000000000000000000000000000000000000000000000000000000000006001600160a01b0316816001600160a01b031614155b610e5a5760405162461bcd60e51b815260206004820152600b60248201526a496e76616c6964204b657960a81b6044820152606401610856565b806001600160a01b0316610e6d8361124f565b6001600160a01b031614610eb55760405162461bcd60e51b815260206004820152600f60248201526e496e76616c696420707265764b657960881b6044820152606401610856565b610ec782610ec28361124f565b6119c8565b610ed28160006119c8565b610eda611a88565b610b4961186f565b610eea6117c4565b610f065760405162461bcd60e51b815260040161085690612a10565b610f47848484848080601f0160208091040260200160405190810160405280939291908181526020018383808284376000920191909152506117ff92505050565b6040517fb9d2d32c9e5b3a74bb2ccd4d000be39660f9852691248d3b91f49adb1ec00f1990600090a1610f7861186f565b50505050565b6000610fa87f00000000000000000000000000000000000000000000000000000000000000005490565b905090565b60007f0000000000000000000000000000000000000000000000000000000000000000604051631aab3f0d60e11b8152306004820152600060248201526001600160a01b0391909116906335567e1a90604401602060405180830381865afa15801561101d573d6000803e3d6000fd5b505050506040513d601f19601f82011682018060405250810190610fa89190612a86565b600054610100900460ff16158080156110615750600054600160ff909116105b8061107b5750303b15801561107b575060005460ff166001145b6110de5760405162461bcd60e51b815260206004820152602e60248201527f496e697469616c697a61626c653a20636f6e747261637420697320616c72656160448201526d191e481a5b9a5d1a585b1a5e995960921b6064820152608401610856565b6000805460ff191660011790558015611101576000805461ff0019166101001790555b600080838060200190518101906111189190612a9f565b915091506000826001600160a01b0316826040516111369190612b2b565b600060405180830381855af49150503d8060008114611171576040519150601f19603f3d011682016040523d82523d6000602084013e611176565b606091505b50509050806111c75760405162461bcd60e51b815260206004820152601860248201527f57616c6c65743a20426f6f747374726170206661696c656400000000000000006044820152606401610856565b5050508015610b49576000805461ff0019169055604051600181527f7f26b83ff96e1f2b6a682f133852f6798a09c465da95921460cefb38474024989060200160405180910390a15050565b61121e838383611ab7565b611226611bd9565b505050565b600080600061123a8585611c75565b9150915061124781611cba565b509392505050565b6000807f0000000000000000000000000000000000000000000000000000000000000000836040516020016112979291909182526001600160a01b0316602082015260400190565b6040516020818303038152906040528051906020012090506112b68190565b546001600160a01b03169392505050565b6112cf6117c4565b6108f35760405162461bcd60e51b815260040161085690612a10565b7f4910fdfa16fed3260ed0e7147f7cc6da11a60208b5b9406d12a635614ffd91435460ff161561131e5761122683611e04565b826001600160a01b03166352d1902d6040518163ffffffff1660e01b8152600401602060405180830381865afa925050508015611378575060408051601f3d908101601f1916820190925261137591810190612a86565b60015b6113db5760405162461bcd60e51b815260206004820152602e60248201527f45524331393637557067726164653a206e657720696d706c656d656e7461746960448201526d6f6e206973206e6f74205555505360901b6064820152608401610856565b6000805160206130e1833981519152811461144a5760405162461bcd60e51b815260206004820152602960248201527f45524331393637557067726164653a20756e737570706f727465642070726f786044820152681a58589b195555525160ba1b6064820152608401610856565b50611226838383611ea0565b336001600160a01b037f000000000000000000000000000000000000000000000000000000000000000016146114ce5760405162461bcd60e51b815260206004820152601c60248201527f6163636f756e743a206e6f742066726f6d20456e747279506f696e74000000006044820152606401610856565b565b6000806114e1610140850185612a40565b6114f091601491600091612850565b6114f99161287a565b60601c9050600061150e610140860186612a40565b61151c916014908290612850565b8080601f01602080910402602001604051908101604052809392919081815260200183838082843760009201919091525092935061155f9250849150610c009050565b1561175e576001600160a01b0382163b156116f95760405180606001604052808661158990612b47565b81526001600160a01b03848116602080840191909152604092830188905283518051600180546001600160a01b03191691909416178355908101516002559182015190919082906003906115dd9082612cd5565b50606082015160038201906115f29082612cd5565b506080820151600482015560a0820151600582015560c0820151600682015560e082015160078201556101008201516008820155610120820151600982019061163b9082612cd5565b50610140820151600a8201906116519082612cd5565b5050506020820151600b820180546001600160a01b0319166001600160a01b03928316179055604092830151600c90920191909155905160016206524760e11b031981529083169063fff35b72906116af9088908890600401612e02565b6020604051808303816000875af11580156116ce573d6000803e3d6000fd5b505050506040513d601f19601f820116820180604052508101906116f29190612a86565b9250611763565b7f19457468657265756d205369676e6564204d6573736167653a0a3332000000006000908152601c859052603c9020611732818361122b565b6001600160a01b0316836001600160a01b0316036117535760009350611758565b600193505b50611763565b600192505b505092915050565b80156108f357604051600090339060001990849084818181858888f193505050503d80600081146117b8576040519150601f19603f3d011682016040523d82523d6000602084013e6117bd565b606091505b5050505050565b6000336001600160a01b037f0000000000000000000000000000000000000000000000000000000000000000161480610fa857505030331490565b600080846001600160a01b0316848460405161181b9190612b2b565b60006040518083038185875af1925050503d8060008114611858576040519150601f19603f3d011682016040523d82523d6000602084013e61185d565b606091505b5091509150816117bd57805160208201fd5b600c546001600160a01b0316156114ce57600c54600d5460405163dee30c9760e01b81526001600160a01b039092169163dee30c97916118b59160019190600401612f98565b600060405180830381600087803b1580156118cf57600080fd5b505af11580156118e3573d6000803e3d6000fd5b5050600180546001600160a01b0319168155600060028190559092509050818161190e60038261212d565b61191c60038301600061212d565b60048201600090556005820160009055600682016000905560078201600090556008820160009055600982016000611954919061212d565b611962600a8301600061212d565b505050600b810180546001600160a01b03191690556000600c90910155565b6112268383836040516024016119999392919061306d565b60408051601f198184030181529190526020810180516001600160e01b03166307e763af60e51b179052611ec5565b60007f000000000000000000000000000000000000000000000000000000000000000083604051602001611a0f9291909182526001600160a01b0316602082015260400190565b60405160208183030381529060405280519060200120905081611a2f8290565b80546001600160a01b0319166001600160a01b0392909216919091179055505050565b7f00000000000000000000000000000000000000000000000000000000000000008054906000611a818361295f565b9190505550565b7f00000000000000000000000000000000000000000000000000000000000000008054906000611a81836130a0565b6040516024810184905260448101839052606481018290526000906001600160a01b037f0000000000000000000000000000000000000000000000000000000000000000169060840160408051601f198184030181529181526020820180516001600160e01b0316633082ab5b60e01b17905251611b359190612b2b565b6000604051808303816000865af19150503d8060008114611b72576040519150601f19603f3d011682016040523d82523d6000602084013e611b77565b606091505b5050905080610f785760405162461bcd60e51b815260206004820152602860248201527f426f6f7473747261703a206661696c656420746f207265676973746572207075604482015267626c6963206b657960c01b6064820152608401610856565b611c237f00000000000000000000000000000000000000000000000000000000000000007f00000000000000000000000000000000000000000000000000000000000000006119c8565b611c6d7f00000000000000000000000000000000000000000000000000000000000000007f00000000000000000000000000000000000000000000000000000000000000006119c8565b6114ce611a52565b6000808251604103611cab5760208301516040840151606085015160001a611c9f87828585611ee6565b94509450505050611cb3565b506000905060025b9250929050565b6000816004811115611cce57611cce6130b7565b03611cd65750565b6001816004811115611cea57611cea6130b7565b03611d375760405162461bcd60e51b815260206004820152601860248201527f45434453413a20696e76616c6964207369676e617475726500000000000000006044820152606401610856565b6002816004811115611d4b57611d4b6130b7565b03611d985760405162461bcd60e51b815260206004820152601f60248201527f45434453413a20696e76616c6964207369676e6174757265206c656e677468006044820152606401610856565b6003816004811115611dac57611dac6130b7565b036108f35760405162461bcd60e51b815260206004820152602260248201527f45434453413a20696e76616c6964207369676e6174757265202773272076616c604482015261756560f01b6064820152608401610856565b6001600160a01b0381163b611e715760405162461bcd60e51b815260206004820152602d60248201527f455243313936373a206e657720696d706c656d656e746174696f6e206973206e60448201526c1bdd08184818dbdb9d1c9858dd609a1b6064820152608401610856565b6000805160206130e183398151915280546001600160a01b0319166001600160a01b0392909216919091179055565b611ea983611faa565b600082511180611eb65750805b1561122657610f788383611fea565b80516a636f6e736f6c652e6c6f67602083016000808483855afa5050505050565b6000807f7fffffffffffffffffffffffffffffff5d576e7357a4501ddfe92f46681b20a0831115611f1d5750600090506003611fa1565b6040805160008082526020820180845289905260ff881692820192909252606081018690526080810185905260019060a0016020604051602081039080840390855afa158015611f71573d6000803e3d6000fd5b5050604051601f1901519150506001600160a01b038116611f9a57600060019250925050611fa1565b9150600090505b94509492505050565b611fb381611e04565b6040516001600160a01b038216907fbc7cd75a20ee27fd9adebab32041f755214dbc6bffa90cc0225b39da2e5c2d3b90600090a250565b60606109158383604051806060016040528060278152602001613101602791396060600080856001600160a01b0316856040516120279190612b2b565b600060405180830381855af49150503d8060008114612062576040519150601f19603f3d011682016040523d82523d6000602084013e612067565b606091505b509150915061207886838387612082565b9695505050505050565b606083156120f15782516000036120ea576001600160a01b0385163b6120ea5760405162461bcd60e51b815260206004820152601d60248201527f416464726573733a2063616c6c20746f206e6f6e2d636f6e74726163740000006044820152606401610856565b50816120fb565b6120fb8383612103565b949350505050565b8151156121135781518083602001fd5b8060405162461bcd60e51b815260040161085691906130cd565b50805461213990612c55565b6000825580601f10612149575050565b601f0160209004906000526020600020908101906108f391905b808211156121775760008155600101612163565b5090565b6001600160a01b03811681146108f357600080fd5b803561219b8161217b565b919050565b60008083601f8401126121b257600080fd5b5081356001600160401b038111156121c957600080fd5b602083019150836020828501011115611cb357600080fd5b60008060008060008060008060c0898b0312156121fd57600080fd5b88356122088161217b565b975060208901356122188161217b565b965060408901356122288161217b565b95506060890135945060808901356001600160401b038082111561224b57600080fd5b6122578c838d016121a0565b909650945060a08b013591508082111561227057600080fd5b5061227d8b828c016121a0565b999c989b5096995094979396929594505050565b6001600160e01b0319811681146108f357600080fd5b6000602082840312156122b957600080fd5b813561091581612291565b6000806000806000608086880312156122dc57600080fd5b85356122e78161217b565b945060208601356122f78161217b565b93506040860135925060608601356001600160401b0381111561231957600080fd5b612325888289016121a0565b969995985093965092949392505050565b60008060006040848603121561234b57600080fd5b8335925060208401356001600160401b0381111561236857600080fd5b612374868287016121a0565b9497909650939450505050565b6020808252825182820181905260009190848201906040850190845b818110156123c25783516001600160a01b03168352928401929184019160010161239d565b50909695505050505050565b6000602082840312156123e057600080fd5b81356109158161217b565b60008060006060848603121561240057600080fd5b83356001600160401b0381111561241657600080fd5b8401610160818703121561242957600080fd5b95602085013595506040909401359392505050565b60008083601f84011261245057600080fd5b5081356001600160401b0381111561246757600080fd5b6020830191508360208260051b8501011115611cb357600080fd5b6000806000806000806060878903121561249b57600080fd5b86356001600160401b03808211156124b257600080fd5b6124be8a838b0161243e565b909850965060208901359150808211156124d757600080fd5b6124e38a838b0161243e565b909650945060408901359150808211156124fc57600080fd5b5061250989828a0161243e565b979a9699509497509295939492505050565b634e487b7160e01b600052604160045260246000fd5b60405161016081016001600160401b03811182821017156125545761255461251b565b60405290565b604051601f8201601f191681016001600160401b03811182821017156125825761258261251b565b604052919050565b60006001600160401b038211156125a3576125a361251b565b50601f01601f191660200190565b600082601f8301126125c257600080fd5b81356125d56125d08261258a565b61255a565b8181528460208386010111156125ea57600080fd5b816020850160208301376000918101602001919091529392505050565b6000806040838503121561261a57600080fd5b82356126258161217b565b915060208301356001600160401b0381111561264057600080fd5b61264c858286016125b1565b9150509250929050565b6000806040838503121561266957600080fd5b82356126748161217b565b915060208301356126848161217b565b809150509250929050565b600080600080606085870312156126a557600080fd5b84356126b08161217b565b93506020850135925060408501356001600160401b038111156126d257600080fd5b6126de878288016121a0565b95989497509550505050565b60008060008060008060008060a0898b03121561270657600080fd5b88356127118161217b565b975060208901356127218161217b565b965060408901356001600160401b038082111561273d57600080fd5b6127498c838d0161243e565b909850965060608b013591508082111561276257600080fd5b61276e8c838d0161243e565b909650945060808b013591508082111561227057600080fd5b60006020828403121561279957600080fd5b81356001600160401b038111156127af57600080fd5b6120fb848285016125b1565b60008060008060008060a087890312156127d457600080fd5b86356127df8161217b565b955060208701356127ef8161217b565b9450604087013593506060870135925060808701356001600160401b0381111561281857600080fd5b61250989828a016121a0565b60008060006060848603121561283957600080fd5b505081359360208301359350604090920135919050565b6000808585111561286057600080fd5b8386111561286d57600080fd5b5050820193919092039150565b6bffffffffffffffffffffffff1981358181169160148510156117635760149490940360031b84901b1690921692915050565b60005b838110156128c85781810151838201526020016128b0565b50506000910152565b600081518084526128e98160208601602086016128ad565b601f01601f19169290920160200192915050565b8281526040602082015260006120fb60408301846128d1565b60006020828403121561292857600080fd5b815161091581612291565b634e487b7160e01b600052603260045260246000fd5b634e487b7160e01b600052601160045260246000fd5b60006001820161297157612971612949565b5060010190565b6020808252602c908201527f46756e6374696f6e206d7573742062652063616c6c6564207468726f7567682060408201526b19195b1959d85d1958d85b1b60a21b606082015260800190565b6020808252602c908201527f46756e6374696f6e206d7573742062652063616c6c6564207468726f7567682060408201526b6163746976652070726f787960a01b606082015260800190565b6020808252601690820152752bb0b63632ba1d1024b73b30b634b21021b0b63632b960511b604082015260600190565b6000808335601e19843603018112612a5757600080fd5b8301803591506001600160401b03821115612a7157600080fd5b602001915036819003821315611cb357600080fd5b600060208284031215612a9857600080fd5b5051919050565b60008060408385031215612ab257600080fd5b8251612abd8161217b565b60208401519092506001600160401b03811115612ad957600080fd5b8301601f81018513612aea57600080fd5b8051612af86125d08261258a565b818152866020838501011115612b0d57600080fd5b612b1e8260208301602086016128ad565b8093505050509250929050565b60008251612b3d8184602087016128ad565b9190910192915050565b60006101608236031215612b5a57600080fd5b612b62612531565b612b6b83612190565b81526020830135602082015260408301356001600160401b0380821115612b9157600080fd5b612b9d368387016125b1565b60408401526060850135915080821115612bb657600080fd5b612bc2368387016125b1565b60608401526080850135608084015260a085013560a084015260c085013560c084015260e085013560e08401526101009150818501358284015261012091508185013581811115612c1257600080fd5b612c1e368288016125b1565b838501525061014091508185013581811115612c3957600080fd5b612c45368288016125b1565b8385015250505080915050919050565b600181811c90821680612c6957607f821691505b602082108103612c8957634e487b7160e01b600052602260045260246000fd5b50919050565b601f82111561122657600081815260208120601f850160051c81016020861015612cb65750805b601f850160051c820191505b81811015610a7557828155600101612cc2565b81516001600160401b03811115612cee57612cee61251b565b612d0281612cfc8454612c55565b84612c8f565b602080601f831160018114612d375760008415612d1f5750858301515b600019600386901b1c1916600185901b178555610a75565b600085815260208120601f198616915b82811015612d6657888601518255948401946001909101908401612d47565b5085821015612d845787850151600019600388901b60f8161c191681555b5050505050600190811b01905550565b6000808335601e19843603018112612dab57600080fd5b83016020810192503590506001600160401b03811115612dca57600080fd5b803603821315611cb357600080fd5b81835281816020850137506000828201602090810191909152601f909101601f19169091010190565b60408152612e2360408201612e1685612190565b6001600160a01b03169052565b602083013560608201526000612e3c6040850185612d94565b610160806080860152612e546101a086018385612dd9565b9250612e636060880188612d94565b9250603f19808786030160a0880152612e7d858584612dd9565b9450608089013560c088015260a089013560e0880152610100935060c089013584880152610120915060e089013582880152610140848a013581890152612ec6838b018b612d94565b95509250818887030184890152612ede868685612dd9565b9550612eec818b018b612d94565b955093505080878603016101808801525050612f09838383612dd9565b93505050508260208301529392505050565b60008154612f2881612c55565b808552602060018381168015612f455760018114612f5f57612f8d565b60ff1985168884015283151560051b880183019550612f8d565b866000528260002060005b85811015612f855781548a8201860152908301908401612f6a565b890184019650505b505050505092915050565b60408152612fb460408201612e1685546001600160a01b031690565b600183015460608201526000610160806080840152612fda6101a0840160028701612f1b565b603f19808583030160a0860152612ff48260038901612f1b565b9150600487015460c0860152600587015460e08601526006870154610100860152600787015461012086015260088701546101408601528085830301838601526130418260098901612f1b565b92508085840301610180860152505061305d81600a8701612f1b565b9150508260208301529392505050565b60608152600061308060608301866128d1565b6001600160a01b0394851660208401529290931660409091015292915050565b6000816130af576130af612949565b506000190190565b634e487b7160e01b600052602160045260246000fd5b60208152600061091560208301846128d156fe360894a13ba1a3210667c828492db98dca3e2076cc3735a920a3ca505d382bbc416464726573733a206c6f772d6c6576656c2064656c65676174652063616c6c206661696c6564a2646970667358221220da79263a253ab9070543545bc01cb1252974f3e56b85eadc66a45e93e5271ca864736f6c63430008130033",
    "linkReferences": {}
  },
  "methodIdentifiers": {
    "KEY_COUNT_SLOT()": "abf0c727",
    "KEY_MANAGE_PREFIX_SLOT()": "f7483860",
    "SENTINEL_ADDRESS()": "fae010f6",
    "__Wallet_init(bytes)": "da1be40b",
    "addKey(address)": "5f7b68be",
    "entryPoint()": "b0d691fe",
    "execute(address,uint256,bytes)": "b61d27f6",
    "executeBatch(address[],uint256[],bytes[])": "47e1da2a",
    "getKeys()": "2150c518",
    "getNonce()": "d087d288",
    "getTotalKey()": "c5afe5e0",
    "init(bytes32,uint256,uint256)": "f32199bb",
    "isValidKey(address)": "5cf00ee4",
    "isValidSignature(bytes32,bytes)": "1626ba7e",
    "onERC1155BatchReceived(address,address,uint256[],uint256[],bytes)": "bc197c81",
    "onERC1155Received(address,address,uint256,uint256,bytes)": "f23a6e61",
    "onERC721Received(address,address,uint256,bytes)": "150b7a02",
    "passKeyModule()": "8c9682d8",
    "proxiableUUID()": "52d1902d",
    "removeKey(address,address)": "8ab3e33f",
    "supportsInterface(bytes4)": "01ffc9a7",
    "tokensReceived(address,address,address,uint256,bytes,bytes)": "0023de29",
    "upgradeTo(address)": "3659cfe6",
    "upgradeToAndCall(address,bytes)": "4f1ef286",
    "validateUserOp((address,uint256,bytes,bytes,uint256,uint256,uint256,uint256,uint256,bytes,bytes),bytes32,uint256)": "3a871cdd"
  },
  "id": 61
}