{
  "abi": [
    {
      "inputs": [
        {
          "internalType": "address",
          "name": "entryPoint",
          "type": "address"
        }
      ],
      "stateMutability": "nonpayable",
      "type": "constructor"
    },
    {
      "inputs": [
        {
          "internalType": "uint256",
          "name": "x",
          "type": "uint256"
        },
        {
          "internalType": "uint256",
          "name": "y",
          "type": "uint256"
        },
        {
          "internalType": "bytes32",
          "name": "salt",
          "type": "bytes32"
        }
      ],
      "name": "createPasskey",
      "outputs": [
        {
          "internalType": "contract PasskeyModule",
          "name": "",
          "type": "address"
        }
      ],
      "stateMutability": "nonpayable",
      "type": "function"
    },
    {
      "inputs": [
        {
          "internalType": "address",
          "name": "initKey",
          "type": "address"
        },
        {
          "internalType": "bytes32",
          "name": "salt",
          "type": "bytes32"
        }
      ],
      "name": "createWallet",
      "outputs": [
        {
          "internalType": "contract Wallet",
          "name": "",
          "type": "address"
        }
      ],
      "stateMutability": "nonpayable",
      "type": "function"
    },
    {
      "inputs": [
        {
          "internalType": "uint256",
          "name": "x",
          "type": "uint256"
        },
        {
          "internalType": "uint256",
          "name": "y",
          "type": "uint256"
        },
        {
          "internalType": "bytes32",
          "name": "salt",
          "type": "bytes32"
        }
      ],
      "name": "createWalletWithPasskey",
      "outputs": [
        {
          "internalType": "contract Wallet",
          "name": "",
          "type": "address"
        }
      ],
      "stateMutability": "nonpayable",
      "type": "function"
    },
    {
      "inputs": [
        {
          "internalType": "bytes32",
          "name": "salt",
          "type": "bytes32"
        }
      ],
      "name": "getPasskeyAddress",
      "outputs": [
        {
          "internalType": "address",
          "name": "",
          "type": "address"
        }
      ],
      "stateMutability": "view",
      "type": "function"
    },
    {
      "inputs": [
        {
          "internalType": "bytes32",
          "name": "salt",
          "type": "bytes32"
        }
      ],
      "name": "getWalletAddress",
      "outputs": [
        {
          "internalType": "address payable",
          "name": "",
          "type": "address"
        }
      ],
      "stateMutability": "view",
      "type": "function"
    },
    {
      "inputs": [
        {
          "internalType": "bytes[]",
          "name": "data",
          "type": "bytes[]"
        }
      ],
      "name": "multicall",
      "outputs": [
        {
          "internalType": "bytes[]",
          "name": "results",
          "type": "bytes[]"
        }
      ],
      "stateMutability": "nonpayable",
      "type": "function"
    },
    {
      "inputs": [],
      "name": "walletImplement",
      "outputs": [
        {
          "internalType": "contract Wallet",
          "name": "",
          "type": "address"
        }
      ],
      "stateMutability": "view",
      "type": "function"
    }
  ],
  "bytecode": {
    "object": "0x60a060405234801561001057600080fd5b5060405161583a38038061583a83398101604081905261002f91610088565b8060405161003c9061007b565b6001600160a01b039091168152602001604051809103906000f080158015610068573d6000803e3d6000fd5b506001600160a01b0316608052506100b8565b612e99806129a183390190565b60006020828403121561009a57600080fd5b81516001600160a01b03811681146100b157600080fd5b9392505050565b6080516128c86100d96000396000818160f0015261048101526128c86000f3fe608060405234801561001057600080fd5b506004361061007d5760003560e01c806380d1bfde1161005b57806380d1bfde146100d857806397a654bd146100eb578063ac9650d814610112578063b20ca8181461013257600080fd5b8063206d54db146100825780634842b06f146100b257806357e1eb9a146100c5575b600080fd5b61009561009036600461056e565b610145565b6040516001600160a01b0390911681526020015b60405180910390f35b6100956100c0366004610587565b610181565b6100956100d336600461056e565b610198565b6100956100e6366004610587565b6101ae565b6100957f000000000000000000000000000000000000000000000000000000000000000081565b6101256101203660046105b3565b6101d1565b6040516100a9919061066e565b6100956101403660046106d0565b61032c565b600061017b826040518060200161015b90610554565b6020820181038252601f19601f8201166040525080519060200120610338565b92915050565b600061018e848484610345565b90505b9392505050565b600061017b826040518060200161015b90610561565b6000806101bc858585610345565b90506101c88184610408565b95945050505050565b60608167ffffffffffffffff8111156101ec576101ec610708565b60405190808252806020026020018201604052801561021f57816020015b606081526020019060019003908161020a5790505b50905060005b8281101561032557600080308686858181106102435761024361071e565b90506020028101906102559190610734565b604051610263929190610782565b600060405180830381855af49150503d806000811461029e576040519150601f19603f3d011682016040523d82523d6000602084013e6102a3565b606091505b5091509150816102f25760405162461bcd60e51b8152602060048201526016602482015275135d5b1d1a58d85b1b0e8818d85b1b0819985a5b195960521b604482015260640160405180910390fd5b808484815181106103055761030561071e565b60200260200101819052505050808061031d90610792565b915050610225565b5092915050565b60006101918383610408565b600061019183833061052a565b60008061035183610198565b90506001600160a01b0381163b1561036a579050610191565b60008360405161037990610561565b8190604051809103906000f5905080158015610399573d6000803e3d6000fd5b50604051637251808b60e11b815260048101889052602481018790529091506001600160a01b0382169063e4a3011690604401600060405180830381600087803b1580156103e657600080fd5b505af11580156103fa573d6000803e3d6000fd5b509298975050505050505050565b60008061041483610145565b90506001600160a01b0381163b801561042f5750905061017b565b60008460405161043e90610554565b8190604051809103906000f590508015801561045e573d6000803e3d6000fd5b506040516001600160a01b0388811660248301529192509082169063d1f57894907f00000000000000000000000000000000000000000000000000000000000000009060440160408051601f198184030181529181526020820180516001600160e01b031663124ffc0160e21b1790525160e084901b6001600160e01b03191681526104ee9291906004016107b9565b600060405180830381600087803b15801561050857600080fd5b505af115801561051c573d6000803e3d6000fd5b509498975050505050505050565b6000604051836040820152846020820152828152600b8101905060ff815360559020949350505050565b6105cd806107de83390190565b611ae880610dab83390190565b60006020828403121561058057600080fd5b5035919050565b60008060006060848603121561059c57600080fd5b505081359360208301359350604090920135919050565b600080602083850312156105c657600080fd5b823567ffffffffffffffff808211156105de57600080fd5b818501915085601f8301126105f257600080fd5b81358181111561060157600080fd5b8660208260051b850101111561061657600080fd5b60209290920196919550909350505050565b6000815180845260005b8181101561064e57602081850181015186830182015201610632565b506000602082860101526020601f19601f83011685010191505092915050565b6000602080830181845280855180835260408601915060408160051b870101925083870160005b828110156106c357603f198886030184526106b1858351610628565b94509285019290850190600101610695565b5092979650505050505050565b600080604083850312156106e357600080fd5b82356001600160a01b03811681146106fa57600080fd5b946020939093013593505050565b634e487b7160e01b600052604160045260246000fd5b634e487b7160e01b600052603260045260246000fd5b6000808335601e1984360301811261074b57600080fd5b83018035915067ffffffffffffffff82111561076657600080fd5b60200191503681900382131561077b57600080fd5b9250929050565b8183823760009101908152919050565b6000600182016107b257634e487b7160e01b600052601160045260246000fd5b5060010190565b6001600160a01b038316815260406020820181905260009061018e9083018461062856fe608060405234801561001057600080fd5b506105ad806100206000396000f3fe6080604052600436106100225760003560e01c8063d1f578941461003957610031565b366100315761002f610059565b005b61002f610059565b34801561004557600080fd5b5061002f61005436600461040d565b61006b565b610069610064610133565b61016b565b565b6000610075610133565b90506001600160a01b038116156100d35760405162461bcd60e51b815260206004820152601c60248201527f455243313936373a20616c726561647920696e697469616c697a65640000000060448201526064015b60405180910390fd5b6001600160a01b0383166101225760405162461bcd60e51b8152602060048201526016602482015275455243313936373a206c6f676963206973207a65726f60501b60448201526064016100ca565b61012e8383600061018f565b505050565b60006101667f360894a13ba1a3210667c828492db98dca3e2076cc3735a920a3ca505d382bbc546001600160a01b031690565b905090565b3660008037600080366000845af43d6000803e80801561018a573d6000f35b3d6000fd5b610198836101ba565b6000825111806101a55750805b1561012e576101b483836101fa565b50505050565b6101c381610226565b6040516001600160a01b038216907fbc7cd75a20ee27fd9adebab32041f755214dbc6bffa90cc0225b39da2e5c2d3b90600090a250565b606061021f8383604051806060016040528060278152602001610551602791396102d4565b9392505050565b6001600160a01b0381163b6102935760405162461bcd60e51b815260206004820152602d60248201527f455243313936373a206e657720696d706c656d656e746174696f6e206973206e60448201526c1bdd08184818dbdb9d1c9858dd609a1b60648201526084016100ca565b7f360894a13ba1a3210667c828492db98dca3e2076cc3735a920a3ca505d382bbc80546001600160a01b0319166001600160a01b0392909216919091179055565b6060600080856001600160a01b0316856040516102f19190610501565b600060405180830381855af49150503d806000811461032c576040519150601f19603f3d011682016040523d82523d6000602084013e610331565b606091505b50915091506103428683838761034c565b9695505050505050565b606083156103bb5782516000036103b4576001600160a01b0385163b6103b45760405162461bcd60e51b815260206004820152601d60248201527f416464726573733a2063616c6c20746f206e6f6e2d636f6e747261637400000060448201526064016100ca565b50816103c5565b6103c583836103cd565b949350505050565b8151156103dd5781518083602001fd5b8060405162461bcd60e51b81526004016100ca919061051d565b634e487b7160e01b600052604160045260246000fd5b6000806040838503121561042057600080fd5b82356001600160a01b038116811461043757600080fd5b9150602083013567ffffffffffffffff8082111561045457600080fd5b818501915085601f83011261046857600080fd5b81358181111561047a5761047a6103f7565b604051601f8201601f19908116603f011681019083821181831017156104a2576104a26103f7565b816040528281528860208487010111156104bb57600080fd5b8260208601602083013760006020848301015280955050505050509250929050565b60005b838110156104f85781810151838201526020016104e0565b50506000910152565b600082516105138184602087016104dd565b9190910192915050565b602081526000825180602084015261053c8160408501602087016104dd565b601f01601f1916919091016040019291505056fe416464726573733a206c6f772d6c6576656c2064656c65676174652063616c6c206661696c6564a264697066735822122000c4ff7704734dd628a34190ef6bba1cf455f5f426f67434c9763a53b3b708f164736f6c63430008130033608060405234801561001057600080fd5b50611ac8806100206000396000f3fe608060405234801561001057600080fd5b50600436106100625760003560e01c80630c55699c146100675780631626ba7e14610083578063a56dfe4a146100af578063dee30c97146100b8578063e4a30116146100cc578063fff35b72146100df575b600080fd5b61007060005481565b6040519081526020015b60405180910390f35b610096610091366004611663565b6100f2565b6040516001600160e01b0319909116815260200161007a565b61007060015481565b6100ca6100c63660046116ed565b5050565b005b6100ca6100da366004611738565b6101b4565b6100706100ed3660046116ed565b610216565b60008060008060008060008780602001905181019061011191906117ae565b95509550955095509550955060006040518060c001604052808881526020018781526020018681526020018581526020018481526020018381525090506101818a60405160200161016491815260200190565b604051602081830303815290604052600083600054600154610313565b1561019d5750630b135d3f60e11b96506101ae95505050505050565b50600096506101ae95505050505050565b92915050565b6000541580156101c45750600154155b61020b5760405162461bcd60e51b8152602060048201526013602482015272185b1c9958591e481a5b9a5d1a585b1a5e9959606a1b60448201526064015b60405180910390fd5b600091909155600155565b600080610227610140850185611862565b610236916014916000916118b0565b61023f916118da565b60601c90503081146102845760405162461bcd60e51b815260206004820152600e60248201526d696e76616c6964206d6f64756c6560901b6044820152606401610202565b6000610294610140860186611862565b6102a29160149082906118b0565b8080601f0160208091040260200160405190810160405280939291908181526020018383808284376000920191909152509293506102e692508691508390506100f2565b6001600160e01b031916630b135d3f60e11b03610308576000925050506101ae565b506001949350505050565b600061032e6002600080516020611a33833981519152611925565b8460a0015111156103415750600061066f565b606084015160009061036490610358816015611947565b60208801519190610678565b90507fff1a2a9176d650e4a99dedb58f1793003935130579fe17b5a3f698ac5b00e63481805190602001201461039e57600091505061066f565b60006103a9886106df565b6040516020016103b9919061195a565b604051602081830303815290604052905060006103f18760400151835189604001516103e59190611947565b60208a01519190610678565b90508180519060200120818051906020012014610414576000935050505061066f565b86518051600160f81b91829160209081106104315761043161199b565b0160200151166001600160f81b03191614610452576000935050505061066f565b87801561048a575086518051600160fa1b91829160209081106104775761047761199b565b0160200151166001600160f81b03191614155b1561049b576000935050505061066f565b6000600288602001516040516104b191906119b1565b602060405180830381855afa1580156104ce573d6000803e3d6000fd5b5050506040513d601f19601f820116820180604052508101906104f191906119cd565b90506000600289600001518360405160200161050e9291906119e6565b60408051601f1981840301815290829052610528916119b1565b602060405180830381855afa158015610545573d6000803e3d6000fd5b5050506040513d601f19601f8201168201806040525081019061056891906119cd565b6080808b015160a0808d015160408051602081018790529081019390935260608301529181018b905290810189905290915060009060c00160405160208183030381529060405290506000806101006001600160a01b0316836040516105ce91906119b1565b600060405180830381855afa9150503d8060008114610609576040519150601f19603f3d011682016040523d82523d6000602084013e61060e565b606091505b508051919350915015158280156106225750805b1561064e578180602001905181019061063b91906119cd565b600114995050505050505050505061066f565b610663858e608001518f60a001518f8f610705565b99505050505050505050505b95945050505050565b60608351828111610687578092505b838111610692578093505b50818310156106d8575060405182820380825293830193601f19601f820181165b86810151848201528101806106b35750600083830160200152603f9091011681016040525b9392505050565b60606101ae82604051806060016040528060408152602001611a536040913960006107e8565b60008415806107225750600080516020611a338339815191528510155b8061072b575083155b806107445750600080516020611a338339815191528410155b156107515750600061066f565b61075b8383610968565b6107675750600061066f565b600061077285610a63565b90506000600080516020611a3383398151915282890990506000600080516020611a33833981519152838909905060006107ae87878585610ad5565b9050600080516020611a338339815191526107d78a600080516020611a33833981519152611a08565b8208159a9950505050505050505050565b6060835160000361080857506040805160208101909152600081526106d8565b6000826108395760038551600461081f9190611a1b565b61082a906002611947565b6108349190611925565b61085e565b6003855160026108499190611947565b6108539190611925565b61085e906004611a1b565b905060008167ffffffffffffffff81111561087b5761087b6115f4565b6040519080825280601f01601f1916602001820160405280156108a5576020820181803683370190505b50905060018501602082018788518901602081018051600082525b8284101561091b576003840193508351603f8160121c168701518653600186019550603f81600c1c168701518653600186019550603f8160061c168701518653600186019550603f81168701518653506001850194506108c0565b90525050851561095c5760038851066001811461093f57600281146109525761095a565b603d6001830353603d600283035361095a565b603d60018303535b505b50909695505050505050565b6000600160601b63ffffffff60c01b0319831015806109955750600160601b63ffffffff60c01b03198210155b806109a75750821580156109a7575081155b156109b4575060006101ae565b6000600160601b63ffffffff60c01b031983840990506000600160601b63ffffffff60c01b0319807fffffffff00000001000000000000000000000000fffffffffffffffffffffffc8709600160601b63ffffffff60c01b031987600160601b63ffffffff60c01b0319898a0909089050600160601b63ffffffff60c01b03197f5ac635d8aa3a93e7b3ebbd55769886bc651d06b0cc53b0f63bce3c3e27d2604b820891909114949350505050565b600060405160208152602080820152602060408201528260608201527fffffffff00000000ffffffffffffffffbce6faada7179e84f3b9cac2fc63254f6080820152600080516020611a3383398151915260a082015260208160c0836005600019fa610ace57600080fd5b5192915050565b600080808060ff818088158015610aea575087155b15610afe57600096505050505050506111b6565b610b4a7f6b17d1f2e12c4247f8bce6e563a440f277037d812deb33a0f4a13945d898c2967f4fe342e2fe1a7f9b8ee7eb4a7c0f9e162bce33576b315ececbb6406837bf51f58d8d6111be565b909250905081158015610b5b575080155b15610ba857600080516020611a3383398151915288600080516020611a33833981519152038a0898506000975088158015610b94575087155b15610ba857600096505050505050506111b6565b600189841c16600189851c1660011b015b80610bdb5760018403935060018a851c1660018a861c1660011b019050610bb9565b50600189841c16600189851c1660011b01955060018603610c3d577f6b17d1f2e12c4247f8bce6e563a440f277037d812deb33a0f4a13945d898c29696507f4fe342e2fe1a7f9b8ee7eb4a7c0f9e162bce33576b315ececbb6406837bf51f593505b60028603610c4c578a96508993505b60038603610c5b578196508093505b60018303925060019550600194505b82600019111561113f57600160601b63ffffffff60c01b031984600209600160601b63ffffffff60c01b0319818209600160601b63ffffffff60c01b0319818a09600160601b63ffffffff60c01b03198284099250600160601b63ffffffff60c01b031980600160601b63ffffffff60c01b03198b8d08600160601b63ffffffff60c01b03198c600160601b63ffffffff60c01b0319038e0809600309600160601b63ffffffff60c01b03198985099850600160601b63ffffffff60c01b03198a84099950600160601b63ffffffff60c01b031980836002600160601b0363ffffffff60c01b031909600160601b63ffffffff60c01b0319838409089a50600160601b63ffffffff60c01b03198083600160601b63ffffffff60c01b0319038d0882099250600160601b63ffffffff60c01b031983600160601b63ffffffff60c01b03198a870908975060018d881c1660018d891c1660011b01905080610de75787600160601b63ffffffff60c01b031903975050505050611134565b60018103610e36577f6b17d1f2e12c4247f8bce6e563a440f277037d812deb33a0f4a13945d898c29693507f4fe342e2fe1a7f9b8ee7eb4a7c0f9e162bce33576b315ececbb6406837bf51f592505b60028103610e45578e93508d92505b60038103610e54578593508492505b89610e6d57509198506001975087965094506111349050565b600160601b63ffffffff60c01b031988600160601b63ffffffff60c01b03198b860908600160601b63ffffffff60c01b03198c600160601b63ffffffff60c01b031903600160601b63ffffffff60c01b03198d880908935080611026578361102657600160601b63ffffffff60c01b0319896002600160601b0363ffffffff60c01b0319099450600160601b63ffffffff60c01b03198586099350600160601b63ffffffff60c01b0319848d099250600160601b63ffffffff60c01b03198486099450600160601b63ffffffff60c01b0319808c600160601b63ffffffff60c01b0319038e08600160601b63ffffffff60c01b03198d8f08099050600160601b63ffffffff60c01b0319816003099150600160601b63ffffffff60c01b03198a86099950600160601b63ffffffff60c01b03198b85099a50600160601b63ffffffff60c01b031980846002600160601b0363ffffffff60c01b031909600160601b63ffffffff60c01b0319848509089b50600160601b63ffffffff60c01b0319808d600160601b63ffffffff60c01b031903850883099350600160601b63ffffffff60c01b0319808a8709850898505050505050611134565b600160601b63ffffffff60c01b03198485099150600160601b63ffffffff60c01b0319848309600160601b63ffffffff60c01b0319838d099b50600160601b63ffffffff60c01b0319818c099a50600160601b63ffffffff60c01b0319838e09600160601b63ffffffff60c01b031980826002600160601b0363ffffffff60c01b031909600160601b63ffffffff60c01b031984600160601b63ffffffff60c01b031903600160601b63ffffffff60c01b031987880908089350600160601b63ffffffff60c01b031980838d09600160601b63ffffffff60c01b031985600160601b63ffffffff60c01b031988600160601b63ffffffff60c01b031903860809089a50505050809a50505050505b600183039250610c6a565b60405186606082015260208152602080820152602060408201526002600160601b0363ffffffff60c01b03196080820152600160601b63ffffffff60c01b031960a082015260208160c0836005600019fa61119957600080fd5b600160601b63ffffffff60c01b0319815189099750505050505050505b949350505050565b6000808080866111d5578585935093505050611243565b846111e7578787935093505050611243565b85881480156111f557508487145b1561121657611207888860018061124c565b929a5090985092509050611230565b61122588886001808a8a6113a7565b929a50909850925090505b61123c8888848461152b565b9350935050505b94509492505050565b600080600080600160601b63ffffffff60c01b0319876002099350600160601b63ffffffff60c01b03198485099150600160601b63ffffffff60c01b03198289099050600160601b63ffffffff60c01b03198285099250600160601b63ffffffff60c01b03198683099150600160601b63ffffffff60c01b031980600160601b63ffffffff60c01b0319888b08600160601b63ffffffff60c01b031989600160601b63ffffffff60c01b0319038c08096003099550600160601b63ffffffff60c01b031980826002600160601b0363ffffffff60c01b031909600160601b63ffffffff60c01b0319888909089350600160601b63ffffffff60c01b03198085600160601b63ffffffff60c01b031903830887099750600160601b63ffffffff60c01b03198584099050600160601b63ffffffff60c01b031980888509600160601b63ffffffff60c01b03190389089250945094509450949050565b600080600080886000036113c65750849250839150600190508061151e565b600160601b63ffffffff60c01b0319988903988981898809089450600160601b63ffffffff60c01b03198a600160601b63ffffffff60c01b031903600160601b63ffffffff60c01b03198a8909089550600160601b63ffffffff60c01b03198687099350600160601b63ffffffff60c01b03198685099250600160601b63ffffffff60c01b03198489099150600160601b63ffffffff60c01b03198388099050600160601b63ffffffff60c01b0319848b099750600160601b63ffffffff60c01b031980896002600160601b0363ffffffff60c01b031909600160601b63ffffffff60c01b031985600160601b63ffffffff60c01b031903600160601b63ffffffff60c01b0319898a0908089350600160601b63ffffffff60c01b031980848b09600160601b63ffffffff60c01b031987600160601b63ffffffff60c01b031988600160601b63ffffffff60c01b0319038d08090892505b9650965096509692505050565b600080600061153984611598565b9050600160601b63ffffffff60c01b031981870991506000600160601b63ffffffff60c01b03198287099050600160601b63ffffffff60c01b03198182099150600160601b63ffffffff60c01b03198289099350505094509492505050565b600060405160208152602080820152602060408201528260608201526002600160601b0363ffffffff60c01b03196080820152600160601b63ffffffff60c01b031960a082015260208160c0836005600019fa610ace57600080fd5b634e487b7160e01b600052604160045260246000fd5b604051601f8201601f1916810167ffffffffffffffff81118282101715611633576116336115f4565b604052919050565b600067ffffffffffffffff821115611655576116556115f4565b50601f01601f191660200190565b6000806040838503121561167657600080fd5b82359150602083013567ffffffffffffffff81111561169457600080fd5b8301601f810185136116a557600080fd5b80356116b86116b38261163b565b61160a565b8181528660208385010111156116cd57600080fd5b816020840160208301376000602083830101528093505050509250929050565b6000806040838503121561170057600080fd5b823567ffffffffffffffff81111561171757600080fd5b8301610160818603121561172a57600080fd5b946020939093013593505050565b6000806040838503121561174b57600080fd5b50508035926020909101359150565b60005b8381101561177557818101518382015260200161175d565b50506000910152565b600061178c6116b38461163b565b90508281528383830111156117a057600080fd5b6106d883602083018461175a565b60008060008060008060c087890312156117c757600080fd5b865167ffffffffffffffff808211156117df57600080fd5b818901915089601f8301126117f357600080fd5b6118028a83516020850161177e565b9750602089015191508082111561181857600080fd5b508701601f8101891361182a57600080fd5b6118398982516020840161177e565b95505060408701519350606087015192506080870151915060a087015190509295509295509295565b6000808335601e1984360301811261187957600080fd5b83018035915067ffffffffffffffff82111561189457600080fd5b6020019150368190038213156118a957600080fd5b9250929050565b600080858511156118c057600080fd5b838611156118cd57600080fd5b5050820193919092039150565b6bffffffffffffffffffffffff1981358181169160148510156119075780818660140360031b1b83161692505b505092915050565b634e487b7160e01b600052601160045260246000fd5b60008261194257634e487b7160e01b600052601260045260246000fd5b500490565b808201808211156101ae576101ae61190f565b6c1131b430b63632b733b2911d1160991b8152815160009061198381600d85016020870161175a565b601160f91b600d939091019283015250600e01919050565b634e487b7160e01b600052603260045260246000fd5b600082516119c381846020870161175a565b9190910192915050565b6000602082840312156119df57600080fd5b5051919050565b600083516119f881846020880161175a565b9190910191825250602001919050565b818103818111156101ae576101ae61190f565b80820281158282048414176101ae576101ae61190f56feffffffff00000000ffffffffffffffffbce6faada7179e84f3b9cac2fc6325514142434445464748494a4b4c4d4e4f505152535455565758595a6162636465666768696a6b6c6d6e6f707172737475767778797a303132333435363738392d5fa264697066735822122078dfe8b8de0f899fbe2dbcfa825b8693ddd41a6c3b9124efdd3615a823a657ea64736f6c63430008130033a2646970667358221220607a28c06d189c8fa06ddb93073597227132a3e8ba1de7d690804ff54eba5cf764736f6c6343000813003361012060405230608052600160a08190526200003c907f87811f529cafcb6c46985aed1d6771b44d67ee365f54f570c8cebc3679a31a8c620000b2565b60c0526200006c60017f805dd85f12947019774950c90727cb49341c55479dd1fe9c438e28e9588ec9c0620000b2565b60e0523480156200007c57600080fd5b5060405162002e9938038062002e998339810160408190526200009f91620000da565b6001600160a01b0316610100526200010c565b81810381811115620000d457634e487b7160e01b600052601160045260246000fd5b92915050565b600060208284031215620000ed57600080fd5b81516001600160a01b03811681146200010557600080fd5b9392505050565b60805160a05160c05160e05161010051612cb5620001e46000396000818161037a0152818161106f0152818161133a01526116aa01526000818161034901528181611043015281816118f2015261192801526000818161046a01528181611128015261186a01526000818161049e015281816106da0152818161070301528181610ac701528181610af201528181610d0701528181610d7a01528181610e0501528181610e3a0152610ea901526000818161079d015281816107e601528181610b7201528181610bb20152610c410152612cb56000f3fe6080604052600436106101375760003560e01c80635cf00ee4116100b0578063bc197c811161006c578063bc197c81146103d2578063c5afe5e014610401578063d087d28814610416578063f23a6e611461042b578063f748386014610458578063fae010f61461048c57005b80635cf00ee4146102d75780635f7b68be146102f75780638ab3e33f14610317578063abf0c72714610337578063b0d691fe1461036b578063b61d27f6146103b257005b80633659cfe6116100ff5780633659cfe6146102215780633a871cdd1461024157806347e1da2a1461026f578063493ff0041461028f5780634f1ef286146102af57806352d1902d146102c257005b806223de291461014057806301ffc9a714610165578063150b7a021461019a5780631626ba7e146101df5780632150c518146101ff57005b3661013e57005b005b34801561014c57600080fd5b5061013e61015b366004611e97565b5050505050505050565b34801561017157600080fd5b50610185610180366004611f57565b6104c0565b60405190151581526020015b60405180910390f35b3480156101a657600080fd5b506101c66101b5366004611f74565b630a85bd0160e11b95945050505050565b6040516001600160e01b03199091168152602001610191565b3480156101eb57600080fd5b506101c66101fa366004611fe2565b61052d565b34801561020b57600080fd5b5061021461067e565b604051610191919061202d565b34801561022d57600080fd5b5061013e61023c36600461207a565b610793565b34801561024d57600080fd5b5061026161025c366004612095565b61087b565b604051908152602001610191565b34801561027b57600080fd5b5061013e61028a36600461212c565b6108a1565b34801561029b57600080fd5b5061013e6102aa36600461207a565b610a02565b61013e6102bd366004612290565b610b68565b3480156102ce57600080fd5b50610261610c34565b3480156102e357600080fd5b506101856102f236600461207a565b610ce7565b34801561030357600080fd5b5061013e61031236600461207a565b610d41565b34801561032357600080fd5b5061013e6103323660046122dd565b610e70565b34801561034357600080fd5b506102617f000000000000000000000000000000000000000000000000000000000000000081565b34801561037757600080fd5b507f00000000000000000000000000000000000000000000000000000000000000005b6040516001600160a01b039091168152602001610191565b3480156103be57600080fd5b5061013e6103cd366004612310565b610fa0565b3480156103de57600080fd5b506101c66103ed366004612369565b63bc197c8160e01b98975050505050505050565b34801561040d57600080fd5b5061026161103c565b34801561042257600080fd5b5061026161106b565b34801561043757600080fd5b506101c6610446366004612402565b63f23a6e6160e01b9695505050505050565b34801561046457600080fd5b506102617f000000000000000000000000000000000000000000000000000000000000000081565b34801561049857600080fd5b5061039a7f000000000000000000000000000000000000000000000000000000000000000081565b60006001600160e01b03198216630271189760e51b14806104f157506001600160e01b03198216630a85bd0160e11b145b8061050c57506001600160e01b031982166301ffc9a760e01b145b8061052757506301ffc9a760e01b6001600160e01b03198316145b92915050565b60008061053d6014828587612467565b61054691612491565b60601c9050600061055a8460148188612467565b8080601f01602080910402602001604051908101604052809392919081815260200183838082843760009201919091525092935061059d9250849150610ce79050565b15610669576001600160a01b0382163b1561062857604051630b135d3f60e11b81526001600160a01b03831690631626ba7e906105e09089908590600401612514565b602060405180830381865afa1580156105fd573d6000803e3d6000fd5b505050506040513d601f19601f82011682018060405250810190610621919061252d565b9250610675565b61063286826110ff565b6001600160a01b0316826001600160a01b03160361065957630b135d3f60e11b9250610675565b6001600160e01b03199250610675565b6001600160e01b031992505b50509392505050565b6060600061068a61103c565b90506000816001600160401b038111156106a6576106a66121c5565b6040519080825280602002602001820160405280156106cf578160200160208202803683370190505b5090506000806106fe7f0000000000000000000000000000000000000000000000000000000000000000611123565b90505b7f00000000000000000000000000000000000000000000000000000000000000006001600160a01b0316816001600160a01b03161461078a578083838151811061074d5761074d61254a565b60200260200101906001600160a01b031690816001600160a01b03168152505061077681611123565b90508161078281612576565b925050610701565b50909392505050565b6001600160a01b037f00000000000000000000000000000000000000000000000000000000000000001630036107e45760405162461bcd60e51b81526004016107db9061258f565b60405180910390fd5b7f00000000000000000000000000000000000000000000000000000000000000006001600160a01b031661082d600080516020612c39833981519152546001600160a01b031690565b6001600160a01b0316146108535760405162461bcd60e51b81526004016107db906125db565b61085c8161119b565b60408051600080825260208201909252610878918391906111bf565b50565b600061088561132f565b61088f84846113a9565b905061089a82611644565b9392505050565b6108a961169d565b6108c55760405162461bcd60e51b81526004016107db90612627565b84811461090a5760405162461bcd60e51b815260206004820152601360248201527257726f6e67206172726179206c656e6774687360681b60448201526064016107db565b60005b858110156109c8576109b687878381811061092a5761092a61254a565b905060200201602081019061093f919061207a565b8686848181106109515761095161254a565b9050602002013585858581811061096a5761096a61254a565b905060200281019061097c9190612657565b8080601f0160208091040260200160405190810160405280939291908181526020018383808284376000920191909152506116e492505050565b806109c081612576565b91505061090d565b506040517fb9d2d32c9e5b3a74bb2ccd4d000be39660f9852691248d3b91f49adb1ec00f1990600090a16109fa611754565b505050505050565b600054610100900460ff1615808015610a225750600054600160ff909116105b80610a3c5750303b158015610a3c575060005460ff166001145b610a9f5760405162461bcd60e51b815260206004820152602e60248201527f496e697469616c697a61626c653a20636f6e747261637420697320616c72656160448201526d191e481a5b9a5d1a585b1a5e995960921b60648201526084016107db565b6000805460ff191660011790558015610ac2576000805461ff0019166101001790555b610aec7f000000000000000000000000000000000000000000000000000000000000000083611866565b610b16827f0000000000000000000000000000000000000000000000000000000000000000611866565b610b1e6118f0565b8015610b64576000805461ff0019169055604051600181527f7f26b83ff96e1f2b6a682f133852f6798a09c465da95921460cefb38474024989060200160405180910390a15b5050565b6001600160a01b037f0000000000000000000000000000000000000000000000000000000000000000163003610bb05760405162461bcd60e51b81526004016107db9061258f565b7f00000000000000000000000000000000000000000000000000000000000000006001600160a01b0316610bf9600080516020612c39833981519152546001600160a01b031690565b6001600160a01b031614610c1f5760405162461bcd60e51b81526004016107db906125db565b610c288261119b565b610b64828260016111bf565b6000306001600160a01b037f00000000000000000000000000000000000000000000000000000000000000001614610cd45760405162461bcd60e51b815260206004820152603860248201527f555550535570677261646561626c653a206d757374206e6f742062652063616c60448201527f6c6564207468726f7567682064656c656761746563616c6c000000000000000060648201526084016107db565b50600080516020612c3983398151915290565b600080610cf383611123565b6001600160a01b03161415801561052757507f00000000000000000000000000000000000000000000000000000000000000006001600160a01b0316826001600160a01b0316141592915050565b610d4961169d565b610d655760405162461bcd60e51b81526004016107db90612627565b6001600160a01b03811615801590610daf57507f00000000000000000000000000000000000000000000000000000000000000006001600160a01b0316816001600160a01b031614155b8015610dc457506001600160a01b0381163014155b610dfe5760405162461bcd60e51b815260206004820152600b60248201526a496e76616c6964204b657960a81b60448201526064016107db565b6000610e297f0000000000000000000000000000000000000000000000000000000000000000611123565b9050610e358282611866565b610e5f7f000000000000000000000000000000000000000000000000000000000000000083611866565b610e676118f0565b50610878611754565b610e7861169d565b610e945760405162461bcd60e51b81526004016107db90612627565b6001600160a01b03811615801590610ede57507f00000000000000000000000000000000000000000000000000000000000000006001600160a01b0316816001600160a01b031614155b610f185760405162461bcd60e51b815260206004820152600b60248201526a496e76616c6964204b657960a81b60448201526064016107db565b806001600160a01b0316610f2b83611123565b6001600160a01b031614610f735760405162461bcd60e51b815260206004820152600f60248201526e496e76616c696420707265764b657960881b60448201526064016107db565b610f8582610f8083611123565b611866565b610f90816000611866565b610f98611926565b610b64611754565b610fa861169d565b610fc45760405162461bcd60e51b81526004016107db90612627565b611005848484848080601f0160208091040260200160405190810160405280939291908181526020018383808284376000920191909152506116e492505050565b6040517fb9d2d32c9e5b3a74bb2ccd4d000be39660f9852691248d3b91f49adb1ec00f1990600090a1611036611754565b50505050565b60006110667f00000000000000000000000000000000000000000000000000000000000000005490565b905090565b60007f0000000000000000000000000000000000000000000000000000000000000000604051631aab3f0d60e11b8152306004820152600060248201526001600160a01b0391909116906335567e1a90604401602060405180830381865afa1580156110db573d6000803e3d6000fd5b505050506040513d601f19601f82011682018060405250810190611066919061269d565b600080600061110e8585611955565b9150915061111b8161199a565b509392505050565b6000807f00000000000000000000000000000000000000000000000000000000000000008360405160200161116b9291909182526001600160a01b0316602082015260400190565b60405160208183030381529060405280519060200120905061118a8190565b546001600160a01b03169392505050565b6111a361169d565b6108785760405162461bcd60e51b81526004016107db90612627565b7f4910fdfa16fed3260ed0e7147f7cc6da11a60208b5b9406d12a635614ffd91435460ff16156111f7576111f283611ae4565b505050565b826001600160a01b03166352d1902d6040518163ffffffff1660e01b8152600401602060405180830381865afa925050508015611251575060408051601f3d908101601f1916820190925261124e9181019061269d565b60015b6112b45760405162461bcd60e51b815260206004820152602e60248201527f45524331393637557067726164653a206e657720696d706c656d656e7461746960448201526d6f6e206973206e6f74205555505360901b60648201526084016107db565b600080516020612c3983398151915281146113235760405162461bcd60e51b815260206004820152602960248201527f45524331393637557067726164653a20756e737570706f727465642070726f786044820152681a58589b195555525160ba1b60648201526084016107db565b506111f2838383611b80565b336001600160a01b037f000000000000000000000000000000000000000000000000000000000000000016146113a75760405162461bcd60e51b815260206004820152601c60248201527f6163636f756e743a206e6f742066726f6d20456e747279506f696e740000000060448201526064016107db565b565b6000806113ba610140850185612657565b6113c991601491600091612467565b6113d291612491565b60601c905060006113e7610140860186612657565b6113f5916014908290612467565b8080601f0160208091040260200160405190810160405280939291908181526020018383808284376000920191909152509293506114389250849150610ce79050565b15611637576001600160a01b0382163b156115d257604051806060016040528086611462906126b6565b81526001600160a01b03848116602080840191909152604092830188905283518051600180546001600160a01b03191691909416178355908101516002559182015190919082906003906114b69082612844565b50606082015160038201906114cb9082612844565b506080820151600482015560a0820151600582015560c0820151600682015560e08201516007820155610100820151600882015561012082015160098201906115149082612844565b50610140820151600a82019061152a9082612844565b5050506020820151600b820180546001600160a01b0319166001600160a01b03928316179055604092830151600c90920191909155905160016206524760e11b031981529083169063fff35b72906115889088908890600401612971565b6020604051808303816000875af11580156115a7573d6000803e3d6000fd5b505050506040513d601f19601f820116820180604052508101906115cb919061269d565b925061163c565b7f19457468657265756d205369676e6564204d6573736167653a0a3332000000006000908152601c859052603c902061160b81836110ff565b6001600160a01b0316836001600160a01b03160361162c5760009350611631565b600193505b5061163c565b600192505b505092915050565b801561087857604051600090339060001990849084818181858888f193505050503d8060008114611691576040519150601f19603f3d011682016040523d82523d6000602084013e611696565b606091505b5050505050565b6000336001600160a01b037f00000000000000000000000000000000000000000000000000000000000000001614806116d557503330145b80611066575061106633610ce7565b600080846001600160a01b031684846040516117009190612a8a565b60006040518083038185875af1925050503d806000811461173d576040519150601f19603f3d011682016040523d82523d6000602084013e611742565b606091505b50915091508161169657805160208201fd5b600c546001600160a01b0316156113a757600c54600d5460405163dee30c9760e01b81526001600160a01b039092169163dee30c979161179a9160019190600401612b23565b600060405180830381600087803b1580156117b457600080fd5b505af11580156117c8573d6000803e3d6000fd5b5050600180546001600160a01b031916815560006002819055909250905081816117f3600382611dec565b611801600383016000611dec565b600482016000905560058201600090556006820160009055600782016000905560088201600090556009820160006118399190611dec565b611847600a83016000611dec565b505050600b810180546001600160a01b03191690556000600c90910155565b60007f0000000000000000000000000000000000000000000000000000000000000000836040516020016118ad9291909182526001600160a01b0316602082015260400190565b604051602081830303815290604052805190602001209050816118cd8290565b80546001600160a01b0319166001600160a01b0392909216919091179055505050565b7f0000000000000000000000000000000000000000000000000000000000000000805490600061191f83612576565b9190505550565b7f0000000000000000000000000000000000000000000000000000000000000000805490600061191f83612bf8565b600080825160410361198b5760208301516040840151606085015160001a61197f87828585611ba5565b94509450505050611993565b506000905060025b9250929050565b60008160048111156119ae576119ae612c0f565b036119b65750565b60018160048111156119ca576119ca612c0f565b03611a175760405162461bcd60e51b815260206004820152601860248201527f45434453413a20696e76616c6964207369676e6174757265000000000000000060448201526064016107db565b6002816004811115611a2b57611a2b612c0f565b03611a785760405162461bcd60e51b815260206004820152601f60248201527f45434453413a20696e76616c6964207369676e6174757265206c656e6774680060448201526064016107db565b6003816004811115611a8c57611a8c612c0f565b036108785760405162461bcd60e51b815260206004820152602260248201527f45434453413a20696e76616c6964207369676e6174757265202773272076616c604482015261756560f01b60648201526084016107db565b6001600160a01b0381163b611b515760405162461bcd60e51b815260206004820152602d60248201527f455243313936373a206e657720696d706c656d656e746174696f6e206973206e60448201526c1bdd08184818dbdb9d1c9858dd609a1b60648201526084016107db565b600080516020612c3983398151915280546001600160a01b0319166001600160a01b0392909216919091179055565b611b8983611c69565b600082511180611b965750805b156111f2576110368383611ca9565b6000807f7fffffffffffffffffffffffffffffff5d576e7357a4501ddfe92f46681b20a0831115611bdc5750600090506003611c60565b6040805160008082526020820180845289905260ff881692820192909252606081018690526080810185905260019060a0016020604051602081039080840390855afa158015611c30573d6000803e3d6000fd5b5050604051601f1901519150506001600160a01b038116611c5957600060019250925050611c60565b9150600090505b94509492505050565b611c7281611ae4565b6040516001600160a01b038216907fbc7cd75a20ee27fd9adebab32041f755214dbc6bffa90cc0225b39da2e5c2d3b90600090a250565b606061089a8383604051806060016040528060278152602001612c59602791396060600080856001600160a01b031685604051611ce69190612a8a565b600060405180830381855af49150503d8060008114611d21576040519150601f19603f3d011682016040523d82523d6000602084013e611d26565b606091505b5091509150611d3786838387611d41565b9695505050505050565b60608315611db0578251600003611da9576001600160a01b0385163b611da95760405162461bcd60e51b815260206004820152601d60248201527f416464726573733a2063616c6c20746f206e6f6e2d636f6e747261637400000060448201526064016107db565b5081611dba565b611dba8383611dc2565b949350505050565b815115611dd25781518083602001fd5b8060405162461bcd60e51b81526004016107db9190612c25565b508054611df8906127c4565b6000825580601f10611e08575050565b601f01602090049060005260206000209081019061087891905b80821115611e365760008155600101611e22565b5090565b80356001600160a01b0381168114611e5157600080fd5b919050565b60008083601f840112611e6857600080fd5b5081356001600160401b03811115611e7f57600080fd5b60208301915083602082850101111561199357600080fd5b60008060008060008060008060c0898b031215611eb357600080fd5b611ebc89611e3a565b9750611eca60208a01611e3a565b9650611ed860408a01611e3a565b95506060890135945060808901356001600160401b0380821115611efb57600080fd5b611f078c838d01611e56565b909650945060a08b0135915080821115611f2057600080fd5b50611f2d8b828c01611e56565b999c989b5096995094979396929594505050565b6001600160e01b03198116811461087857600080fd5b600060208284031215611f6957600080fd5b813561089a81611f41565b600080600080600060808688031215611f8c57600080fd5b611f9586611e3a565b9450611fa360208701611e3a565b93506040860135925060608601356001600160401b03811115611fc557600080fd5b611fd188828901611e56565b969995985093965092949392505050565b600080600060408486031215611ff757600080fd5b8335925060208401356001600160401b0381111561201457600080fd5b61202086828701611e56565b9497909650939450505050565b6020808252825182820181905260009190848201906040850190845b8181101561206e5783516001600160a01b031683529284019291840191600101612049565b50909695505050505050565b60006020828403121561208c57600080fd5b61089a82611e3a565b6000806000606084860312156120aa57600080fd5b83356001600160401b038111156120c057600080fd5b840161016081870312156120d357600080fd5b95602085013595506040909401359392505050565b60008083601f8401126120fa57600080fd5b5081356001600160401b0381111561211157600080fd5b6020830191508360208260051b850101111561199357600080fd5b6000806000806000806060878903121561214557600080fd5b86356001600160401b038082111561215c57600080fd5b6121688a838b016120e8565b9098509650602089013591508082111561218157600080fd5b61218d8a838b016120e8565b909650945060408901359150808211156121a657600080fd5b506121b389828a016120e8565b979a9699509497509295939492505050565b634e487b7160e01b600052604160045260246000fd5b60405161016081016001600160401b03811182821017156121fe576121fe6121c5565b60405290565b600082601f83011261221557600080fd5b81356001600160401b038082111561222f5761222f6121c5565b604051601f8301601f19908116603f01168101908282118183101715612257576122576121c5565b8160405283815286602085880101111561227057600080fd5b836020870160208301376000602085830101528094505050505092915050565b600080604083850312156122a357600080fd5b6122ac83611e3a565b915060208301356001600160401b038111156122c757600080fd5b6122d385828601612204565b9150509250929050565b600080604083850312156122f057600080fd5b6122f983611e3a565b915061230760208401611e3a565b90509250929050565b6000806000806060858703121561232657600080fd5b61232f85611e3a565b93506020850135925060408501356001600160401b0381111561235157600080fd5b61235d87828801611e56565b95989497509550505050565b60008060008060008060008060a0898b03121561238557600080fd5b61238e89611e3a565b975061239c60208a01611e3a565b965060408901356001600160401b03808211156123b857600080fd5b6123c48c838d016120e8565b909850965060608b01359150808211156123dd57600080fd5b6123e98c838d016120e8565b909650945060808b0135915080821115611f2057600080fd5b60008060008060008060a0878903121561241b57600080fd5b61242487611e3a565b955061243260208801611e3a565b9450604087013593506060870135925060808701356001600160401b0381111561245b57600080fd5b6121b389828a01611e56565b6000808585111561247757600080fd5b8386111561248457600080fd5b5050820193919092039150565b6bffffffffffffffffffffffff19813581811691601485101561163c5760149490940360031b84901b1690921692915050565b60005b838110156124df5781810151838201526020016124c7565b50506000910152565b600081518084526125008160208601602086016124c4565b601f01601f19169290920160200192915050565b828152604060208201526000611dba60408301846124e8565b60006020828403121561253f57600080fd5b815161089a81611f41565b634e487b7160e01b600052603260045260246000fd5b634e487b7160e01b600052601160045260246000fd5b60006001820161258857612588612560565b5060010190565b6020808252602c908201527f46756e6374696f6e206d7573742062652063616c6c6564207468726f7567682060408201526b19195b1959d85d1958d85b1b60a21b606082015260800190565b6020808252602c908201527f46756e6374696f6e206d7573742062652063616c6c6564207468726f7567682060408201526b6163746976652070726f787960a01b606082015260800190565b6020808252601690820152752bb0b63632ba1d1024b73b30b634b21021b0b63632b960511b604082015260600190565b6000808335601e1984360301811261266e57600080fd5b8301803591506001600160401b0382111561268857600080fd5b60200191503681900382131561199357600080fd5b6000602082840312156126af57600080fd5b5051919050565b600061016082360312156126c957600080fd5b6126d16121db565b6126da83611e3a565b81526020830135602082015260408301356001600160401b038082111561270057600080fd5b61270c36838701612204565b6040840152606085013591508082111561272557600080fd5b61273136838701612204565b60608401526080850135608084015260a085013560a084015260c085013560c084015260e085013560e0840152610100915081850135828401526101209150818501358181111561278157600080fd5b61278d36828801612204565b8385015250610140915081850135818111156127a857600080fd5b6127b436828801612204565b8385015250505080915050919050565b600181811c908216806127d857607f821691505b6020821081036127f857634e487b7160e01b600052602260045260246000fd5b50919050565b601f8211156111f257600081815260208120601f850160051c810160208610156128255750805b601f850160051c820191505b818110156109fa57828155600101612831565b81516001600160401b0381111561285d5761285d6121c5565b6128718161286b84546127c4565b846127fe565b602080601f8311600181146128a6576000841561288e5750858301515b600019600386901b1c1916600185901b1785556109fa565b600085815260208120601f198616915b828110156128d5578886015182559484019460019091019084016128b6565b50858210156128f35787850151600019600388901b60f8161c191681555b5050505050600190811b01905550565b6000808335601e1984360301811261291a57600080fd5b83016020810192503590506001600160401b0381111561293957600080fd5b80360382131561199357600080fd5b81835281816020850137506000828201602090810191909152601f909101601f19169091010190565b604081526129926040820161298585611e3a565b6001600160a01b03169052565b6020830135606082015260006129ab6040850185612903565b6101608060808601526129c36101a086018385612948565b92506129d26060880188612903565b9250603f19808786030160a08801526129ec858584612948565b9450608089013560c088015260a089013560e0880152610100935060c089013584880152610120915060e089013582880152610140848a013581890152612a35838b018b612903565b95509250818887030184890152612a4d868685612948565b9550612a5b818b018b612903565b955093505080878603016101808801525050612a78838383612948565b93505050508260208301529392505050565b60008251612a9c8184602087016124c4565b9190910192915050565b60008154612ab3816127c4565b808552602060018381168015612ad05760018114612aea57612b18565b60ff1985168884015283151560051b880183019550612b18565b866000528260002060005b85811015612b105781548a8201860152908301908401612af5565b890184019650505b505050505092915050565b60408152612b3f6040820161298585546001600160a01b031690565b600183015460608201526000610160806080840152612b656101a0840160028701612aa6565b603f19808583030160a0860152612b7f8260038901612aa6565b9150600487015460c0860152600587015460e0860152600687015461010086015260078701546101208601526008870154610140860152808583030183860152612bcc8260098901612aa6565b925080858403016101808601525050612be881600a8701612aa6565b9150508260208301529392505050565b600081612c0757612c07612560565b506000190190565b634e487b7160e01b600052602160045260246000fd5b60208152600061089a60208301846124e856fe360894a13ba1a3210667c828492db98dca3e2076cc3735a920a3ca505d382bbc416464726573733a206c6f772d6c6576656c2064656c65676174652063616c6c206661696c6564a2646970667358221220b70474df0dc6ef3051b1791c8591693a49201cc3745d04b05e2f539f38ee922464736f6c63430008130033",
    "linkReferences": {}
  },
  "methodIdentifiers": {
    "createPasskey(uint256,uint256,bytes32)": "4842b06f",
    "createWallet(address,bytes32)": "b20ca818",
    "createWalletWithPasskey(uint256,uint256,bytes32)": "80d1bfde",
    "getPasskeyAddress(bytes32)": "57e1eb9a",
    "getWalletAddress(bytes32)": "206d54db",
    "multicall(bytes[])": "ac9650d8",
    "walletImplement()": "97a654bd"
  },
  "id": 65
}