{
  "abi": [
    {
      "inputs": [
        {
          "internalType": "address",
          "name": "entryPoint",
          "type": "address"
        }
      ],
      "stateMutability": "nonpayable",
      "type": "constructor"
    },
    {
      "inputs": [
        {
          "internalType": "bytes",
          "name": "initData",
          "type": "bytes"
        },
        {
          "internalType": "bytes32",
          "name": "salt",
          "type": "bytes32"
        }
      ],
      "name": "createWallet",
      "outputs": [
        {
          "internalType": "contract Wallet",
          "name": "",
          "type": "address"
        }
      ],
      "stateMutability": "nonpayable",
      "type": "function"
    },
    {
      "inputs": [
        {
          "internalType": "bytes32",
          "name": "salt",
          "type": "bytes32"
        }
      ],
      "name": "getWalletAddress",
      "outputs": [
        {
          "internalType": "address payable",
          "name": "",
          "type": "address"
        }
      ],
      "stateMutability": "view",
      "type": "function"
    },
    {
      "inputs": [],
      "name": "getWalletCreationCodeHash",
      "outputs": [
        {
          "internalType": "bytes32",
          "name": "",
          "type": "bytes32"
        }
      ],
      "stateMutability": "pure",
      "type": "function"
    },
    {
      "inputs": [],
      "name": "walletImplement",
      "outputs": [
        {
          "internalType": "contract Wallet",
          "name": "",
          "type": "address"
        }
      ],
      "stateMutability": "view",
      "type": "function"
    }
  ],
  "bytecode": {
    "object": "0x60a060405234801561001057600080fd5b50604051613bb6380380613bb683398101604081905261002f91610088565b8060405161003c9061007b565b6001600160a01b039091168152602001604051809103906000f080158015610068573d6000803e3d6000fd5b506001600160a01b0316608052506100b8565b6130bb80610afb83390190565b60006020828403121561009a57600080fd5b81516001600160a01b03811681146100b157600080fd5b9392505050565b608051610a226100d960003960008181609c01526101c90152610a226000f3fe608060405234801561001057600080fd5b506004361061004c5760003560e01c8063206d54db146100515780636bb554df1461008157806397a654bd14610097578063a1aafc9e146100be575b600080fd5b61006461005f3660046102b6565b6100d1565b6040516001600160a01b0390911681526020015b60405180910390f35b61008961010d565b604051908152602001610078565b6100647f000000000000000000000000000000000000000000000000000000000000000081565b6100646100cc3660046102e5565b61013f565b600061010782604051806020016100e7906102a9565b6020820181038252601f19601f8201166040525080519060200120610152565b92915050565b60006040518060200161011f906102a9565b6020820181038252601f19601f8201166040525080519060200120905090565b600061014b838361015f565b9392505050565b600061014b83833061027f565b60008061016b836100d1565b90506001600160a01b0381163b801561018657509050610107565b600084604051610195906102a9565b8190604051809103906000f59050801580156101b5573d6000803e3d6000fd5b509050806001600160a01b031663d1f578947f0000000000000000000000000000000000000000000000000000000000000000886040516024016101f991906103e0565b60408051601f198184030181529181526020820180516001600160e01b031663da1be40b60e01b1790525160e084901b6001600160e01b03191681526102439291906004016103f3565b600060405180830381600087803b15801561025d57600080fd5b505af1158015610271573d6000803e3d6000fd5b509498975050505050505050565b6000604051836040820152846020820152828152600b8101905060ff815360559020949350505050565b6105cd8061042083390190565b6000602082840312156102c857600080fd5b5035919050565b634e487b7160e01b600052604160045260246000fd5b600080604083850312156102f857600080fd5b823567ffffffffffffffff8082111561031057600080fd5b818501915085601f83011261032457600080fd5b813581811115610336576103366102cf565b604051601f8201601f19908116603f0116810190838211818310171561035e5761035e6102cf565b8160405282815288602084870101111561037757600080fd5b826020860160208301376000602093820184015298969091013596505050505050565b6000815180845260005b818110156103c0576020818501810151868301820152016103a4565b506000602082860101526020601f19601f83011685010191505092915050565b60208152600061014b602083018461039a565b6001600160a01b03831681526040602082018190526000906104179083018461039a565b94935050505056fe608060405234801561001057600080fd5b506105ad806100206000396000f3fe6080604052600436106100225760003560e01c8063d1f578941461003957610031565b366100315761002f610059565b005b61002f610059565b34801561004557600080fd5b5061002f61005436600461040d565b61006b565b610069610064610133565b61016b565b565b6000610075610133565b90506001600160a01b038116156100d35760405162461bcd60e51b815260206004820152601c60248201527f455243313936373a20616c726561647920696e697469616c697a65640000000060448201526064015b60405180910390fd5b6001600160a01b0383166101225760405162461bcd60e51b8152602060048201526016602482015275455243313936373a206c6f676963206973207a65726f60501b60448201526064016100ca565b61012e8383600061018f565b505050565b60006101667f360894a13ba1a3210667c828492db98dca3e2076cc3735a920a3ca505d382bbc546001600160a01b031690565b905090565b3660008037600080366000845af43d6000803e80801561018a573d6000f35b3d6000fd5b610198836101ba565b6000825111806101a55750805b1561012e576101b483836101fa565b50505050565b6101c381610226565b6040516001600160a01b038216907fbc7cd75a20ee27fd9adebab32041f755214dbc6bffa90cc0225b39da2e5c2d3b90600090a250565b606061021f8383604051806060016040528060278152602001610551602791396102d4565b9392505050565b6001600160a01b0381163b6102935760405162461bcd60e51b815260206004820152602d60248201527f455243313936373a206e657720696d706c656d656e746174696f6e206973206e60448201526c1bdd08184818dbdb9d1c9858dd609a1b60648201526084016100ca565b7f360894a13ba1a3210667c828492db98dca3e2076cc3735a920a3ca505d382bbc80546001600160a01b0319166001600160a01b0392909216919091179055565b6060600080856001600160a01b0316856040516102f19190610501565b600060405180830381855af49150503d806000811461032c576040519150601f19603f3d011682016040523d82523d6000602084013e610331565b606091505b50915091506103428683838761034c565b9695505050505050565b606083156103bb5782516000036103b4576001600160a01b0385163b6103b45760405162461bcd60e51b815260206004820152601d60248201527f416464726573733a2063616c6c20746f206e6f6e2d636f6e747261637400000060448201526064016100ca565b50816103c5565b6103c583836103cd565b949350505050565b8151156103dd5781518083602001fd5b8060405162461bcd60e51b81526004016100ca919061051d565b634e487b7160e01b600052604160045260246000fd5b6000806040838503121561042057600080fd5b82356001600160a01b038116811461043757600080fd5b9150602083013567ffffffffffffffff8082111561045457600080fd5b818501915085601f83011261046857600080fd5b81358181111561047a5761047a6103f7565b604051601f8201601f19908116603f011681019083821181831017156104a2576104a26103f7565b816040528281528860208487010111156104bb57600080fd5b8260208601602083013760006020848301015280955050505050509250929050565b60005b838110156104f85781810151838201526020016104e0565b50506000910152565b600082516105138184602087016104dd565b9190910192915050565b602081526000825180602084015261053c8160408501602087016104dd565b601f01601f1916919091016040019291505056fe416464726573733a206c6f772d6c6576656c2064656c65676174652063616c6c206661696c6564a264697066735822122000c4ff7704734dd628a34190ef6bba1cf455f5f426f67434c9763a53b3b708f164736f6c63430008130033a2646970667358221220bb05908000e0d2f5170e5aea3e8d5837adaa16cec2d9daa868d835880b2f7a1e64736f6c6343000813003361012060405230608052600160a08190526200003c907f87811f529cafcb6c46985aed1d6771b44d67ee365f54f570c8cebc3679a31a8c620000b2565b60c0526200006c60017f805dd85f12947019774950c90727cb49341c55479dd1fe9c438e28e9588ec9c0620000b2565b60e0523480156200007c57600080fd5b50604051620030bb380380620030bb8339810160408190526200009f91620000da565b6001600160a01b0316610100526200010c565b81810381811115620000d457634e487b7160e01b600052601160045260246000fd5b92915050565b600060208284031215620000ed57600080fd5b81516001600160a01b03811681146200010557600080fd5b9392505050565b60805160a05160c05160e05161010051612ee5620001d66000396000818161035a01528181610f36015281816113d3015261174301526000818161032901528181610f0a015281816119c601526119fc01526000818161046a015281816111c1015261193e01526000818161049e015281816106da0152818161070301528181610ba501528181610c4101528181610ccc01528181610d010152610d7001526000818161079d015281816107e601528181610a0c01528181610a4c0152610adf0152612ee56000f3fe6080604052600436106101375760003560e01c80635f7b68be116100b0578063c5afe5e01161006c578063c5afe5e0146103e1578063d087d288146103f6578063da1be40b1461040b578063f23a6e611461042b578063f748386014610458578063fae010f61461048c57005b80635f7b68be146102d75780638ab3e33f146102f7578063abf0c72714610317578063b0d691fe1461034b578063b61d27f614610392578063bc197c81146103b257005b80633659cfe6116100ff5780633659cfe6146102215780633a871cdd1461024157806347e1da2a1461026f5780634f1ef2861461028f57806352d1902d146102a25780635cf00ee4146102b757005b806223de291461014057806301ffc9a714610165578063150b7a021461019a5780631626ba7e146101df5780632150c518146101ff57005b3661013e57005b005b34801561014c57600080fd5b5061013e61015b366004611f95565b5050505050505050565b34801561017157600080fd5b5061018561018036600461205b565b6104c0565b60405190151581526020015b60405180910390f35b3480156101a657600080fd5b506101c66101b5366004612078565b630a85bd0160e11b95945050505050565b6040516001600160e01b03199091168152602001610191565b3480156101eb57600080fd5b506101c66101fa3660046120ea565b61052d565b34801561020b57600080fd5b5061021461067e565b6040516101919190612135565b34801561022d57600080fd5b5061013e61023c366004612182565b610793565b34801561024d57600080fd5b5061026161025c36600461219f565b61087b565b604051908152602001610191565b34801561027b57600080fd5b5061013e61028a366004612236565b6108a1565b61013e61029d3660046123bb565b610a02565b3480156102ae57600080fd5b50610261610ad2565b3480156102c357600080fd5b506101856102d2366004612182565b610b85565b3480156102e357600080fd5b5061013e6102f2366004612182565b610bdf565b34801561030357600080fd5b5061013e61031236600461240a565b610d37565b34801561032357600080fd5b506102617f000000000000000000000000000000000000000000000000000000000000000081565b34801561035757600080fd5b507f00000000000000000000000000000000000000000000000000000000000000005b6040516001600160a01b039091168152602001610191565b34801561039e57600080fd5b5061013e6103ad366004612443565b610e67565b3480156103be57600080fd5b506101c66103cd36600461249e565b63bc197c8160e01b98975050505050505050565b3480156103ed57600080fd5b50610261610f03565b34801561040257600080fd5b50610261610f32565b34801561041757600080fd5b5061013e61042636600461253b565b610fc6565b34801561043757600080fd5b506101c661044636600461256f565b63f23a6e6160e01b9695505050505050565b34801561046457600080fd5b506102617f000000000000000000000000000000000000000000000000000000000000000081565b34801561049857600080fd5b5061037a7f000000000000000000000000000000000000000000000000000000000000000081565b60006001600160e01b03198216630271189760e51b14806104f157506001600160e01b03198216630a85bd0160e11b145b8061050c57506001600160e01b031982166301ffc9a760e01b145b8061052757506301ffc9a760e01b6001600160e01b03198316145b92915050565b60008061053d60148285876125d8565b61054691612602565b60601c9050600061055a84601481886125d8565b8080601f01602080910402602001604051908101604052809392919081815260200183838082843760009201919091525092935061059d9250849150610b859050565b15610669576001600160a01b0382163b1561062857604051630b135d3f60e11b81526001600160a01b03831690631626ba7e906105e09089908590600401612685565b602060405180830381865afa1580156105fd573d6000803e3d6000fd5b505050506040513d601f19601f82011682018060405250810190610621919061269e565b9250610675565b6106328682611198565b6001600160a01b0316826001600160a01b03160361065957630b135d3f60e11b9250610675565b6001600160e01b03199250610675565b6001600160e01b031992505b50509392505050565b6060600061068a610f03565b90506000816001600160401b038111156106a6576106a66122cf565b6040519080825280602002602001820160405280156106cf578160200160208202803683370190505b5090506000806106fe7f00000000000000000000000000000000000000000000000000000000000000006111bc565b90505b7f00000000000000000000000000000000000000000000000000000000000000006001600160a01b0316816001600160a01b03161461078a578083838151811061074d5761074d6126bb565b60200260200101906001600160a01b031690816001600160a01b031681525050610776816111bc565b905081610782816126e7565b925050610701565b50909392505050565b6001600160a01b037f00000000000000000000000000000000000000000000000000000000000000001630036107e45760405162461bcd60e51b81526004016107db90612700565b60405180910390fd5b7f00000000000000000000000000000000000000000000000000000000000000006001600160a01b031661082d600080516020612e69833981519152546001600160a01b031690565b6001600160a01b0316146108535760405162461bcd60e51b81526004016107db9061274c565b61085c81611234565b6040805160008082526020820190925261087891839190611258565b50565b60006108856113c8565b61088f8484611442565b905061089a826116dd565b9392505050565b6108a9611736565b6108c55760405162461bcd60e51b81526004016107db90612798565b84811461090a5760405162461bcd60e51b815260206004820152601360248201527257726f6e67206172726179206c656e6774687360681b60448201526064016107db565b60005b858110156109c8576109b687878381811061092a5761092a6126bb565b905060200201602081019061093f9190612182565b868684818110610951576109516126bb565b9050602002013585858581811061096a5761096a6126bb565b905060200281019061097c91906127c8565b8080601f01602080910402602001604051908101604052809392919081815260200183838082843760009201919091525061177192505050565b806109c0816126e7565b91505061090d565b506040517fb9d2d32c9e5b3a74bb2ccd4d000be39660f9852691248d3b91f49adb1ec00f1990600090a16109fa6117e1565b505050505050565b6001600160a01b037f0000000000000000000000000000000000000000000000000000000000000000163003610a4a5760405162461bcd60e51b81526004016107db90612700565b7f00000000000000000000000000000000000000000000000000000000000000006001600160a01b0316610a93600080516020612e69833981519152546001600160a01b031690565b6001600160a01b031614610ab95760405162461bcd60e51b81526004016107db9061274c565b610ac282611234565b610ace82826001611258565b5050565b6000306001600160a01b037f00000000000000000000000000000000000000000000000000000000000000001614610b725760405162461bcd60e51b815260206004820152603860248201527f555550535570677261646561626c653a206d757374206e6f742062652063616c60448201527f6c6564207468726f7567682064656c656761746563616c6c000000000000000060648201526084016107db565b50600080516020612e6983398151915290565b600080610b91836111bc565b6001600160a01b03161415801561052757507f00000000000000000000000000000000000000000000000000000000000000006001600160a01b0316826001600160a01b0316141592915050565b610be7611736565b610c035760405162461bcd60e51b81526004016107db90612798565b610c2c604051806040016040528060068152602001656164644b657960d01b81525082306118f3565b6001600160a01b03811615801590610c7657507f00000000000000000000000000000000000000000000000000000000000000006001600160a01b0316816001600160a01b031614155b8015610c8b57506001600160a01b0381163014155b610cc55760405162461bcd60e51b815260206004820152600b60248201526a496e76616c6964204b657960a81b60448201526064016107db565b6000610cf07f00000000000000000000000000000000000000000000000000000000000000006111bc565b9050610cfc828261193a565b610d267f00000000000000000000000000000000000000000000000000000000000000008361193a565b610d2e6119c4565b506108786117e1565b610d3f611736565b610d5b5760405162461bcd60e51b81526004016107db90612798565b6001600160a01b03811615801590610da557507f00000000000000000000000000000000000000000000000000000000000000006001600160a01b0316816001600160a01b031614155b610ddf5760405162461bcd60e51b815260206004820152600b60248201526a496e76616c6964204b657960a81b60448201526064016107db565b806001600160a01b0316610df2836111bc565b6001600160a01b031614610e3a5760405162461bcd60e51b815260206004820152600f60248201526e496e76616c696420707265764b657960881b60448201526064016107db565b610e4c82610e47836111bc565b61193a565b610e5781600061193a565b610e5f6119fa565b610ace6117e1565b610e6f611736565b610e8b5760405162461bcd60e51b81526004016107db90612798565b610ecc848484848080601f01602080910402602001604051908101604052809392919081815260200183838082843760009201919091525061177192505050565b6040517fb9d2d32c9e5b3a74bb2ccd4d000be39660f9852691248d3b91f49adb1ec00f1990600090a1610efd6117e1565b50505050565b6000610f2d7f00000000000000000000000000000000000000000000000000000000000000005490565b905090565b60007f0000000000000000000000000000000000000000000000000000000000000000604051631aab3f0d60e11b8152306004820152600060248201526001600160a01b0391909116906335567e1a90604401602060405180830381865afa158015610fa2573d6000803e3d6000fd5b505050506040513d601f19601f82011682018060405250810190610f2d919061280e565b600054610100900460ff1615808015610fe65750600054600160ff909116105b806110005750303b158015611000575060005460ff166001145b6110635760405162461bcd60e51b815260206004820152602e60248201527f496e697469616c697a61626c653a20636f6e747261637420697320616c72656160448201526d191e481a5b9a5d1a585b1a5e995960921b60648201526084016107db565b6000805460ff191660011790558015611086576000805461ff0019166101001790555b6000808380602001905181019061109d9190612827565b915091506000826001600160a01b0316826040516110bb91906128b3565b600060405180830381855af49150503d80600081146110f6576040519150601f19603f3d011682016040523d82523d6000602084013e6110fb565b606091505b505090508061114c5760405162461bcd60e51b815260206004820152601860248201527f57616c6c65743a20426f6f747374726170206661696c6564000000000000000060448201526064016107db565b5050508015610ace576000805461ff0019169055604051600181527f7f26b83ff96e1f2b6a682f133852f6798a09c465da95921460cefb38474024989060200160405180910390a15050565b60008060006111a78585611a29565b915091506111b481611a6e565b509392505050565b6000807f0000000000000000000000000000000000000000000000000000000000000000836040516020016112049291909182526001600160a01b0316602082015260400190565b6040516020818303038152906040528051906020012090506112238190565b546001600160a01b03169392505050565b61123c611736565b6108785760405162461bcd60e51b81526004016107db90612798565b7f4910fdfa16fed3260ed0e7147f7cc6da11a60208b5b9406d12a635614ffd91435460ff16156112905761128b83611bb8565b505050565b826001600160a01b03166352d1902d6040518163ffffffff1660e01b8152600401602060405180830381865afa9250505080156112ea575060408051601f3d908101601f191682019092526112e79181019061280e565b60015b61134d5760405162461bcd60e51b815260206004820152602e60248201527f45524331393637557067726164653a206e657720696d706c656d656e7461746960448201526d6f6e206973206e6f74205555505360901b60648201526084016107db565b600080516020612e6983398151915281146113bc5760405162461bcd60e51b815260206004820152602960248201527f45524331393637557067726164653a20756e737570706f727465642070726f786044820152681a58589b195555525160ba1b60648201526084016107db565b5061128b838383611c54565b336001600160a01b037f000000000000000000000000000000000000000000000000000000000000000016146114405760405162461bcd60e51b815260206004820152601c60248201527f6163636f756e743a206e6f742066726f6d20456e747279506f696e740000000060448201526064016107db565b565b6000806114536101408501856127c8565b611462916014916000916125d8565b61146b91612602565b60601c905060006114806101408601866127c8565b61148e9160149082906125d8565b8080601f0160208091040260200160405190810160405280939291908181526020018383808284376000920191909152509293506114d19250849150610b859050565b156116d0576001600160a01b0382163b1561166b576040518060600160405280866114fb906128cf565b81526001600160a01b03848116602080840191909152604092830188905283518051600180546001600160a01b031916919094161783559081015160025591820151909190829060039061154f9082612a5d565b50606082015160038201906115649082612a5d565b506080820151600482015560a0820151600582015560c0820151600682015560e08201516007820155610100820151600882015561012082015160098201906115ad9082612a5d565b50610140820151600a8201906115c39082612a5d565b5050506020820151600b820180546001600160a01b0319166001600160a01b03928316179055604092830151600c90920191909155905160016206524760e11b031981529083169063fff35b72906116219088908890600401612b8a565b6020604051808303816000875af1158015611640573d6000803e3d6000fd5b505050506040513d601f19601f82011682018060405250810190611664919061280e565b92506116d5565b7f19457468657265756d205369676e6564204d6573736167653a0a3332000000006000908152601c859052603c90206116a48183611198565b6001600160a01b0316836001600160a01b0316036116c557600093506116ca565b600193505b506116d5565b600192505b505092915050565b801561087857604051600090339060001990849084818181858888f193505050503d806000811461172a576040519150601f19603f3d011682016040523d82523d6000602084013e61172f565b606091505b5050505050565b6000336001600160a01b037f0000000000000000000000000000000000000000000000000000000000000000161480610f2d57505030331490565b600080846001600160a01b0316848460405161178d91906128b3565b60006040518083038185875af1925050503d80600081146117ca576040519150601f19603f3d011682016040523d82523d6000602084013e6117cf565b606091505b50915091508161172f57805160208201fd5b600c546001600160a01b03161561144057600c54600d5460405163dee30c9760e01b81526001600160a01b039092169163dee30c97916118279160019190600401612d20565b600060405180830381600087803b15801561184157600080fd5b505af1158015611855573d6000803e3d6000fd5b5050600180546001600160a01b03191681556000600281905590925090508181611880600382611ee1565b61188e600383016000611ee1565b600482016000905560058201600090556006820160009055600782016000905560088201600090556009820160006118c69190611ee1565b6118d4600a83016000611ee1565b505050600b810180546001600160a01b03191690556000600c90910155565b61128b83838360405160240161190b93929190612df5565b60408051601f198184030181529190526020810180516001600160e01b03166307e763af60e51b179052611c79565b60007f0000000000000000000000000000000000000000000000000000000000000000836040516020016119819291909182526001600160a01b0316602082015260400190565b604051602081830303815290604052805190602001209050816119a18290565b80546001600160a01b0319166001600160a01b0392909216919091179055505050565b7f000000000000000000000000000000000000000000000000000000000000000080549060006119f3836126e7565b9190505550565b7f000000000000000000000000000000000000000000000000000000000000000080549060006119f383612e28565b6000808251604103611a5f5760208301516040840151606085015160001a611a5387828585611c9a565b94509450505050611a67565b506000905060025b9250929050565b6000816004811115611a8257611a82612e3f565b03611a8a5750565b6001816004811115611a9e57611a9e612e3f565b03611aeb5760405162461bcd60e51b815260206004820152601860248201527f45434453413a20696e76616c6964207369676e6174757265000000000000000060448201526064016107db565b6002816004811115611aff57611aff612e3f565b03611b4c5760405162461bcd60e51b815260206004820152601f60248201527f45434453413a20696e76616c6964207369676e6174757265206c656e6774680060448201526064016107db565b6003816004811115611b6057611b60612e3f565b036108785760405162461bcd60e51b815260206004820152602260248201527f45434453413a20696e76616c6964207369676e6174757265202773272076616c604482015261756560f01b60648201526084016107db565b6001600160a01b0381163b611c255760405162461bcd60e51b815260206004820152602d60248201527f455243313936373a206e657720696d706c656d656e746174696f6e206973206e60448201526c1bdd08184818dbdb9d1c9858dd609a1b60648201526084016107db565b600080516020612e6983398151915280546001600160a01b0319166001600160a01b0392909216919091179055565b611c5d83611d5e565b600082511180611c6a5750805b1561128b57610efd8383611d9e565b80516a636f6e736f6c652e6c6f67602083016000808483855afa5050505050565b6000807f7fffffffffffffffffffffffffffffff5d576e7357a4501ddfe92f46681b20a0831115611cd15750600090506003611d55565b6040805160008082526020820180845289905260ff881692820192909252606081018690526080810185905260019060a0016020604051602081039080840390855afa158015611d25573d6000803e3d6000fd5b5050604051601f1901519150506001600160a01b038116611d4e57600060019250925050611d55565b9150600090505b94509492505050565b611d6781611bb8565b6040516001600160a01b038216907fbc7cd75a20ee27fd9adebab32041f755214dbc6bffa90cc0225b39da2e5c2d3b90600090a250565b606061089a8383604051806060016040528060278152602001612e89602791396060600080856001600160a01b031685604051611ddb91906128b3565b600060405180830381855af49150503d8060008114611e16576040519150601f19603f3d011682016040523d82523d6000602084013e611e1b565b606091505b5091509150611e2c86838387611e36565b9695505050505050565b60608315611ea5578251600003611e9e576001600160a01b0385163b611e9e5760405162461bcd60e51b815260206004820152601d60248201527f416464726573733a2063616c6c20746f206e6f6e2d636f6e747261637400000060448201526064016107db565b5081611eaf565b611eaf8383611eb7565b949350505050565b815115611ec75781518083602001fd5b8060405162461bcd60e51b81526004016107db9190612e55565b508054611eed906129dd565b6000825580601f10611efd575050565b601f01602090049060005260206000209081019061087891905b80821115611f2b5760008155600101611f17565b5090565b6001600160a01b038116811461087857600080fd5b8035611f4f81611f2f565b919050565b60008083601f840112611f6657600080fd5b5081356001600160401b03811115611f7d57600080fd5b602083019150836020828501011115611a6757600080fd5b60008060008060008060008060c0898b031215611fb157600080fd5b8835611fbc81611f2f565b97506020890135611fcc81611f2f565b96506040890135611fdc81611f2f565b95506060890135945060808901356001600160401b0380821115611fff57600080fd5b61200b8c838d01611f54565b909650945060a08b013591508082111561202457600080fd5b506120318b828c01611f54565b999c989b5096995094979396929594505050565b6001600160e01b03198116811461087857600080fd5b60006020828403121561206d57600080fd5b813561089a81612045565b60008060008060006080868803121561209057600080fd5b853561209b81611f2f565b945060208601356120ab81611f2f565b93506040860135925060608601356001600160401b038111156120cd57600080fd5b6120d988828901611f54565b969995985093965092949392505050565b6000806000604084860312156120ff57600080fd5b8335925060208401356001600160401b0381111561211c57600080fd5b61212886828701611f54565b9497909650939450505050565b6020808252825182820181905260009190848201906040850190845b818110156121765783516001600160a01b031683529284019291840191600101612151565b50909695505050505050565b60006020828403121561219457600080fd5b813561089a81611f2f565b6000806000606084860312156121b457600080fd5b83356001600160401b038111156121ca57600080fd5b840161016081870312156121dd57600080fd5b95602085013595506040909401359392505050565b60008083601f84011261220457600080fd5b5081356001600160401b0381111561221b57600080fd5b6020830191508360208260051b8501011115611a6757600080fd5b6000806000806000806060878903121561224f57600080fd5b86356001600160401b038082111561226657600080fd5b6122728a838b016121f2565b9098509650602089013591508082111561228b57600080fd5b6122978a838b016121f2565b909650945060408901359150808211156122b057600080fd5b506122bd89828a016121f2565b979a9699509497509295939492505050565b634e487b7160e01b600052604160045260246000fd5b60405161016081016001600160401b0381118282101715612308576123086122cf565b60405290565b604051601f8201601f191681016001600160401b0381118282101715612336576123366122cf565b604052919050565b60006001600160401b03821115612357576123576122cf565b50601f01601f191660200190565b600082601f83011261237657600080fd5b81356123896123848261233e565b61230e565b81815284602083860101111561239e57600080fd5b816020850160208301376000918101602001919091529392505050565b600080604083850312156123ce57600080fd5b82356123d981611f2f565b915060208301356001600160401b038111156123f457600080fd5b61240085828601612365565b9150509250929050565b6000806040838503121561241d57600080fd5b823561242881611f2f565b9150602083013561243881611f2f565b809150509250929050565b6000806000806060858703121561245957600080fd5b843561246481611f2f565b93506020850135925060408501356001600160401b0381111561248657600080fd5b61249287828801611f54565b95989497509550505050565b60008060008060008060008060a0898b0312156124ba57600080fd5b88356124c581611f2f565b975060208901356124d581611f2f565b965060408901356001600160401b03808211156124f157600080fd5b6124fd8c838d016121f2565b909850965060608b013591508082111561251657600080fd5b6125228c838d016121f2565b909650945060808b013591508082111561202457600080fd5b60006020828403121561254d57600080fd5b81356001600160401b0381111561256357600080fd5b611eaf84828501612365565b60008060008060008060a0878903121561258857600080fd5b863561259381611f2f565b955060208701356125a381611f2f565b9450604087013593506060870135925060808701356001600160401b038111156125cc57600080fd5b6122bd89828a01611f54565b600080858511156125e857600080fd5b838611156125f557600080fd5b5050820193919092039150565b6bffffffffffffffffffffffff1981358181169160148510156116d55760149490940360031b84901b1690921692915050565b60005b83811015612650578181015183820152602001612638565b50506000910152565b60008151808452612671816020860160208601612635565b601f01601f19169290920160200192915050565b828152604060208201526000611eaf6040830184612659565b6000602082840312156126b057600080fd5b815161089a81612045565b634e487b7160e01b600052603260045260246000fd5b634e487b7160e01b600052601160045260246000fd5b6000600182016126f9576126f96126d1565b5060010190565b6020808252602c908201527f46756e6374696f6e206d7573742062652063616c6c6564207468726f7567682060408201526b19195b1959d85d1958d85b1b60a21b606082015260800190565b6020808252602c908201527f46756e6374696f6e206d7573742062652063616c6c6564207468726f7567682060408201526b6163746976652070726f787960a01b606082015260800190565b6020808252601690820152752bb0b63632ba1d1024b73b30b634b21021b0b63632b960511b604082015260600190565b6000808335601e198436030181126127df57600080fd5b8301803591506001600160401b038211156127f957600080fd5b602001915036819003821315611a6757600080fd5b60006020828403121561282057600080fd5b5051919050565b6000806040838503121561283a57600080fd5b825161284581611f2f565b60208401519092506001600160401b0381111561286157600080fd5b8301601f8101851361287257600080fd5b80516128806123848261233e565b81815286602083850101111561289557600080fd5b6128a6826020830160208601612635565b8093505050509250929050565b600082516128c5818460208701612635565b9190910192915050565b600061016082360312156128e257600080fd5b6128ea6122e5565b6128f383611f44565b81526020830135602082015260408301356001600160401b038082111561291957600080fd5b61292536838701612365565b6040840152606085013591508082111561293e57600080fd5b61294a36838701612365565b60608401526080850135608084015260a085013560a084015260c085013560c084015260e085013560e0840152610100915081850135828401526101209150818501358181111561299a57600080fd5b6129a636828801612365565b8385015250610140915081850135818111156129c157600080fd5b6129cd36828801612365565b8385015250505080915050919050565b600181811c908216806129f157607f821691505b602082108103612a1157634e487b7160e01b600052602260045260246000fd5b50919050565b601f82111561128b57600081815260208120601f850160051c81016020861015612a3e5750805b601f850160051c820191505b818110156109fa57828155600101612a4a565b81516001600160401b03811115612a7657612a766122cf565b612a8a81612a8484546129dd565b84612a17565b602080601f831160018114612abf5760008415612aa75750858301515b600019600386901b1c1916600185901b1785556109fa565b600085815260208120601f198616915b82811015612aee57888601518255948401946001909101908401612acf565b5085821015612b0c5787850151600019600388901b60f8161c191681555b5050505050600190811b01905550565b6000808335601e19843603018112612b3357600080fd5b83016020810192503590506001600160401b03811115612b5257600080fd5b803603821315611a6757600080fd5b81835281816020850137506000828201602090810191909152601f909101601f19169091010190565b60408152612bab60408201612b9e85611f44565b6001600160a01b03169052565b602083013560608201526000612bc46040850185612b1c565b610160806080860152612bdc6101a086018385612b61565b9250612beb6060880188612b1c565b9250603f19808786030160a0880152612c05858584612b61565b9450608089013560c088015260a089013560e0880152610100935060c089013584880152610120915060e089013582880152610140848a013581890152612c4e838b018b612b1c565b95509250818887030184890152612c66868685612b61565b9550612c74818b018b612b1c565b955093505080878603016101808801525050612c91838383612b61565b93505050508260208301529392505050565b60008154612cb0816129dd565b808552602060018381168015612ccd5760018114612ce757612d15565b60ff1985168884015283151560051b880183019550612d15565b866000528260002060005b85811015612d0d5781548a8201860152908301908401612cf2565b890184019650505b505050505092915050565b60408152612d3c60408201612b9e85546001600160a01b031690565b600183015460608201526000610160806080840152612d626101a0840160028701612ca3565b603f19808583030160a0860152612d7c8260038901612ca3565b9150600487015460c0860152600587015460e0860152600687015461010086015260078701546101208601526008870154610140860152808583030183860152612dc98260098901612ca3565b925080858403016101808601525050612de581600a8701612ca3565b9150508260208301529392505050565b606081526000612e086060830186612659565b6001600160a01b0394851660208401529290931660409091015292915050565b600081612e3757612e376126d1565b506000190190565b634e487b7160e01b600052602160045260246000fd5b60208152600061089a602083018461265956fe360894a13ba1a3210667c828492db98dca3e2076cc3735a920a3ca505d382bbc416464726573733a206c6f772d6c6576656c2064656c65676174652063616c6c206661696c6564a264697066735822122026694dc8d8e86ecc3f1ce9be87f680401a442223576190a6ee141d336fd8191364736f6c63430008130033",
    "linkReferences": {}
  },
  "methodIdentifiers": {
    "createWallet(bytes,bytes32)": "a1aafc9e",
    "getWalletAddress(bytes32)": "206d54db",
    "getWalletCreationCodeHash()": "6bb554df",
    "walletImplement()": "97a654bd"
  },
  "id": 66
}