{
  "abi": [
    {
      "inputs": [
        {
          "internalType": "bytes",
          "name": "code",
          "type": "bytes"
        }
      ],
      "name": "create",
      "outputs": [
        {
          "internalType": "address",
          "name": "addr",
          "type": "address"
        }
      ],
      "stateMutability": "nonpayable",
      "type": "function"
    },
    {
      "inputs": [
        {
          "internalType": "bytes",
          "name": "code",
          "type": "bytes"
        },
        {
          "internalType": "bytes32",
          "name": "salt",
          "type": "bytes32"
        }
      ],
      "name": "create2",
      "outputs": [
        {
          "internalType": "address",
          "name": "addr",
          "type": "address"
        }
      ],
      "stateMutability": "nonpayable",
      "type": "function"
    }
  ],
  "bytecode": {
    "object": "0x608060405234801561001057600080fd5b50610214806100206000396000f3fe608060405234801561001057600080fd5b50600436106100365760003560e01c80638c0b8db21461003b578063cf5ba53f1461006a575b600080fd5b61004e61004936600461015c565b61007d565b6040516001600160a01b03909116815260200160405180910390f35b61004e6100783660046101a1565b61009c565b6000818351602085016000f59050803b61009657600080fd5b92915050565b60008151602083016000f09050803b6100b457600080fd5b919050565b634e487b7160e01b600052604160045260246000fd5b600082601f8301126100e057600080fd5b813567ffffffffffffffff808211156100fb576100fb6100b9565b604051601f8301601f19908116603f01168101908282118183101715610123576101236100b9565b8160405283815286602085880101111561013c57600080fd5b836020870160208301376000602085830101528094505050505092915050565b6000806040838503121561016f57600080fd5b823567ffffffffffffffff81111561018657600080fd5b610192858286016100cf565b95602094909401359450505050565b6000602082840312156101b357600080fd5b813567ffffffffffffffff8111156101ca57600080fd5b6101d6848285016100cf565b94935050505056fea2646970667358221220c6ba6c8f5f43a2af5c17b4751bd65bfb4832771416dc5b6f0639a993cc76140564736f6c63430008130033",
    "linkReferences": {}
  },
  "methodIdentifiers": {
    "create(bytes)": "cf5ba53f",
    "create2(bytes,bytes32)": "8c0b8db2"
  },
  "id": 67
}