{
  "abi": [
    {
      "anonymous": false,
      "inputs": [
        {
          "indexed": true,
          "internalType": "address",
          "name": "user",
          "type": "address"
        },
        {
          "indexed": true,
          "internalType": "bytes32",
          "name": "keyId",
          "type": "bytes32"
        },
        {
          "indexed": false,
          "internalType": "uint256",
          "name": "x",
          "type": "uint256"
        },
        {
          "indexed": false,
          "internalType": "uint256",
          "name": "y",
          "type": "uint256"
        }
      ],
      "name": "PasskeyRegistered",
      "type": "event"
    },
    {
      "anonymous": false,
      "inputs": [
        {
          "indexed": true,
          "internalType": "address",
          "name": "user",
          "type": "address"
        },
        {
          "indexed": true,
          "internalType": "bytes32",
          "name": "keyId",
          "type": "bytes32"
        }
      ],
      "name": "PasskeyRemoved",
      "type": "event"
    },
    {
      "inputs": [
        {
          "components": [
            {
              "internalType": "address",
              "name": "sender",
              "type": "address"
            },
            {
              "internalType": "uint256",
              "name": "nonce",
              "type": "uint256"
            },
            {
              "internalType": "bytes",
              "name": "initCode",
              "type": "bytes"
            },
            {
              "internalType": "bytes",
              "name": "callData",
              "type": "bytes"
            },
            {
              "internalType": "uint256",
              "name": "callGasLimit",
              "type": "uint256"
            },
            {
              "internalType": "uint256",
              "name": "verificationGasLimit",
              "type": "uint256"
            },
            {
              "internalType": "uint256",
              "name": "preVerificationGas",
              "type": "uint256"
            },
            {
              "internalType": "uint256",
              "name": "maxFeePerGas",
              "type": "uint256"
            },
            {
              "internalType": "uint256",
              "name": "maxPriorityFeePerGas",
              "type": "uint256"
            },
            {
              "internalType": "bytes",
              "name": "paymasterAndData",
              "type": "bytes"
            },
            {
              "internalType": "bytes",
              "name": "signature",
              "type": "bytes"
            }
          ],
          "internalType": "struct UserOperation",
          "name": "",
          "type": "tuple"
        },
        {
          "internalType": "bytes32",
          "name": "",
          "type": "bytes32"
        }
      ],
      "name": "callback",
      "outputs": [],
      "stateMutability": "nonpayable",
      "type": "function"
    },
    {
      "inputs": [
        {
          "internalType": "address",
          "name": "user",
          "type": "address"
        },
        {
          "internalType": "bytes32",
          "name": "keyId",
          "type": "bytes32"
        }
      ],
      "name": "getPublicKey",
      "outputs": [
        {
          "components": [
            {
              "internalType": "uint256",
              "name": "x",
              "type": "uint256"
            },
            {
              "internalType": "uint256",
              "name": "y",
              "type": "uint256"
            }
          ],
          "internalType": "struct PasskeyModule.PublicKey",
          "name": "",
          "type": "tuple"
        }
      ],
      "stateMutability": "view",
      "type": "function"
    },
    {
      "inputs": [
        {
          "internalType": "bytes32",
          "name": "keyId",
          "type": "bytes32"
        }
      ],
      "name": "getWallet",
      "outputs": [
        {
          "internalType": "address",
          "name": "",
          "type": "address"
        }
      ],
      "stateMutability": "view",
      "type": "function"
    },
    {
      "inputs": [
        {
          "internalType": "bytes32",
          "name": "digest",
          "type": "bytes32"
        },
        {
          "internalType": "bytes",
          "name": "signature",
          "type": "bytes"
        }
      ],
      "name": "isValidSignature",
      "outputs": [
        {
          "internalType": "bytes4",
          "name": "magicValue",
          "type": "bytes4"
        }
      ],
      "stateMutability": "view",
      "type": "function"
    },
    {
      "inputs": [
        {
          "internalType": "bytes32",
          "name": "keyId",
          "type": "bytes32"
        },
        {
          "internalType": "uint256",
          "name": "x",
          "type": "uint256"
        },
        {
          "internalType": "uint256",
          "name": "y",
          "type": "uint256"
        }
      ],
      "name": "registerPublicKey",
      "outputs": [],
      "stateMutability": "nonpayable",
      "type": "function"
    },
    {
      "inputs": [
        {
          "internalType": "bytes32",
          "name": "keyId",
          "type": "bytes32"
        }
      ],
      "name": "removePublicKey",
      "outputs": [],
      "stateMutability": "nonpayable",
      "type": "function"
    },
    {
      "inputs": [
        {
          "components": [
            {
              "internalType": "address",
              "name": "sender",
              "type": "address"
            },
            {
              "internalType": "uint256",
              "name": "nonce",
              "type": "uint256"
            },
            {
              "internalType": "bytes",
              "name": "initCode",
              "type": "bytes"
            },
            {
              "internalType": "bytes",
              "name": "callData",
              "type": "bytes"
            },
            {
              "internalType": "uint256",
              "name": "callGasLimit",
              "type": "uint256"
            },
            {
              "internalType": "uint256",
              "name": "verificationGasLimit",
              "type": "uint256"
            },
            {
              "internalType": "uint256",
              "name": "preVerificationGas",
              "type": "uint256"
            },
            {
              "internalType": "uint256",
              "name": "maxFeePerGas",
              "type": "uint256"
            },
            {
              "internalType": "uint256",
              "name": "maxPriorityFeePerGas",
              "type": "uint256"
            },
            {
              "internalType": "bytes",
              "name": "paymasterAndData",
              "type": "bytes"
            },
            {
              "internalType": "bytes",
              "name": "signature",
              "type": "bytes"
            }
          ],
          "internalType": "struct UserOperation",
          "name": "userOp",
          "type": "tuple"
        },
        {
          "internalType": "bytes32",
          "name": "digest",
          "type": "bytes32"
        }
      ],
      "name": "validateUserOp",
      "outputs": [
        {
          "internalType": "uint256",
          "name": "validationData",
          "type": "uint256"
        }
      ],
      "stateMutability": "view",
      "type": "function"
    }
  ],
  "bytecode": {
    "object": "0x608060405234801561001057600080fd5b50611dca806100206000396000f3fe608060405234801561001057600080fd5b506004361061007d5760003560e01c80637cefdd5d1161005b5780637cefdd5d146101095780638f3285f514610137578063dee30c971461014a578063fff35b721461015c57600080fd5b80631626ba7e146100825780633082ab5b146100b3578063789d392a146100c8575b600080fd5b6100956100903660046117e7565b61017d565b6040516001600160e01b031990911681526020015b60405180910390f35b6100c66100c1366004611863565b6101a8565b005b6100f16100d636600461188f565b6000908152600160205260409020546001600160a01b031690565b6040516001600160a01b0390911681526020016100aa565b61011c6101173660046118a8565b6102a9565b604080518251815260209283015192810192909252016100aa565b6100c661014536600461188f565b6102f4565b6100c66101583660046118e0565b5050565b61016f61016a3660046118e0565b6103bb565b6040519081526020016100aa565b600061018a8484846103ea565b1561019d5750630b135d3f60e11b6101a1565b5060005b9392505050565b6000838152600160205260409020546001600160a01b0316156102225760405162461bcd60e51b815260206004820152602760248201527f506173736b65794d6f64756c653a206b6579496420616c7265616479207265676044820152661a5cdd195c995960ca1b60648201526084015b60405180910390fd5b6040805180820182528381526020808201848152336000818152808452858120898252845285812094518555915160019485015592825283902080546001600160a01b03191683179055825185815290810184905285927fe6813de69096f2d13f196130a730ba346707680ee5fabe9a6001c48b2e2a395a910160405180910390a3505050565b604080518082018252600080825260209182018190526001600160a01b0385168152808252828120848252825282902082518084019093528054835260010154908201525b92915050565b6000818152600160205260409020546001600160a01b0316331461035a5760405162461bcd60e51b815260206004820152601b60248201527f506173736b65794d6f64756c653a20556e617574686f72697a656400000000006044820152606401610219565b336000818152602081815260408083208584528252808320838155600190810184905590915280822080546001600160a01b0319169055518392917f2d7aa68d7c6e29815818dcd0deea0f49ceac033240ac3b69b6a6734c23e5843d91a350565b60006103d4826103cf61014086018661191d565b6103ea565b156103e1575060006102ee565b50600192915050565b6000806103fa601482858761196b565b61040391611995565b60601c90503081146104195760009150506101a1565b600080610429856014818961196b565b8101906104369190611a62565b33600090815260208181526040808320858452825291829020825180840190935280548084526001909101549183019190915292945090925090158061047e57506020810151155b156104905760009450505050506101a1565b6000828060200190518101906104a69190611b55565b90506104df896040516020016104be91815260200190565b604051602081830303815290604052600083856000015186602001516104ec565b9998505050505050505050565b60006105076002600080516020611d35833981519152611c27565b8460a0015111156105355760a084015161052f90600080516020611d35833981519152611c49565b60a08501525b60608401516000906105589061054c816015611c5c565b6020880151919061086c565b90507fff1a2a9176d650e4a99dedb58f1793003935130579fe17b5a3f698ac5b00e634818051906020012014610592576000915050610863565b600061059d886108d2565b6040516020016105ad9190611c6f565b604051602081830303815290604052905060006105e58760400151835189604001516105d99190611c5c565b60208a0151919061086c565b905081805190602001208180519060200120146106085760009350505050610863565b86518051600160f81b918291602090811061062557610625611cb0565b0160200151166001600160f81b031916146106465760009350505050610863565b87801561067e575086518051600160fa1b918291602090811061066b5761066b611cb0565b0160200151166001600160f81b03191614155b1561068f5760009350505050610863565b6000600288602001516040516106a59190611cc6565b602060405180830381855afa1580156106c2573d6000803e3d6000fd5b5050506040513d601f19601f820116820180604052508101906106e59190611ce2565b905060006002896000015183604051602001610702929190611cfb565b60408051601f198184030181529082905261071c91611cc6565b602060405180830381855afa158015610739573d6000803e3d6000fd5b5050506040513d601f19601f8201168201806040525081019061075c9190611ce2565b6080808b015160a0808d015160408051602081018790529081019390935260608301529181018b905290810189905290915060009060c00160405160208183030381529060405290506000806101006001600160a01b0316836040516107c29190611cc6565b600060405180830381855afa9150503d80600081146107fd576040519150601f19603f3d011682016040523d82523d6000602084013e610802565b606091505b508051919350915015158280156108165750805b15610842578180602001905181019061082f9190611ce2565b6001149950505050505050505050610863565b610857858e608001518f60a001518f8f6108f8565b99505050505050505050505b95945050505050565b6060835182811161087b578092505b838111610886578093505b50818310156101a1575060405182820380825293830193601f19601f820181165b86810151848201528101806108a75750600083830160200152603f9091011681016040529392505050565b60606102ee82604051806060016040528060408152602001611d556040913960006109db565b60008415806109155750600080516020611d358339815191528510155b8061091e575083155b806109375750600080516020611d358339815191528410155b1561094457506000610863565b61094e8383610b5b565b61095a57506000610863565b600061096585610c56565b90506000600080516020611d3583398151915282890990506000600080516020611d35833981519152838909905060006109a187878585610cc8565b9050600080516020611d358339815191526109ca8a600080516020611d35833981519152611c49565b8208159a9950505050505050505050565b606083516000036109fb57506040805160208101909152600081526101a1565b600082610a2c57600385516004610a129190611d1d565b610a1d906002611c5c565b610a279190611c27565b610a51565b600385516002610a3c9190611c5c565b610a469190611c27565b610a51906004611d1d565b905060008167ffffffffffffffff811115610a6e57610a6e6119ca565b6040519080825280601f01601f191660200182016040528015610a98576020820181803683370190505b50905060018501602082018788518901602081018051600082525b82841015610b0e576003840193508351603f8160121c168701518653600186019550603f81600c1c168701518653600186019550603f8160061c168701518653600186019550603f8116870151865350600185019450610ab3565b905250508515610b4f57600388510660018114610b325760028114610b4557610b4d565b603d6001830353603d6002830353610b4d565b603d60018303535b505b50909695505050505050565b6000600160601b63ffffffff60c01b031983101580610b885750600160601b63ffffffff60c01b03198210155b80610b9a575082158015610b9a575081155b15610ba7575060006102ee565b6000600160601b63ffffffff60c01b031983840990506000600160601b63ffffffff60c01b0319807fffffffff00000001000000000000000000000000fffffffffffffffffffffffc8709600160601b63ffffffff60c01b031987600160601b63ffffffff60c01b0319898a0909089050600160601b63ffffffff60c01b03197f5ac635d8aa3a93e7b3ebbd55769886bc651d06b0cc53b0f63bce3c3e27d2604b820891909114949350505050565b600060405160208152602080820152602060408201528260608201527fffffffff00000000ffffffffffffffffbce6faada7179e84f3b9cac2fc63254f6080820152600080516020611d3583398151915260a082015260208160c0836005600019fa610cc157600080fd5b5192915050565b600080808060ff818088158015610cdd575087155b15610cf157600096505050505050506113a9565b610d3d7f6b17d1f2e12c4247f8bce6e563a440f277037d812deb33a0f4a13945d898c2967f4fe342e2fe1a7f9b8ee7eb4a7c0f9e162bce33576b315ececbb6406837bf51f58d8d6113b1565b909250905081158015610d4e575080155b15610d9b57600080516020611d3583398151915288600080516020611d35833981519152038a0898506000975088158015610d87575087155b15610d9b57600096505050505050506113a9565b600189841c16600189851c1660011b015b80610dce5760018403935060018a851c1660018a861c1660011b019050610dac565b50600189841c16600189851c1660011b01955060018603610e30577f6b17d1f2e12c4247f8bce6e563a440f277037d812deb33a0f4a13945d898c29696507f4fe342e2fe1a7f9b8ee7eb4a7c0f9e162bce33576b315ececbb6406837bf51f593505b60028603610e3f578a96508993505b60038603610e4e578196508093505b60018303925060019550600194505b82600019111561133257600160601b63ffffffff60c01b031984600209600160601b63ffffffff60c01b0319818209600160601b63ffffffff60c01b0319818a09600160601b63ffffffff60c01b03198284099250600160601b63ffffffff60c01b031980600160601b63ffffffff60c01b03198b8d08600160601b63ffffffff60c01b03198c600160601b63ffffffff60c01b0319038e0809600309600160601b63ffffffff60c01b03198985099850600160601b63ffffffff60c01b03198a84099950600160601b63ffffffff60c01b031980836002600160601b0363ffffffff60c01b031909600160601b63ffffffff60c01b0319838409089a50600160601b63ffffffff60c01b03198083600160601b63ffffffff60c01b0319038d0882099250600160601b63ffffffff60c01b031983600160601b63ffffffff60c01b03198a870908975060018d881c1660018d891c1660011b01905080610fda5787600160601b63ffffffff60c01b031903975050505050611327565b60018103611029577f6b17d1f2e12c4247f8bce6e563a440f277037d812deb33a0f4a13945d898c29693507f4fe342e2fe1a7f9b8ee7eb4a7c0f9e162bce33576b315ececbb6406837bf51f592505b60028103611038578e93508d92505b60038103611047578593508492505b8961106057509198506001975087965094506113279050565b600160601b63ffffffff60c01b031988600160601b63ffffffff60c01b03198b860908600160601b63ffffffff60c01b03198c600160601b63ffffffff60c01b031903600160601b63ffffffff60c01b03198d880908935080611219578361121957600160601b63ffffffff60c01b0319896002600160601b0363ffffffff60c01b0319099450600160601b63ffffffff60c01b03198586099350600160601b63ffffffff60c01b0319848d099250600160601b63ffffffff60c01b03198486099450600160601b63ffffffff60c01b0319808c600160601b63ffffffff60c01b0319038e08600160601b63ffffffff60c01b03198d8f08099050600160601b63ffffffff60c01b0319816003099150600160601b63ffffffff60c01b03198a86099950600160601b63ffffffff60c01b03198b85099a50600160601b63ffffffff60c01b031980846002600160601b0363ffffffff60c01b031909600160601b63ffffffff60c01b0319848509089b50600160601b63ffffffff60c01b0319808d600160601b63ffffffff60c01b031903850883099350600160601b63ffffffff60c01b0319808a8709850898505050505050611327565b600160601b63ffffffff60c01b03198485099150600160601b63ffffffff60c01b0319848309600160601b63ffffffff60c01b0319838d099b50600160601b63ffffffff60c01b0319818c099a50600160601b63ffffffff60c01b0319838e09600160601b63ffffffff60c01b031980826002600160601b0363ffffffff60c01b031909600160601b63ffffffff60c01b031984600160601b63ffffffff60c01b031903600160601b63ffffffff60c01b031987880908089350600160601b63ffffffff60c01b031980838d09600160601b63ffffffff60c01b031985600160601b63ffffffff60c01b031988600160601b63ffffffff60c01b031903860809089a50505050809a50505050505b600183039250610e5d565b60405186606082015260208152602080820152602060408201526002600160601b0363ffffffff60c01b03196080820152600160601b63ffffffff60c01b031960a082015260208160c0836005600019fa61138c57600080fd5b600160601b63ffffffff60c01b0319815189099750505050505050505b949350505050565b6000808080866113c8578585935093505050611436565b846113da578787935093505050611436565b85881480156113e857508487145b15611409576113fa888860018061143f565b929a5090985092509050611423565b61141888886001808a8a61159a565b929a50909850925090505b61142f8888848461171e565b9350935050505b94509492505050565b600080600080600160601b63ffffffff60c01b0319876002099350600160601b63ffffffff60c01b03198485099150600160601b63ffffffff60c01b03198289099050600160601b63ffffffff60c01b03198285099250600160601b63ffffffff60c01b03198683099150600160601b63ffffffff60c01b031980600160601b63ffffffff60c01b0319888b08600160601b63ffffffff60c01b031989600160601b63ffffffff60c01b0319038c08096003099550600160601b63ffffffff60c01b031980826002600160601b0363ffffffff60c01b031909600160601b63ffffffff60c01b0319888909089350600160601b63ffffffff60c01b03198085600160601b63ffffffff60c01b031903830887099750600160601b63ffffffff60c01b03198584099050600160601b63ffffffff60c01b031980888509600160601b63ffffffff60c01b03190389089250945094509450949050565b600080600080886000036115b957508492508391506001905080611711565b600160601b63ffffffff60c01b0319988903988981898809089450600160601b63ffffffff60c01b03198a600160601b63ffffffff60c01b031903600160601b63ffffffff60c01b03198a8909089550600160601b63ffffffff60c01b03198687099350600160601b63ffffffff60c01b03198685099250600160601b63ffffffff60c01b03198489099150600160601b63ffffffff60c01b03198388099050600160601b63ffffffff60c01b0319848b099750600160601b63ffffffff60c01b031980896002600160601b0363ffffffff60c01b031909600160601b63ffffffff60c01b031985600160601b63ffffffff60c01b031903600160601b63ffffffff60c01b0319898a0908089350600160601b63ffffffff60c01b031980848b09600160601b63ffffffff60c01b031987600160601b63ffffffff60c01b031988600160601b63ffffffff60c01b0319038d08090892505b9650965096509692505050565b600080600061172c8461178b565b9050600160601b63ffffffff60c01b031981870991506000600160601b63ffffffff60c01b03198287099050600160601b63ffffffff60c01b03198182099150600160601b63ffffffff60c01b03198289099350505094509492505050565b600060405160208152602080820152602060408201528260608201526002600160601b0363ffffffff60c01b03196080820152600160601b63ffffffff60c01b031960a082015260208160c0836005600019fa610cc157600080fd5b6000806000604084860312156117fc57600080fd5b83359250602084013567ffffffffffffffff8082111561181b57600080fd5b818601915086601f83011261182f57600080fd5b81358181111561183e57600080fd5b87602082850101111561185057600080fd5b6020830194508093505050509250925092565b60008060006060848603121561187857600080fd5b505081359360208301359350604090920135919050565b6000602082840312156118a157600080fd5b5035919050565b600080604083850312156118bb57600080fd5b82356001600160a01b03811681146118d257600080fd5b946020939093013593505050565b600080604083850312156118f357600080fd5b823567ffffffffffffffff81111561190a57600080fd5b830161016081860312156118d257600080fd5b6000808335601e1984360301811261193457600080fd5b83018035915067ffffffffffffffff82111561194f57600080fd5b60200191503681900382131561196457600080fd5b9250929050565b6000808585111561197b57600080fd5b8386111561198857600080fd5b5050820193919092039150565b6bffffffffffffffffffffffff1981358181169160148510156119c25780818660140360031b1b83161692505b505092915050565b634e487b7160e01b600052604160045260246000fd5b60405160c0810167ffffffffffffffff81118282101715611a0357611a036119ca565b60405290565b604051601f8201601f1916810167ffffffffffffffff81118282101715611a3257611a326119ca565b604052919050565b600067ffffffffffffffff821115611a5457611a546119ca565b50601f01601f191660200190565b60008060408385031215611a7557600080fd5b82359150602083013567ffffffffffffffff811115611a9357600080fd5b8301601f81018513611aa457600080fd5b8035611ab7611ab282611a3a565b611a09565b818152866020838501011115611acc57600080fd5b816020840160208301376000602083830101528093505050509250929050565b60005b83811015611b07578181015183820152602001611aef565b50506000910152565b600082601f830112611b2157600080fd5b8151611b2f611ab282611a3a565b818152846020838601011115611b4457600080fd5b6113a9826020830160208701611aec565b600060208284031215611b6757600080fd5b815167ffffffffffffffff80821115611b7f57600080fd5b9083019060c08286031215611b9357600080fd5b611b9b6119e0565b825182811115611baa57600080fd5b611bb687828601611b10565b825250602083015182811115611bcb57600080fd5b611bd787828601611b10565b60208301525060408301516040820152606083015160608201526080830151608082015260a083015160a082015280935050505092915050565b634e487b7160e01b600052601160045260246000fd5b600082611c4457634e487b7160e01b600052601260045260246000fd5b500490565b818103818111156102ee576102ee611c11565b808201808211156102ee576102ee611c11565b6c1131b430b63632b733b2911d1160991b81528151600090611c9881600d850160208701611aec565b601160f91b600d939091019283015250600e01919050565b634e487b7160e01b600052603260045260246000fd5b60008251611cd8818460208701611aec565b9190910192915050565b600060208284031215611cf457600080fd5b5051919050565b60008351611d0d818460208801611aec565b9190910191825250602001919050565b80820281158282048414176102ee576102ee611c1156feffffffff00000000ffffffffffffffffbce6faada7179e84f3b9cac2fc6325514142434445464748494a4b4c4d4e4f505152535455565758595a6162636465666768696a6b6c6d6e6f707172737475767778797a303132333435363738392d5fa26469706673582212208facdb19e64d814204d47bec83faf2b4e814e094abfffc0284a87970a34b71bb64736f6c63430008130033",
    "linkReferences": {}
  },
  "methodIdentifiers": {
    "callback((address,uint256,bytes,bytes,uint256,uint256,uint256,uint256,uint256,bytes,bytes),bytes32)": "dee30c97",
    "getPublicKey(address,bytes32)": "7cefdd5d",
    "getWallet(bytes32)": "789d392a",
    "isValidSignature(bytes32,bytes)": "1626ba7e",
    "registerPublicKey(bytes32,uint256,uint256)": "3082ab5b",
    "removePublicKey(bytes32)": "8f3285f5",
    "validateUserOp((address,uint256,bytes,bytes,uint256,uint256,uint256,uint256,uint256,bytes,bytes),bytes32)": "fff35b72"
  },
  "id": 80
}