{
  "abi": [
    {
      "anonymous": false,
      "inputs": [
        {
          "indexed": true,
          "internalType": "address",
          "name": "user",
          "type": "address"
        },
        {
          "indexed": true,
          "internalType": "bytes32",
          "name": "keyId",
          "type": "bytes32"
        },
        {
          "indexed": false,
          "internalType": "uint256",
          "name": "x",
          "type": "uint256"
        },
        {
          "indexed": false,
          "internalType": "uint256",
          "name": "y",
          "type": "uint256"
        }
      ],
      "name": "PasskeyRegistered",
      "type": "event"
    },
    {
      "anonymous": false,
      "inputs": [
        {
          "indexed": true,
          "internalType": "address",
          "name": "user",
          "type": "address"
        },
        {
          "indexed": true,
          "internalType": "bytes32",
          "name": "keyId",
          "type": "bytes32"
        }
      ],
      "name": "PasskeyRemoved",
      "type": "event"
    },
    {
      "inputs": [
        {
          "components": [
            {
              "internalType": "address",
              "name": "sender",
              "type": "address"
            },
            {
              "internalType": "uint256",
              "name": "nonce",
              "type": "uint256"
            },
            {
              "internalType": "bytes",
              "name": "initCode",
              "type": "bytes"
            },
            {
              "internalType": "bytes",
              "name": "callData",
              "type": "bytes"
            },
            {
              "internalType": "uint256",
              "name": "callGasLimit",
              "type": "uint256"
            },
            {
              "internalType": "uint256",
              "name": "verificationGasLimit",
              "type": "uint256"
            },
            {
              "internalType": "uint256",
              "name": "preVerificationGas",
              "type": "uint256"
            },
            {
              "internalType": "uint256",
              "name": "maxFeePerGas",
              "type": "uint256"
            },
            {
              "internalType": "uint256",
              "name": "maxPriorityFeePerGas",
              "type": "uint256"
            },
            {
              "internalType": "bytes",
              "name": "paymasterAndData",
              "type": "bytes"
            },
            {
              "internalType": "bytes",
              "name": "signature",
              "type": "bytes"
            }
          ],
          "internalType": "struct UserOperation",
          "name": "",
          "type": "tuple"
        },
        {
          "internalType": "bytes32",
          "name": "",
          "type": "bytes32"
        }
      ],
      "name": "callback",
      "outputs": [],
      "stateMutability": "nonpayable",
      "type": "function"
    },
    {
      "inputs": [
        {
          "internalType": "address",
          "name": "user",
          "type": "address"
        },
        {
          "internalType": "bytes32",
          "name": "keyId",
          "type": "bytes32"
        }
      ],
      "name": "getPublicKey",
      "outputs": [
        {
          "components": [
            {
              "internalType": "uint256",
              "name": "x",
              "type": "uint256"
            },
            {
              "internalType": "uint256",
              "name": "y",
              "type": "uint256"
            }
          ],
          "internalType": "struct PasskeyModule.PublicKey",
          "name": "",
          "type": "tuple"
        }
      ],
      "stateMutability": "view",
      "type": "function"
    },
    {
      "inputs": [
        {
          "internalType": "bytes32",
          "name": "digest",
          "type": "bytes32"
        },
        {
          "internalType": "bytes",
          "name": "signature",
          "type": "bytes"
        }
      ],
      "name": "isValidSignature",
      "outputs": [
        {
          "internalType": "bytes4",
          "name": "magicValue",
          "type": "bytes4"
        }
      ],
      "stateMutability": "view",
      "type": "function"
    },
    {
      "inputs": [
        {
          "internalType": "bytes32",
          "name": "keyId",
          "type": "bytes32"
        },
        {
          "internalType": "uint256",
          "name": "x",
          "type": "uint256"
        },
        {
          "internalType": "uint256",
          "name": "y",
          "type": "uint256"
        }
      ],
      "name": "registerPublicKey",
      "outputs": [],
      "stateMutability": "nonpayable",
      "type": "function"
    },
    {
      "inputs": [
        {
          "internalType": "bytes32",
          "name": "keyId",
          "type": "bytes32"
        }
      ],
      "name": "removePublicKey",
      "outputs": [],
      "stateMutability": "nonpayable",
      "type": "function"
    },
    {
      "inputs": [
        {
          "components": [
            {
              "internalType": "address",
              "name": "sender",
              "type": "address"
            },
            {
              "internalType": "uint256",
              "name": "nonce",
              "type": "uint256"
            },
            {
              "internalType": "bytes",
              "name": "initCode",
              "type": "bytes"
            },
            {
              "internalType": "bytes",
              "name": "callData",
              "type": "bytes"
            },
            {
              "internalType": "uint256",
              "name": "callGasLimit",
              "type": "uint256"
            },
            {
              "internalType": "uint256",
              "name": "verificationGasLimit",
              "type": "uint256"
            },
            {
              "internalType": "uint256",
              "name": "preVerificationGas",
              "type": "uint256"
            },
            {
              "internalType": "uint256",
              "name": "maxFeePerGas",
              "type": "uint256"
            },
            {
              "internalType": "uint256",
              "name": "maxPriorityFeePerGas",
              "type": "uint256"
            },
            {
              "internalType": "bytes",
              "name": "paymasterAndData",
              "type": "bytes"
            },
            {
              "internalType": "bytes",
              "name": "signature",
              "type": "bytes"
            }
          ],
          "internalType": "struct UserOperation",
          "name": "userOp",
          "type": "tuple"
        },
        {
          "internalType": "bytes32",
          "name": "digest",
          "type": "bytes32"
        }
      ],
      "name": "validateUserOp",
      "outputs": [
        {
          "internalType": "uint256",
          "name": "validationData",
          "type": "uint256"
        }
      ],
      "stateMutability": "view",
      "type": "function"
    }
  ],
  "bytecode": {
    "object": "0x608060405234801561001057600080fd5b50611c66806100206000396000f3fe608060405234801561001057600080fd5b50600436106100625760003560e01c80631626ba7e146100675780633082ab5b146100985780637cefdd5d146100ad5780638f3285f5146100db578063dee30c97146100ee578063fff35b7214610100575b600080fd5b61007a610075366004611683565b610121565b6040516001600160e01b031990911681526020015b60405180910390f35b6100ab6100a63660046116ff565b61014c565b005b6100c06100bb36600461172b565b6101c0565b6040805182518152602092830151928101929092520161008f565b6100ab6100e9366004611763565b61020b565b6100ab6100fc36600461177c565b5050565b61011361010e36600461177c565b610257565b60405190815260200161008f565b600061012e848484610286565b156101415750630b135d3f60e11b610145565b5060005b9392505050565b60408051808201825283815260208082018481523360008181528084528581208982528452859020935184559051600190930192909255825185815290810184905285927fe6813de69096f2d13f196130a730ba346707680ee5fabe9a6001c48b2e2a395a910160405180910390a3505050565b604080518082018252600080825260209182018190526001600160a01b0385168152808252828120848252825282902082518084019093528054835260010154908201525b92915050565b33600081815260208181526040808320858452909152808220828155600101829055518392917f2d7aa68d7c6e29815818dcd0deea0f49ceac033240ac3b69b6a6734c23e5843d91a350565b60006102708261026b6101408601866117b9565b610286565b1561027d57506000610205565b50600192915050565b6000806102966014828587611807565b61029f91611831565b60601c90503081146102b5576000915050610145565b6000806102c58560148189611807565b8101906102d291906118fe565b33600090815260208181526040808320858452825291829020825180840190935280548084526001909101549183019190915292945090925090158061031a57506020810151155b1561032c576000945050505050610145565b60008280602001905181019061034291906119f1565b905061037b8960405160200161035a91815260200190565b60405160208183030381529060405260008385600001518660200151610388565b9998505050505050505050565b60006103a36002600080516020611bd1833981519152611ac3565b8460a0015111156103d15760a08401516103cb90600080516020611bd1833981519152611ae5565b60a08501525b60608401516000906103f4906103e8816015611af8565b60208801519190610708565b90507fff1a2a9176d650e4a99dedb58f1793003935130579fe17b5a3f698ac5b00e63481805190602001201461042e5760009150506106ff565b60006104398861076e565b6040516020016104499190611b0b565b604051602081830303815290604052905060006104818760400151835189604001516104759190611af8565b60208a01519190610708565b905081805190602001208180519060200120146104a457600093505050506106ff565b86518051600160f81b91829160209081106104c1576104c1611b4c565b0160200151166001600160f81b031916146104e257600093505050506106ff565b87801561051a575086518051600160fa1b918291602090811061050757610507611b4c565b0160200151166001600160f81b03191614155b1561052b57600093505050506106ff565b6000600288602001516040516105419190611b62565b602060405180830381855afa15801561055e573d6000803e3d6000fd5b5050506040513d601f19601f820116820180604052508101906105819190611b7e565b90506000600289600001518360405160200161059e929190611b97565b60408051601f19818403018152908290526105b891611b62565b602060405180830381855afa1580156105d5573d6000803e3d6000fd5b5050506040513d601f19601f820116820180604052508101906105f89190611b7e565b6080808b015160a0808d015160408051602081018790529081019390935260608301529181018b905290810189905290915060009060c00160405160208183030381529060405290506000806101006001600160a01b03168360405161065e9190611b62565b600060405180830381855afa9150503d8060008114610699576040519150601f19603f3d011682016040523d82523d6000602084013e61069e565b606091505b508051919350915015158280156106b25750805b156106de57818060200190518101906106cb9190611b7e565b60011499505050505050505050506106ff565b6106f3858e608001518f60a001518f8f610794565b99505050505050505050505b95945050505050565b60608351828111610717578092505b838111610722578093505b5081831015610145575060405182820380825293830193601f19601f820181165b86810151848201528101806107435750600083830160200152603f9091011681016040529392505050565b606061020582604051806060016040528060408152602001611bf1604091396000610877565b60008415806107b15750600080516020611bd18339815191528510155b806107ba575083155b806107d35750600080516020611bd18339815191528410155b156107e0575060006106ff565b6107ea83836109f7565b6107f6575060006106ff565b600061080185610af2565b90506000600080516020611bd183398151915282890990506000600080516020611bd18339815191528389099050600061083d87878585610b64565b9050600080516020611bd18339815191526108668a600080516020611bd1833981519152611ae5565b8208159a9950505050505050505050565b606083516000036108975750604080516020810190915260008152610145565b6000826108c8576003855160046108ae9190611bb9565b6108b9906002611af8565b6108c39190611ac3565b6108ed565b6003855160026108d89190611af8565b6108e29190611ac3565b6108ed906004611bb9565b905060008167ffffffffffffffff81111561090a5761090a611866565b6040519080825280601f01601f191660200182016040528015610934576020820181803683370190505b50905060018501602082018788518901602081018051600082525b828410156109aa576003840193508351603f8160121c168701518653600186019550603f81600c1c168701518653600186019550603f8160061c168701518653600186019550603f811687015186535060018501945061094f565b9052505085156109eb576003885106600181146109ce57600281146109e1576109e9565b603d6001830353603d60028303536109e9565b603d60018303535b505b50909695505050505050565b6000600160601b63ffffffff60c01b031983101580610a245750600160601b63ffffffff60c01b03198210155b80610a36575082158015610a36575081155b15610a4357506000610205565b6000600160601b63ffffffff60c01b031983840990506000600160601b63ffffffff60c01b0319807fffffffff00000001000000000000000000000000fffffffffffffffffffffffc8709600160601b63ffffffff60c01b031987600160601b63ffffffff60c01b0319898a0909089050600160601b63ffffffff60c01b03197f5ac635d8aa3a93e7b3ebbd55769886bc651d06b0cc53b0f63bce3c3e27d2604b820891909114949350505050565b600060405160208152602080820152602060408201528260608201527fffffffff00000000ffffffffffffffffbce6faada7179e84f3b9cac2fc63254f6080820152600080516020611bd183398151915260a082015260208160c0836005600019fa610b5d57600080fd5b5192915050565b600080808060ff818088158015610b79575087155b15610b8d5760009650505050505050611245565b610bd97f6b17d1f2e12c4247f8bce6e563a440f277037d812deb33a0f4a13945d898c2967f4fe342e2fe1a7f9b8ee7eb4a7c0f9e162bce33576b315ececbb6406837bf51f58d8d61124d565b909250905081158015610bea575080155b15610c3757600080516020611bd183398151915288600080516020611bd1833981519152038a0898506000975088158015610c23575087155b15610c375760009650505050505050611245565b600189841c16600189851c1660011b015b80610c6a5760018403935060018a851c1660018a861c1660011b019050610c48565b50600189841c16600189851c1660011b01955060018603610ccc577f6b17d1f2e12c4247f8bce6e563a440f277037d812deb33a0f4a13945d898c29696507f4fe342e2fe1a7f9b8ee7eb4a7c0f9e162bce33576b315ececbb6406837bf51f593505b60028603610cdb578a96508993505b60038603610cea578196508093505b60018303925060019550600194505b8260001911156111ce57600160601b63ffffffff60c01b031984600209600160601b63ffffffff60c01b0319818209600160601b63ffffffff60c01b0319818a09600160601b63ffffffff60c01b03198284099250600160601b63ffffffff60c01b031980600160601b63ffffffff60c01b03198b8d08600160601b63ffffffff60c01b03198c600160601b63ffffffff60c01b0319038e0809600309600160601b63ffffffff60c01b03198985099850600160601b63ffffffff60c01b03198a84099950600160601b63ffffffff60c01b031980836002600160601b0363ffffffff60c01b031909600160601b63ffffffff60c01b0319838409089a50600160601b63ffffffff60c01b03198083600160601b63ffffffff60c01b0319038d0882099250600160601b63ffffffff60c01b031983600160601b63ffffffff60c01b03198a870908975060018d881c1660018d891c1660011b01905080610e765787600160601b63ffffffff60c01b0319039750505050506111c3565b60018103610ec5577f6b17d1f2e12c4247f8bce6e563a440f277037d812deb33a0f4a13945d898c29693507f4fe342e2fe1a7f9b8ee7eb4a7c0f9e162bce33576b315ececbb6406837bf51f592505b60028103610ed4578e93508d92505b60038103610ee3578593508492505b89610efc57509198506001975087965094506111c39050565b600160601b63ffffffff60c01b031988600160601b63ffffffff60c01b03198b860908600160601b63ffffffff60c01b03198c600160601b63ffffffff60c01b031903600160601b63ffffffff60c01b03198d8809089350806110b557836110b557600160601b63ffffffff60c01b0319896002600160601b0363ffffffff60c01b0319099450600160601b63ffffffff60c01b03198586099350600160601b63ffffffff60c01b0319848d099250600160601b63ffffffff60c01b03198486099450600160601b63ffffffff60c01b0319808c600160601b63ffffffff60c01b0319038e08600160601b63ffffffff60c01b03198d8f08099050600160601b63ffffffff60c01b0319816003099150600160601b63ffffffff60c01b03198a86099950600160601b63ffffffff60c01b03198b85099a50600160601b63ffffffff60c01b031980846002600160601b0363ffffffff60c01b031909600160601b63ffffffff60c01b0319848509089b50600160601b63ffffffff60c01b0319808d600160601b63ffffffff60c01b031903850883099350600160601b63ffffffff60c01b0319808a87098508985050505050506111c3565b600160601b63ffffffff60c01b03198485099150600160601b63ffffffff60c01b0319848309600160601b63ffffffff60c01b0319838d099b50600160601b63ffffffff60c01b0319818c099a50600160601b63ffffffff60c01b0319838e09600160601b63ffffffff60c01b031980826002600160601b0363ffffffff60c01b031909600160601b63ffffffff60c01b031984600160601b63ffffffff60c01b031903600160601b63ffffffff60c01b031987880908089350600160601b63ffffffff60c01b031980838d09600160601b63ffffffff60c01b031985600160601b63ffffffff60c01b031988600160601b63ffffffff60c01b031903860809089a50505050809a50505050505b600183039250610cf9565b60405186606082015260208152602080820152602060408201526002600160601b0363ffffffff60c01b03196080820152600160601b63ffffffff60c01b031960a082015260208160c0836005600019fa61122857600080fd5b600160601b63ffffffff60c01b0319815189099750505050505050505b949350505050565b6000808080866112645785859350935050506112d2565b846112765787879350935050506112d2565b858814801561128457508487145b156112a55761129688886001806112db565b929a50909850925090506112bf565b6112b488886001808a8a611436565b929a50909850925090505b6112cb888884846115ba565b9350935050505b94509492505050565b600080600080600160601b63ffffffff60c01b0319876002099350600160601b63ffffffff60c01b03198485099150600160601b63ffffffff60c01b03198289099050600160601b63ffffffff60c01b03198285099250600160601b63ffffffff60c01b03198683099150600160601b63ffffffff60c01b031980600160601b63ffffffff60c01b0319888b08600160601b63ffffffff60c01b031989600160601b63ffffffff60c01b0319038c08096003099550600160601b63ffffffff60c01b031980826002600160601b0363ffffffff60c01b031909600160601b63ffffffff60c01b0319888909089350600160601b63ffffffff60c01b03198085600160601b63ffffffff60c01b031903830887099750600160601b63ffffffff60c01b03198584099050600160601b63ffffffff60c01b031980888509600160601b63ffffffff60c01b03190389089250945094509450949050565b60008060008088600003611455575084925083915060019050806115ad565b600160601b63ffffffff60c01b0319988903988981898809089450600160601b63ffffffff60c01b03198a600160601b63ffffffff60c01b031903600160601b63ffffffff60c01b03198a8909089550600160601b63ffffffff60c01b03198687099350600160601b63ffffffff60c01b03198685099250600160601b63ffffffff60c01b03198489099150600160601b63ffffffff60c01b03198388099050600160601b63ffffffff60c01b0319848b099750600160601b63ffffffff60c01b031980896002600160601b0363ffffffff60c01b031909600160601b63ffffffff60c01b031985600160601b63ffffffff60c01b031903600160601b63ffffffff60c01b0319898a0908089350600160601b63ffffffff60c01b031980848b09600160601b63ffffffff60c01b031987600160601b63ffffffff60c01b031988600160601b63ffffffff60c01b0319038d08090892505b9650965096509692505050565b60008060006115c884611627565b9050600160601b63ffffffff60c01b031981870991506000600160601b63ffffffff60c01b03198287099050600160601b63ffffffff60c01b03198182099150600160601b63ffffffff60c01b03198289099350505094509492505050565b600060405160208152602080820152602060408201528260608201526002600160601b0363ffffffff60c01b03196080820152600160601b63ffffffff60c01b031960a082015260208160c0836005600019fa610b5d57600080fd5b60008060006040848603121561169857600080fd5b83359250602084013567ffffffffffffffff808211156116b757600080fd5b818601915086601f8301126116cb57600080fd5b8135818111156116da57600080fd5b8760208285010111156116ec57600080fd5b6020830194508093505050509250925092565b60008060006060848603121561171457600080fd5b505081359360208301359350604090920135919050565b6000806040838503121561173e57600080fd5b82356001600160a01b038116811461175557600080fd5b946020939093013593505050565b60006020828403121561177557600080fd5b5035919050565b6000806040838503121561178f57600080fd5b823567ffffffffffffffff8111156117a657600080fd5b8301610160818603121561175557600080fd5b6000808335601e198436030181126117d057600080fd5b83018035915067ffffffffffffffff8211156117eb57600080fd5b60200191503681900382131561180057600080fd5b9250929050565b6000808585111561181757600080fd5b8386111561182457600080fd5b5050820193919092039150565b6bffffffffffffffffffffffff19813581811691601485101561185e5780818660140360031b1b83161692505b505092915050565b634e487b7160e01b600052604160045260246000fd5b60405160c0810167ffffffffffffffff8111828210171561189f5761189f611866565b60405290565b604051601f8201601f1916810167ffffffffffffffff811182821017156118ce576118ce611866565b604052919050565b600067ffffffffffffffff8211156118f0576118f0611866565b50601f01601f191660200190565b6000806040838503121561191157600080fd5b82359150602083013567ffffffffffffffff81111561192f57600080fd5b8301601f8101851361194057600080fd5b803561195361194e826118d6565b6118a5565b81815286602083850101111561196857600080fd5b816020840160208301376000602083830101528093505050509250929050565b60005b838110156119a357818101518382015260200161198b565b50506000910152565b600082601f8301126119bd57600080fd5b81516119cb61194e826118d6565b8181528460208386010111156119e057600080fd5b611245826020830160208701611988565b600060208284031215611a0357600080fd5b815167ffffffffffffffff80821115611a1b57600080fd5b9083019060c08286031215611a2f57600080fd5b611a3761187c565b825182811115611a4657600080fd5b611a52878286016119ac565b825250602083015182811115611a6757600080fd5b611a73878286016119ac565b60208301525060408301516040820152606083015160608201526080830151608082015260a083015160a082015280935050505092915050565b634e487b7160e01b600052601160045260246000fd5b600082611ae057634e487b7160e01b600052601260045260246000fd5b500490565b8181038181111561020557610205611aad565b8082018082111561020557610205611aad565b6c1131b430b63632b733b2911d1160991b81528151600090611b3481600d850160208701611988565b601160f91b600d939091019283015250600e01919050565b634e487b7160e01b600052603260045260246000fd5b60008251611b74818460208701611988565b9190910192915050565b600060208284031215611b9057600080fd5b5051919050565b60008351611ba9818460208801611988565b9190910191825250602001919050565b808202811582820484141761020557610205611aad56feffffffff00000000ffffffffffffffffbce6faada7179e84f3b9cac2fc6325514142434445464748494a4b4c4d4e4f505152535455565758595a6162636465666768696a6b6c6d6e6f707172737475767778797a303132333435363738392d5fa26469706673582212207483adfc32a79d055abcaff26da17006e562c6abeb4fa5437e7bbda43dab394264736f6c63430008130033",
    "linkReferences": {}
  },
  "methodIdentifiers": {
    "callback((address,uint256,bytes,bytes,uint256,uint256,uint256,uint256,uint256,bytes,bytes),bytes32)": "dee30c97",
    "getPublicKey(address,bytes32)": "7cefdd5d",
    "isValidSignature(bytes32,bytes)": "1626ba7e",
    "registerPublicKey(bytes32,uint256,uint256)": "3082ab5b",
    "removePublicKey(bytes32)": "8f3285f5",
    "validateUserOp((address,uint256,bytes,bytes,uint256,uint256,uint256,uint256,uint256,bytes,bytes),bytes32)": "fff35b72"
  },
  "id": 84
}