{
    "abi": [
        {
            "inputs": [
                {
                    "internalType": "address",
                    "name": "entryPointAddress",
                    "type": "address"
                }
            ],
            "stateMutability": "nonpayable",
            "type": "constructor"
        },
        {
            "anonymous": false,
            "inputs": [
                {
                    "indexed": false,
                    "internalType": "address",
                    "name": "previousAdmin",
                    "type": "address"
                },
                {
                    "indexed": false,
                    "internalType": "address",
                    "name": "newAdmin",
                    "type": "address"
                }
            ],
            "name": "AdminChanged",
            "type": "event"
        },
        {
            "anonymous": false,
            "inputs": [
                {
                    "indexed": true,
                    "internalType": "address",
                    "name": "beacon",
                    "type": "address"
                }
            ],
            "name": "BeaconUpgraded",
            "type": "event"
        },
        {
            "anonymous": false,
            "inputs": [],
            "name": "Execute",
            "type": "event"
        },
        {
            "anonymous": false,
            "inputs": [
                {
                    "indexed": false,
                    "internalType": "uint8",
                    "name": "version",
                    "type": "uint8"
                }
            ],
            "name": "Initialized",
            "type": "event"
        },
        {
            "anonymous": false,
            "inputs": [
                {
                    "indexed": true,
                    "internalType": "address",
                    "name": "implementation",
                    "type": "address"
                }
            ],
            "name": "Upgraded",
            "type": "event"
        },
        {
            "stateMutability": "payable",
            "type": "fallback"
        },
        {
            "inputs": [],
            "name": "KEY_COUNT_SLOT",
            "outputs": [
                {
                    "internalType": "bytes32",
                    "name": "",
                    "type": "bytes32"
                }
            ],
            "stateMutability": "view",
            "type": "function"
        },
        {
            "inputs": [],
            "name": "KEY_MANAGE_PREFIX_SLOT",
            "outputs": [
                {
                    "internalType": "bytes32",
                    "name": "",
                    "type": "bytes32"
                }
            ],
            "stateMutability": "view",
            "type": "function"
        },
        {
            "inputs": [],
            "name": "SENTINEL_ADDRESS",
            "outputs": [
                {
                    "internalType": "address",
                    "name": "",
                    "type": "address"
                }
            ],
            "stateMutability": "view",
            "type": "function"
        },
        {
            "inputs": [
                {
                    "internalType": "address",
                    "name": "initKey",
                    "type": "address"
                }
            ],
            "name": "__Wallet_init",
            "outputs": [],
            "stateMutability": "nonpayable",
            "type": "function"
        },
        {
            "inputs": [
                {
                    "internalType": "address",
                    "name": "key",
                    "type": "address"
                }
            ],
            "name": "addKey",
            "outputs": [],
            "stateMutability": "nonpayable",
            "type": "function"
        },
        {
            "inputs": [],
            "name": "entryPoint",
            "outputs": [
                {
                    "internalType": "contract IEntryPoint",
                    "name": "",
                    "type": "address"
                }
            ],
            "stateMutability": "view",
            "type": "function"
        },
        {
            "inputs": [
                {
                    "internalType": "address",
                    "name": "dest",
                    "type": "address"
                },
                {
                    "internalType": "uint256",
                    "name": "value",
                    "type": "uint256"
                },
                {
                    "internalType": "bytes",
                    "name": "func",
                    "type": "bytes"
                }
            ],
            "name": "execute",
            "outputs": [],
            "stateMutability": "nonpayable",
            "type": "function"
        },
        {
            "inputs": [
                {
                    "internalType": "address[]",
                    "name": "dest",
                    "type": "address[]"
                },
                {
                    "internalType": "uint256[]",
                    "name": "values",
                    "type": "uint256[]"
                },
                {
                    "internalType": "bytes[]",
                    "name": "func",
                    "type": "bytes[]"
                }
            ],
            "name": "executeBatch",
            "outputs": [],
            "stateMutability": "nonpayable",
            "type": "function"
        },
        {
            "inputs": [],
            "name": "getKeys",
            "outputs": [
                {
                    "internalType": "address[]",
                    "name": "keys",
                    "type": "address[]"
                }
            ],
            "stateMutability": "view",
            "type": "function"
        },
        {
            "inputs": [],
            "name": "getNonce",
            "outputs": [
                {
                    "internalType": "uint256",
                    "name": "",
                    "type": "uint256"
                }
            ],
            "stateMutability": "view",
            "type": "function"
        },
        {
            "inputs": [],
            "name": "getTotalKey",
            "outputs": [
                {
                    "internalType": "uint256",
                    "name": "",
                    "type": "uint256"
                }
            ],
            "stateMutability": "view",
            "type": "function"
        },
        {
            "inputs": [
                {
                    "internalType": "address",
                    "name": "key",
                    "type": "address"
                }
            ],
            "name": "isValidKey",
            "outputs": [
                {
                    "internalType": "bool",
                    "name": "",
                    "type": "bool"
                }
            ],
            "stateMutability": "view",
            "type": "function"
        },
        {
            "inputs": [
                {
                    "internalType": "bytes32",
                    "name": "hash",
                    "type": "bytes32"
                },
                {
                    "internalType": "bytes",
                    "name": "signature",
                    "type": "bytes"
                }
            ],
            "name": "isValidSignature",
            "outputs": [
                {
                    "internalType": "bytes4",
                    "name": "magicValue",
                    "type": "bytes4"
                }
            ],
            "stateMutability": "view",
            "type": "function"
        },
        {
            "inputs": [
                {
                    "internalType": "address",
                    "name": "",
                    "type": "address"
                },
                {
                    "internalType": "address",
                    "name": "",
                    "type": "address"
                },
                {
                    "internalType": "uint256[]",
                    "name": "",
                    "type": "uint256[]"
                },
                {
                    "internalType": "uint256[]",
                    "name": "",
                    "type": "uint256[]"
                },
                {
                    "internalType": "bytes",
                    "name": "",
                    "type": "bytes"
                }
            ],
            "name": "onERC1155BatchReceived",
            "outputs": [
                {
                    "internalType": "bytes4",
                    "name": "",
                    "type": "bytes4"
                }
            ],
            "stateMutability": "pure",
            "type": "function"
        },
        {
            "inputs": [
                {
                    "internalType": "address",
                    "name": "",
                    "type": "address"
                },
                {
                    "internalType": "address",
                    "name": "",
                    "type": "address"
                },
                {
                    "internalType": "uint256",
                    "name": "",
                    "type": "uint256"
                },
                {
                    "internalType": "uint256",
                    "name": "",
                    "type": "uint256"
                },
                {
                    "internalType": "bytes",
                    "name": "",
                    "type": "bytes"
                }
            ],
            "name": "onERC1155Received",
            "outputs": [
                {
                    "internalType": "bytes4",
                    "name": "",
                    "type": "bytes4"
                }
            ],
            "stateMutability": "pure",
            "type": "function"
        },
        {
            "inputs": [
                {
                    "internalType": "address",
                    "name": "",
                    "type": "address"
                },
                {
                    "internalType": "address",
                    "name": "",
                    "type": "address"
                },
                {
                    "internalType": "uint256",
                    "name": "",
                    "type": "uint256"
                },
                {
                    "internalType": "bytes",
                    "name": "",
                    "type": "bytes"
                }
            ],
            "name": "onERC721Received",
            "outputs": [
                {
                    "internalType": "bytes4",
                    "name": "",
                    "type": "bytes4"
                }
            ],
            "stateMutability": "pure",
            "type": "function"
        },
        {
            "inputs": [],
            "name": "proxiableUUID",
            "outputs": [
                {
                    "internalType": "bytes32",
                    "name": "",
                    "type": "bytes32"
                }
            ],
            "stateMutability": "view",
            "type": "function"
        },
        {
            "inputs": [
                {
                    "internalType": "address",
                    "name": "prevKey",
                    "type": "address"
                },
                {
                    "internalType": "address",
                    "name": "key",
                    "type": "address"
                }
            ],
            "name": "removeKey",
            "outputs": [],
            "stateMutability": "nonpayable",
            "type": "function"
        },
        {
            "inputs": [
                {
                    "internalType": "bytes4",
                    "name": "interfaceId",
                    "type": "bytes4"
                }
            ],
            "name": "supportsInterface",
            "outputs": [
                {
                    "internalType": "bool",
                    "name": "",
                    "type": "bool"
                }
            ],
            "stateMutability": "view",
            "type": "function"
        },
        {
            "inputs": [
                {
                    "internalType": "address",
                    "name": "",
                    "type": "address"
                },
                {
                    "internalType": "address",
                    "name": "",
                    "type": "address"
                },
                {
                    "internalType": "address",
                    "name": "",
                    "type": "address"
                },
                {
                    "internalType": "uint256",
                    "name": "",
                    "type": "uint256"
                },
                {
                    "internalType": "bytes",
                    "name": "",
                    "type": "bytes"
                },
                {
                    "internalType": "bytes",
                    "name": "",
                    "type": "bytes"
                }
            ],
            "name": "tokensReceived",
            "outputs": [],
            "stateMutability": "pure",
            "type": "function"
        },
        {
            "inputs": [
                {
                    "internalType": "address",
                    "name": "newImplementation",
                    "type": "address"
                }
            ],
            "name": "upgradeTo",
            "outputs": [],
            "stateMutability": "nonpayable",
            "type": "function"
        },
        {
            "inputs": [
                {
                    "internalType": "address",
                    "name": "newImplementation",
                    "type": "address"
                },
                {
                    "internalType": "bytes",
                    "name": "data",
                    "type": "bytes"
                }
            ],
            "name": "upgradeToAndCall",
            "outputs": [],
            "stateMutability": "payable",
            "type": "function"
        },
        {
            "inputs": [
                {
                    "components": [
                        {
                            "internalType": "address",
                            "name": "sender",
                            "type": "address"
                        },
                        {
                            "internalType": "uint256",
                            "name": "nonce",
                            "type": "uint256"
                        },
                        {
                            "internalType": "bytes",
                            "name": "initCode",
                            "type": "bytes"
                        },
                        {
                            "internalType": "bytes",
                            "name": "callData",
                            "type": "bytes"
                        },
                        {
                            "internalType": "uint256",
                            "name": "callGasLimit",
                            "type": "uint256"
                        },
                        {
                            "internalType": "uint256",
                            "name": "verificationGasLimit",
                            "type": "uint256"
                        },
                        {
                            "internalType": "uint256",
                            "name": "preVerificationGas",
                            "type": "uint256"
                        },
                        {
                            "internalType": "uint256",
                            "name": "maxFeePerGas",
                            "type": "uint256"
                        },
                        {
                            "internalType": "uint256",
                            "name": "maxPriorityFeePerGas",
                            "type": "uint256"
                        },
                        {
                            "internalType": "bytes",
                            "name": "paymasterAndData",
                            "type": "bytes"
                        },
                        {
                            "internalType": "bytes",
                            "name": "signature",
                            "type": "bytes"
                        }
                    ],
                    "internalType": "struct UserOperation",
                    "name": "userOp",
                    "type": "tuple"
                },
                {
                    "internalType": "bytes32",
                    "name": "userOpHash",
                    "type": "bytes32"
                },
                {
                    "internalType": "uint256",
                    "name": "missingAccountFunds",
                    "type": "uint256"
                }
            ],
            "name": "validateUserOp",
            "outputs": [
                {
                    "internalType": "uint256",
                    "name": "validationData",
                    "type": "uint256"
                }
            ],
            "stateMutability": "nonpayable",
            "type": "function"
        },
        {
            "stateMutability": "payable",
            "type": "receive"
        }
    ],
    "bytecode": {
        "object": "0x61012060405230608052600160a08190526200003c907f87811f529cafcb6c46985aed1d6771b44d67ee365f54f570c8cebc3679a31a8c620000b2565b60c0526200006c60017f805dd85f12947019774950c90727cb49341c55479dd1fe9c438e28e9588ec9c0620000b2565b60e0523480156200007c57600080fd5b5060405162002e9938038062002e998339810160408190526200009f91620000da565b6001600160a01b0316610100526200010c565b81810381811115620000d457634e487b7160e01b600052601160045260246000fd5b92915050565b600060208284031215620000ed57600080fd5b81516001600160a01b03811681146200010557600080fd5b9392505050565b60805160a05160c05160e05161010051612cb5620001e46000396000818161037a0152818161106f0152818161133a01526116aa01526000818161034901528181611043015281816118f2015261192801526000818161046a01528181611128015261186a01526000818161049e015281816106da0152818161070301528181610ac701528181610af201528181610d0701528181610d7a01528181610e0501528181610e3a0152610ea901526000818161079d015281816107e601528181610b7201528181610bb20152610c410152612cb56000f3fe6080604052600436106101375760003560e01c80635cf00ee4116100b0578063bc197c811161006c578063bc197c81146103d2578063c5afe5e014610401578063d087d28814610416578063f23a6e611461042b578063f748386014610458578063fae010f61461048c57005b80635cf00ee4146102d75780635f7b68be146102f75780638ab3e33f14610317578063abf0c72714610337578063b0d691fe1461036b578063b61d27f6146103b257005b80633659cfe6116100ff5780633659cfe6146102215780633a871cdd1461024157806347e1da2a1461026f578063493ff0041461028f5780634f1ef286146102af57806352d1902d146102c257005b806223de291461014057806301ffc9a714610165578063150b7a021461019a5780631626ba7e146101df5780632150c518146101ff57005b3661013e57005b005b34801561014c57600080fd5b5061013e61015b366004611e97565b5050505050505050565b34801561017157600080fd5b50610185610180366004611f57565b6104c0565b60405190151581526020015b60405180910390f35b3480156101a657600080fd5b506101c66101b5366004611f74565b630a85bd0160e11b95945050505050565b6040516001600160e01b03199091168152602001610191565b3480156101eb57600080fd5b506101c66101fa366004611fe2565b61052d565b34801561020b57600080fd5b5061021461067e565b604051610191919061202d565b34801561022d57600080fd5b5061013e61023c36600461207a565b610793565b34801561024d57600080fd5b5061026161025c366004612095565b61087b565b604051908152602001610191565b34801561027b57600080fd5b5061013e61028a36600461212c565b6108a1565b34801561029b57600080fd5b5061013e6102aa36600461207a565b610a02565b61013e6102bd366004612290565b610b68565b3480156102ce57600080fd5b50610261610c34565b3480156102e357600080fd5b506101856102f236600461207a565b610ce7565b34801561030357600080fd5b5061013e61031236600461207a565b610d41565b34801561032357600080fd5b5061013e6103323660046122dd565b610e70565b34801561034357600080fd5b506102617f000000000000000000000000000000000000000000000000000000000000000081565b34801561037757600080fd5b507f00000000000000000000000000000000000000000000000000000000000000005b6040516001600160a01b039091168152602001610191565b3480156103be57600080fd5b5061013e6103cd366004612310565b610fa0565b3480156103de57600080fd5b506101c66103ed366004612369565b63bc197c8160e01b98975050505050505050565b34801561040d57600080fd5b5061026161103c565b34801561042257600080fd5b5061026161106b565b34801561043757600080fd5b506101c6610446366004612402565b63f23a6e6160e01b9695505050505050565b34801561046457600080fd5b506102617f000000000000000000000000000000000000000000000000000000000000000081565b34801561049857600080fd5b5061039a7f000000000000000000000000000000000000000000000000000000000000000081565b60006001600160e01b03198216630271189760e51b14806104f157506001600160e01b03198216630a85bd0160e11b145b8061050c57506001600160e01b031982166301ffc9a760e01b145b8061052757506301ffc9a760e01b6001600160e01b03198316145b92915050565b60008061053d6014828587612467565b61054691612491565b60601c9050600061055a8460148188612467565b8080601f01602080910402602001604051908101604052809392919081815260200183838082843760009201919091525092935061059d9250849150610ce79050565b15610669576001600160a01b0382163b1561062857604051630b135d3f60e11b81526001600160a01b03831690631626ba7e906105e09089908590600401612514565b602060405180830381865afa1580156105fd573d6000803e3d6000fd5b505050506040513d601f19601f82011682018060405250810190610621919061252d565b9250610675565b61063286826110ff565b6001600160a01b0316826001600160a01b03160361065957630b135d3f60e11b9250610675565b6001600160e01b03199250610675565b6001600160e01b031992505b50509392505050565b6060600061068a61103c565b90506000816001600160401b038111156106a6576106a66121c5565b6040519080825280602002602001820160405280156106cf578160200160208202803683370190505b5090506000806106fe7f0000000000000000000000000000000000000000000000000000000000000000611123565b90505b7f00000000000000000000000000000000000000000000000000000000000000006001600160a01b0316816001600160a01b03161461078a578083838151811061074d5761074d61254a565b60200260200101906001600160a01b031690816001600160a01b03168152505061077681611123565b90508161078281612576565b925050610701565b50909392505050565b6001600160a01b037f00000000000000000000000000000000000000000000000000000000000000001630036107e45760405162461bcd60e51b81526004016107db9061258f565b60405180910390fd5b7f00000000000000000000000000000000000000000000000000000000000000006001600160a01b031661082d600080516020612c39833981519152546001600160a01b031690565b6001600160a01b0316146108535760405162461bcd60e51b81526004016107db906125db565b61085c8161119b565b60408051600080825260208201909252610878918391906111bf565b50565b600061088561132f565b61088f84846113a9565b905061089a82611644565b9392505050565b6108a961169d565b6108c55760405162461bcd60e51b81526004016107db90612627565b84811461090a5760405162461bcd60e51b815260206004820152601360248201527257726f6e67206172726179206c656e6774687360681b60448201526064016107db565b60005b858110156109c8576109b687878381811061092a5761092a61254a565b905060200201602081019061093f919061207a565b8686848181106109515761095161254a565b9050602002013585858581811061096a5761096a61254a565b905060200281019061097c9190612657565b8080601f0160208091040260200160405190810160405280939291908181526020018383808284376000920191909152506116e492505050565b806109c081612576565b91505061090d565b506040517fb9d2d32c9e5b3a74bb2ccd4d000be39660f9852691248d3b91f49adb1ec00f1990600090a16109fa611754565b505050505050565b600054610100900460ff1615808015610a225750600054600160ff909116105b80610a3c5750303b158015610a3c575060005460ff166001145b610a9f5760405162461bcd60e51b815260206004820152602e60248201527f496e697469616c697a61626c653a20636f6e747261637420697320616c72656160448201526d191e481a5b9a5d1a585b1a5e995960921b60648201526084016107db565b6000805460ff191660011790558015610ac2576000805461ff0019166101001790555b610aec7f000000000000000000000000000000000000000000000000000000000000000083611866565b610b16827f0000000000000000000000000000000000000000000000000000000000000000611866565b610b1e6118f0565b8015610b64576000805461ff0019169055604051600181527f7f26b83ff96e1f2b6a682f133852f6798a09c465da95921460cefb38474024989060200160405180910390a15b5050565b6001600160a01b037f0000000000000000000000000000000000000000000000000000000000000000163003610bb05760405162461bcd60e51b81526004016107db9061258f565b7f00000000000000000000000000000000000000000000000000000000000000006001600160a01b0316610bf9600080516020612c39833981519152546001600160a01b031690565b6001600160a01b031614610c1f5760405162461bcd60e51b81526004016107db906125db565b610c288261119b565b610b64828260016111bf565b6000306001600160a01b037f00000000000000000000000000000000000000000000000000000000000000001614610cd45760405162461bcd60e51b815260206004820152603860248201527f555550535570677261646561626c653a206d757374206e6f742062652063616c60448201527f6c6564207468726f7567682064656c656761746563616c6c000000000000000060648201526084016107db565b50600080516020612c3983398151915290565b600080610cf383611123565b6001600160a01b03161415801561052757507f00000000000000000000000000000000000000000000000000000000000000006001600160a01b0316826001600160a01b0316141592915050565b610d4961169d565b610d655760405162461bcd60e51b81526004016107db90612627565b6001600160a01b03811615801590610daf57507f00000000000000000000000000000000000000000000000000000000000000006001600160a01b0316816001600160a01b031614155b8015610dc457506001600160a01b0381163014155b610dfe5760405162461bcd60e51b815260206004820152600b60248201526a496e76616c6964204b657960a81b60448201526064016107db565b6000610e297f0000000000000000000000000000000000000000000000000000000000000000611123565b9050610e358282611866565b610e5f7f000000000000000000000000000000000000000000000000000000000000000083611866565b610e676118f0565b50610878611754565b610e7861169d565b610e945760405162461bcd60e51b81526004016107db90612627565b6001600160a01b03811615801590610ede57507f00000000000000000000000000000000000000000000000000000000000000006001600160a01b0316816001600160a01b031614155b610f185760405162461bcd60e51b815260206004820152600b60248201526a496e76616c6964204b657960a81b60448201526064016107db565b806001600160a01b0316610f2b83611123565b6001600160a01b031614610f735760405162461bcd60e51b815260206004820152600f60248201526e496e76616c696420707265764b657960881b60448201526064016107db565b610f8582610f8083611123565b611866565b610f90816000611866565b610f98611926565b610b64611754565b610fa861169d565b610fc45760405162461bcd60e51b81526004016107db90612627565b611005848484848080601f0160208091040260200160405190810160405280939291908181526020018383808284376000920191909152506116e492505050565b6040517fb9d2d32c9e5b3a74bb2ccd4d000be39660f9852691248d3b91f49adb1ec00f1990600090a1611036611754565b50505050565b60006110667f00000000000000000000000000000000000000000000000000000000000000005490565b905090565b60007f0000000000000000000000000000000000000000000000000000000000000000604051631aab3f0d60e11b8152306004820152600060248201526001600160a01b0391909116906335567e1a90604401602060405180830381865afa1580156110db573d6000803e3d6000fd5b505050506040513d601f19601f82011682018060405250810190611066919061269d565b600080600061110e8585611955565b9150915061111b8161199a565b509392505050565b6000807f00000000000000000000000000000000000000000000000000000000000000008360405160200161116b9291909182526001600160a01b0316602082015260400190565b60405160208183030381529060405280519060200120905061118a8190565b546001600160a01b03169392505050565b6111a361169d565b6108785760405162461bcd60e51b81526004016107db90612627565b7f4910fdfa16fed3260ed0e7147f7cc6da11a60208b5b9406d12a635614ffd91435460ff16156111f7576111f283611ae4565b505050565b826001600160a01b03166352d1902d6040518163ffffffff1660e01b8152600401602060405180830381865afa925050508015611251575060408051601f3d908101601f1916820190925261124e9181019061269d565b60015b6112b45760405162461bcd60e51b815260206004820152602e60248201527f45524331393637557067726164653a206e657720696d706c656d656e7461746960448201526d6f6e206973206e6f74205555505360901b60648201526084016107db565b600080516020612c3983398151915281146113235760405162461bcd60e51b815260206004820152602960248201527f45524331393637557067726164653a20756e737570706f727465642070726f786044820152681a58589b195555525160ba1b60648201526084016107db565b506111f2838383611b80565b336001600160a01b037f000000000000000000000000000000000000000000000000000000000000000016146113a75760405162461bcd60e51b815260206004820152601c60248201527f6163636f756e743a206e6f742066726f6d20456e747279506f696e740000000060448201526064016107db565b565b6000806113ba610140850185612657565b6113c991601491600091612467565b6113d291612491565b60601c905060006113e7610140860186612657565b6113f5916014908290612467565b8080601f0160208091040260200160405190810160405280939291908181526020018383808284376000920191909152509293506114389250849150610ce79050565b15611637576001600160a01b0382163b156115d257604051806060016040528086611462906126b6565b81526001600160a01b03848116602080840191909152604092830188905283518051600180546001600160a01b03191691909416178355908101516002559182015190919082906003906114b69082612844565b50606082015160038201906114cb9082612844565b506080820151600482015560a0820151600582015560c0820151600682015560e08201516007820155610100820151600882015561012082015160098201906115149082612844565b50610140820151600a82019061152a9082612844565b5050506020820151600b820180546001600160a01b0319166001600160a01b03928316179055604092830151600c90920191909155905160016206524760e11b031981529083169063fff35b72906115889088908890600401612971565b6020604051808303816000875af11580156115a7573d6000803e3d6000fd5b505050506040513d601f19601f820116820180604052508101906115cb919061269d565b925061163c565b7f19457468657265756d205369676e6564204d6573736167653a0a3332000000006000908152601c859052603c902061160b81836110ff565b6001600160a01b0316836001600160a01b03160361162c5760009350611631565b600193505b5061163c565b600192505b505092915050565b801561087857604051600090339060001990849084818181858888f193505050503d8060008114611691576040519150601f19603f3d011682016040523d82523d6000602084013e611696565b606091505b5050505050565b6000336001600160a01b037f00000000000000000000000000000000000000000000000000000000000000001614806116d557503330145b80611066575061106633610ce7565b600080846001600160a01b031684846040516117009190612a8a565b60006040518083038185875af1925050503d806000811461173d576040519150601f19603f3d011682016040523d82523d6000602084013e611742565b606091505b50915091508161169657805160208201fd5b600c546001600160a01b0316156113a757600c54600d5460405163dee30c9760e01b81526001600160a01b039092169163dee30c979161179a9160019190600401612b23565b600060405180830381600087803b1580156117b457600080fd5b505af11580156117c8573d6000803e3d6000fd5b5050600180546001600160a01b031916815560006002819055909250905081816117f3600382611dec565b611801600383016000611dec565b600482016000905560058201600090556006820160009055600782016000905560088201600090556009820160006118399190611dec565b611847600a83016000611dec565b505050600b810180546001600160a01b03191690556000600c90910155565b60007f0000000000000000000000000000000000000000000000000000000000000000836040516020016118ad9291909182526001600160a01b0316602082015260400190565b604051602081830303815290604052805190602001209050816118cd8290565b80546001600160a01b0319166001600160a01b0392909216919091179055505050565b7f0000000000000000000000000000000000000000000000000000000000000000805490600061191f83612576565b9190505550565b7f0000000000000000000000000000000000000000000000000000000000000000805490600061191f83612bf8565b600080825160410361198b5760208301516040840151606085015160001a61197f87828585611ba5565b94509450505050611993565b506000905060025b9250929050565b60008160048111156119ae576119ae612c0f565b036119b65750565b60018160048111156119ca576119ca612c0f565b03611a175760405162461bcd60e51b815260206004820152601860248201527f45434453413a20696e76616c6964207369676e6174757265000000000000000060448201526064016107db565b6002816004811115611a2b57611a2b612c0f565b03611a785760405162461bcd60e51b815260206004820152601f60248201527f45434453413a20696e76616c6964207369676e6174757265206c656e6774680060448201526064016107db565b6003816004811115611a8c57611a8c612c0f565b036108785760405162461bcd60e51b815260206004820152602260248201527f45434453413a20696e76616c6964207369676e6174757265202773272076616c604482015261756560f01b60648201526084016107db565b6001600160a01b0381163b611b515760405162461bcd60e51b815260206004820152602d60248201527f455243313936373a206e657720696d706c656d656e746174696f6e206973206e60448201526c1bdd08184818dbdb9d1c9858dd609a1b60648201526084016107db565b600080516020612c3983398151915280546001600160a01b0319166001600160a01b0392909216919091179055565b611b8983611c69565b600082511180611b965750805b156111f2576110368383611ca9565b6000807f7fffffffffffffffffffffffffffffff5d576e7357a4501ddfe92f46681b20a0831115611bdc5750600090506003611c60565b6040805160008082526020820180845289905260ff881692820192909252606081018690526080810185905260019060a0016020604051602081039080840390855afa158015611c30573d6000803e3d6000fd5b5050604051601f1901519150506001600160a01b038116611c5957600060019250925050611c60565b9150600090505b94509492505050565b611c7281611ae4565b6040516001600160a01b038216907fbc7cd75a20ee27fd9adebab32041f755214dbc6bffa90cc0225b39da2e5c2d3b90600090a250565b606061089a8383604051806060016040528060278152602001612c59602791396060600080856001600160a01b031685604051611ce69190612a8a565b600060405180830381855af49150503d8060008114611d21576040519150601f19603f3d011682016040523d82523d6000602084013e611d26565b606091505b5091509150611d3786838387611d41565b9695505050505050565b60608315611db0578251600003611da9576001600160a01b0385163b611da95760405162461bcd60e51b815260206004820152601d60248201527f416464726573733a2063616c6c20746f206e6f6e2d636f6e747261637400000060448201526064016107db565b5081611dba565b611dba8383611dc2565b949350505050565b815115611dd25781518083602001fd5b8060405162461bcd60e51b81526004016107db9190612c25565b508054611df8906127c4565b6000825580601f10611e08575050565b601f01602090049060005260206000209081019061087891905b80821115611e365760008155600101611e22565b5090565b80356001600160a01b0381168114611e5157600080fd5b919050565b60008083601f840112611e6857600080fd5b5081356001600160401b03811115611e7f57600080fd5b60208301915083602082850101111561199357600080fd5b60008060008060008060008060c0898b031215611eb357600080fd5b611ebc89611e3a565b9750611eca60208a01611e3a565b9650611ed860408a01611e3a565b95506060890135945060808901356001600160401b0380821115611efb57600080fd5b611f078c838d01611e56565b909650945060a08b0135915080821115611f2057600080fd5b50611f2d8b828c01611e56565b999c989b5096995094979396929594505050565b6001600160e01b03198116811461087857600080fd5b600060208284031215611f6957600080fd5b813561089a81611f41565b600080600080600060808688031215611f8c57600080fd5b611f9586611e3a565b9450611fa360208701611e3a565b93506040860135925060608601356001600160401b03811115611fc557600080fd5b611fd188828901611e56565b969995985093965092949392505050565b600080600060408486031215611ff757600080fd5b8335925060208401356001600160401b0381111561201457600080fd5b61202086828701611e56565b9497909650939450505050565b6020808252825182820181905260009190848201906040850190845b8181101561206e5783516001600160a01b031683529284019291840191600101612049565b50909695505050505050565b60006020828403121561208c57600080fd5b61089a82611e3a565b6000806000606084860312156120aa57600080fd5b83356001600160401b038111156120c057600080fd5b840161016081870312156120d357600080fd5b95602085013595506040909401359392505050565b60008083601f8401126120fa57600080fd5b5081356001600160401b0381111561211157600080fd5b6020830191508360208260051b850101111561199357600080fd5b6000806000806000806060878903121561214557600080fd5b86356001600160401b038082111561215c57600080fd5b6121688a838b016120e8565b9098509650602089013591508082111561218157600080fd5b61218d8a838b016120e8565b909650945060408901359150808211156121a657600080fd5b506121b389828a016120e8565b979a9699509497509295939492505050565b634e487b7160e01b600052604160045260246000fd5b60405161016081016001600160401b03811182821017156121fe576121fe6121c5565b60405290565b600082601f83011261221557600080fd5b81356001600160401b038082111561222f5761222f6121c5565b604051601f8301601f19908116603f01168101908282118183101715612257576122576121c5565b8160405283815286602085880101111561227057600080fd5b836020870160208301376000602085830101528094505050505092915050565b600080604083850312156122a357600080fd5b6122ac83611e3a565b915060208301356001600160401b038111156122c757600080fd5b6122d385828601612204565b9150509250929050565b600080604083850312156122f057600080fd5b6122f983611e3a565b915061230760208401611e3a565b90509250929050565b6000806000806060858703121561232657600080fd5b61232f85611e3a565b93506020850135925060408501356001600160401b0381111561235157600080fd5b61235d87828801611e56565b95989497509550505050565b60008060008060008060008060a0898b03121561238557600080fd5b61238e89611e3a565b975061239c60208a01611e3a565b965060408901356001600160401b03808211156123b857600080fd5b6123c48c838d016120e8565b909850965060608b01359150808211156123dd57600080fd5b6123e98c838d016120e8565b909650945060808b0135915080821115611f2057600080fd5b60008060008060008060a0878903121561241b57600080fd5b61242487611e3a565b955061243260208801611e3a565b9450604087013593506060870135925060808701356001600160401b0381111561245b57600080fd5b6121b389828a01611e56565b6000808585111561247757600080fd5b8386111561248457600080fd5b5050820193919092039150565b6bffffffffffffffffffffffff19813581811691601485101561163c5760149490940360031b84901b1690921692915050565b60005b838110156124df5781810151838201526020016124c7565b50506000910152565b600081518084526125008160208601602086016124c4565b601f01601f19169290920160200192915050565b828152604060208201526000611dba60408301846124e8565b60006020828403121561253f57600080fd5b815161089a81611f41565b634e487b7160e01b600052603260045260246000fd5b634e487b7160e01b600052601160045260246000fd5b60006001820161258857612588612560565b5060010190565b6020808252602c908201527f46756e6374696f6e206d7573742062652063616c6c6564207468726f7567682060408201526b19195b1959d85d1958d85b1b60a21b606082015260800190565b6020808252602c908201527f46756e6374696f6e206d7573742062652063616c6c6564207468726f7567682060408201526b6163746976652070726f787960a01b606082015260800190565b6020808252601690820152752bb0b63632ba1d1024b73b30b634b21021b0b63632b960511b604082015260600190565b6000808335601e1984360301811261266e57600080fd5b8301803591506001600160401b0382111561268857600080fd5b60200191503681900382131561199357600080fd5b6000602082840312156126af57600080fd5b5051919050565b600061016082360312156126c957600080fd5b6126d16121db565b6126da83611e3a565b81526020830135602082015260408301356001600160401b038082111561270057600080fd5b61270c36838701612204565b6040840152606085013591508082111561272557600080fd5b61273136838701612204565b60608401526080850135608084015260a085013560a084015260c085013560c084015260e085013560e0840152610100915081850135828401526101209150818501358181111561278157600080fd5b61278d36828801612204565b8385015250610140915081850135818111156127a857600080fd5b6127b436828801612204565b8385015250505080915050919050565b600181811c908216806127d857607f821691505b6020821081036127f857634e487b7160e01b600052602260045260246000fd5b50919050565b601f8211156111f257600081815260208120601f850160051c810160208610156128255750805b601f850160051c820191505b818110156109fa57828155600101612831565b81516001600160401b0381111561285d5761285d6121c5565b6128718161286b84546127c4565b846127fe565b602080601f8311600181146128a6576000841561288e5750858301515b600019600386901b1c1916600185901b1785556109fa565b600085815260208120601f198616915b828110156128d5578886015182559484019460019091019084016128b6565b50858210156128f35787850151600019600388901b60f8161c191681555b5050505050600190811b01905550565b6000808335601e1984360301811261291a57600080fd5b83016020810192503590506001600160401b0381111561293957600080fd5b80360382131561199357600080fd5b81835281816020850137506000828201602090810191909152601f909101601f19169091010190565b604081526129926040820161298585611e3a565b6001600160a01b03169052565b6020830135606082015260006129ab6040850185612903565b6101608060808601526129c36101a086018385612948565b92506129d26060880188612903565b9250603f19808786030160a08801526129ec858584612948565b9450608089013560c088015260a089013560e0880152610100935060c089013584880152610120915060e089013582880152610140848a013581890152612a35838b018b612903565b95509250818887030184890152612a4d868685612948565b9550612a5b818b018b612903565b955093505080878603016101808801525050612a78838383612948565b93505050508260208301529392505050565b60008251612a9c8184602087016124c4565b9190910192915050565b60008154612ab3816127c4565b808552602060018381168015612ad05760018114612aea57612b18565b60ff1985168884015283151560051b880183019550612b18565b866000528260002060005b85811015612b105781548a8201860152908301908401612af5565b890184019650505b505050505092915050565b60408152612b3f6040820161298585546001600160a01b031690565b600183015460608201526000610160806080840152612b656101a0840160028701612aa6565b603f19808583030160a0860152612b7f8260038901612aa6565b9150600487015460c0860152600587015460e0860152600687015461010086015260078701546101208601526008870154610140860152808583030183860152612bcc8260098901612aa6565b925080858403016101808601525050612be881600a8701612aa6565b9150508260208301529392505050565b600081612c0757612c07612560565b506000190190565b634e487b7160e01b600052602160045260246000fd5b60208152600061089a60208301846124e856fe360894a13ba1a3210667c828492db98dca3e2076cc3735a920a3ca505d382bbc416464726573733a206c6f772d6c6576656c2064656c65676174652063616c6c206661696c6564a264697066735822122048b7ef6ce3d76df004a42339cf78878261cf89ccd2cbf9bfac04351f292dd96a64736f6c63430008130033",
        "linkReferences": {}
    },
    "methodIdentifiers": {
        "KEY_COUNT_SLOT()": "abf0c727",
        "KEY_MANAGE_PREFIX_SLOT()": "f7483860",
        "SENTINEL_ADDRESS()": "fae010f6",
        "__Wallet_init(address)": "493ff004",
        "addKey(address)": "5f7b68be",
        "entryPoint()": "b0d691fe",
        "execute(address,uint256,bytes)": "b61d27f6",
        "executeBatch(address[],uint256[],bytes[])": "47e1da2a",
        "getKeys()": "2150c518",
        "getNonce()": "d087d288",
        "getTotalKey()": "c5afe5e0",
        "isValidKey(address)": "5cf00ee4",
        "isValidSignature(bytes32,bytes)": "1626ba7e",
        "onERC1155BatchReceived(address,address,uint256[],uint256[],bytes)": "bc197c81",
        "onERC1155Received(address,address,uint256,uint256,bytes)": "f23a6e61",
        "onERC721Received(address,address,uint256,bytes)": "150b7a02",
        "proxiableUUID()": "52d1902d",
        "removeKey(address,address)": "8ab3e33f",
        "supportsInterface(bytes4)": "01ffc9a7",
        "tokensReceived(address,address,address,uint256,bytes,bytes)": "0023de29",
        "upgradeTo(address)": "3659cfe6",
        "upgradeToAndCall(address,bytes)": "4f1ef286",
        "validateUserOp((address,uint256,bytes,bytes,uint256,uint256,uint256,uint256,uint256,bytes,bytes),bytes32,uint256)": "3a871cdd"
    },
    "id": 64
}